{
  "contractName": "FestivalMarketPlace",
  "abi": [
    {
      "inputs": [],
      "stateMutability": "nonpayable",
      "type": "constructor"
    },
    {
      "anonymous": false,
      "inputs": [
        {
          "indexed": false,
          "internalType": "string",
          "name": "festivalName",
          "type": "string"
        },
        {
          "indexed": false,
          "internalType": "address",
          "name": "transactionsLogicAddress",
          "type": "address"
        }
      ],
      "name": "FestivalCreated",
      "type": "event"
    },
    {
      "anonymous": false,
      "inputs": [
        {
          "indexed": false,
          "internalType": "address",
          "name": "contractAddress",
          "type": "address"
        }
      ],
      "name": "FestivalMarketPlaceCreated",
      "type": "event"
    },
    {
      "anonymous": false,
      "inputs": [
        {
          "indexed": true,
          "internalType": "address",
          "name": "previousOwner",
          "type": "address"
        },
        {
          "indexed": true,
          "internalType": "address",
          "name": "newOwner",
          "type": "address"
        }
      ],
      "name": "OwnershipTransferred",
      "type": "event"
    },
    {
      "inputs": [],
      "name": "owner",
      "outputs": [
        {
          "internalType": "address",
          "name": "",
          "type": "address"
        }
      ],
      "stateMutability": "view",
      "type": "function"
    },
    {
      "inputs": [],
      "name": "renounceOwnership",
      "outputs": [],
      "stateMutability": "nonpayable",
      "type": "function"
    },
    {
      "inputs": [
        {
          "internalType": "address",
          "name": "newOwner",
          "type": "address"
        }
      ],
      "name": "transferOwnership",
      "outputs": [],
      "stateMutability": "nonpayable",
      "type": "function"
    },
    {
      "inputs": [
        {
          "internalType": "string",
          "name": "festivalName",
          "type": "string"
        },
        {
          "internalType": "string",
          "name": "festivalSymbol",
          "type": "string"
        },
        {
          "internalType": "uint256",
          "name": "totalSupply",
          "type": "uint256"
        },
        {
          "internalType": "uint256",
          "name": "ticketPrice",
          "type": "uint256"
        },
        {
          "internalType": "uint256",
          "name": "commission",
          "type": "uint256"
        },
        {
          "internalType": "address",
          "name": "festivalOrganiser",
          "type": "address"
        },
        {
          "internalType": "contract FestivalMarketToken",
          "name": "token",
          "type": "address"
        }
      ],
      "name": "createFestival",
      "outputs": [
        {
          "internalType": "address",
          "name": "",
          "type": "address"
        }
      ],
      "stateMutability": "nonpayable",
      "type": "function"
    },
    {
      "inputs": [],
      "name": "getFestivalsOnMarketPlace",
      "outputs": [
        {
          "components": [
            {
              "internalType": "string",
              "name": "festivalName",
              "type": "string"
            },
            {
              "internalType": "string",
              "name": "festivalSymbol",
              "type": "string"
            },
            {
              "internalType": "address",
              "name": "transactionsLogic",
              "type": "address"
            },
            {
              "internalType": "uint256",
              "name": "ticketPrice",
              "type": "uint256"
            }
          ],
          "internalType": "struct FestivalMarketPlace.FestivalDetails[]",
          "name": "",
          "type": "tuple[]"
        }
      ],
      "stateMutability": "view",
      "type": "function"
    }
  ],
  "bytecode": "0x608060405234801561001057600080fd5b5061003361002564010000000061006b810204565b64010000000061006f810204565b6040513081527f470a221e0a85239625f4ac5d3660c960820219b1f5bb2e6d9264c3acbbe20b949060200160405180910390a16100bf565b3390565b60008054600160a060020a03838116600160a060020a0319831681178455604051919092169283917f8be0079c531659141344cd1fd0a4f28419497f9722a3daafe3b4186f6b6457e09190a35050565b6148a2806100ce6000396000f3fe60806040523480156200001157600080fd5b50600436106200007a577c0100000000000000000000000000000000000000000000000000000000600035046322f204f381146200007f578063592a322514620000a1578063715018a614620000d15780638da5cb5b14620000dd578063f2fde38b14620000ef575b600080fd5b6200008962000106565b604051620000989190620009a4565b60405180910390f35b620000b8620000b2366004620008a8565b620002be565b604051600160a060020a03909116815260200162000098565b620000db620005d7565b005b600054600160a060020a0316620000b8565b620000db6200010036600462000882565b62000615565b60606002805480602002602001604051908101604052809291908181526020016000905b82821015620002b55783829060005260206000209060040201604051806080016040529081600082018054620001609062000b30565b80601f01602080910402602001604051908101604052809291908181526020018280546200018e9062000b30565b8015620001df5780601f10620001b357610100808354040283529160200191620001df565b820191906000526020600020905b815481529060010190602001808311620001c157829003601f168201915b50505050508152602001600182018054620001fa9062000b30565b80601f0160208091040260200160405190810160405280929190818152602001828054620002289062000b30565b8015620002795780601f106200024d5761010080835404028352916020019162000279565b820191906000526020600020905b8154815290600101906020018083116200025b57829003601f168201915b50505091835250506002820154600160a060020a031660208083019190915260039092015460409091015290825260019290920191016200012a565b50505050905090565b60008054600160a060020a03163314620002f85760405160e560020a62461bcd028152600401620002ef9062000ac8565b60405180910390fd5b6001886040516200030a919062000986565b9081526040519081900360200190205460ff16156200036f5760405160e560020a62461bcd02815260206004820152601760248201527f466573746976616c2065786973747320616c72656164790000000000000000006044820152606401620002ef565b600a841115620003eb5760405160e560020a62461bcd02815260206004820152602a60248201527f546865206f7267616e6973657220636f6d6d697373696f6e20697320746f206860448201527f69676820283c31302529000000000000000000000000000000000000000000006064820152608401620002ef565b60008888888887604051620004009062000731565b6200041095949392919062000a78565b604051809103906000f0801580156200042d573d6000803e3d6000fd5b509050600083828760405162000443906200073f565b600160a060020a0393841681529290911660208301526040820152606001604051809103906000f0801580156200047e573d6000803e3d6000fd5b509050600060405180608001604052808c81526020018b815260200183600160a060020a031681526020018981525090506001808c604051620004c2919062000986565b90815260405160209181900382019020805460ff191692151592909217909155600280546001810182556000919091528251805184937f405787fa12a823e0f2b7631cc41b3ba8828b3321ca811111fa75cd3aa3bb5ace60049094029390930192620005339284929101906200074d565b5060208281015180516200054e92600185019201906200074d565b5060408281015160028301805473ffffffffffffffffffffffffffffffffffffffff1916600160a060020a03909216919091179055606090920151600390910155517f6cd117335e9e94970fe1de88c577d26981426c097f5eebb62364583a74ebe5bd90620005c1908d90859062000a4b565b60405180910390a1509998505050505050505050565b600054600160a060020a03163314620006075760405160e560020a62461bcd028152600401620002ef9062000ac8565b620006136000620006d4565b565b600054600160a060020a03163314620006455760405160e560020a62461bcd028152600401620002ef9062000ac8565b600160a060020a038116620006c65760405160e560020a62461bcd02815260206004820152602660248201527f4f776e61626c653a206e6577206f776e657220697320746865207a65726f206160448201527f64647265737300000000000000000000000000000000000000000000000000006064820152608401620002ef565b620006d181620006d4565b50565b60008054600160a060020a0383811673ffffffffffffffffffffffffffffffffffffffff19831681178455604051919092169283917f8be0079c531659141344cd1fd0a4f28419497f9722a3daafe3b4186f6b6457e09190a35050565b6133d18062000bcc83390190565b6108d08062003f9d83390190565b8280546200075b9062000b30565b90600052602060002090601f0160209004810192826200077f5760008555620007ca565b82601f106200079a57805160ff1916838001178555620007ca565b82800160010185558215620007ca579182015b82811115620007ca578251825591602001919060010190620007ad565b50620007d8929150620007dc565b5090565b5b80821115620007d85760008155600101620007dd565b600082601f83011262000804578081fd5b813567ffffffffffffffff8082111562000822576200082262000b86565b604051601f8301601f19908116603f011681019082821181831017156200084d576200084d62000b86565b8160405283815286602085880101111562000866578485fd5b8360208701602083013792830160200193909352509392505050565b60006020828403121562000894578081fd5b8135620008a18162000bb5565b9392505050565b600080600080600080600060e0888a031215620008c3578283fd5b873567ffffffffffffffff80821115620008db578485fd5b620008e98b838c01620007f3565b985060208a0135915080821115620008ff578485fd5b506200090e8a828b01620007f3565b96505060408801359450606088013593506080880135925060a0880135620009368162000bb5565b915060c0880135620009488162000bb5565b8091505092959891949750929550565b600081518084526200097281602086016020860162000afd565b601f01601f19169290920160200192915050565b600082516200099a81846020870162000afd565b9190910192915050565b60208082528251828201819052600091906040908185019080840286018301878501865b8381101562000a3d57603f19898403018552815160808151818652620009f18287018262000958565b915050888201518582038a87015262000a0b828262000958565b838a0151600160a060020a0316878b0152606093840151939096019290925250509386019390860190600101620009c8565b509098975050505050505050565b60408152600062000a60604083018562000958565b9050600160a060020a03831660208301529392505050565b60a08152600062000a8d60a083018862000958565b828103602084015262000aa1818862000958565b604084019690965250506060810192909252600160a060020a031660809091015292915050565b6020808252818101527f4f776e61626c653a2063616c6c6572206973206e6f7420746865206f776e6572604082015260600190565b60005b8381101562000b1a57818101518382015260200162000b00565b8381111562000b2a576000848401525b50505050565b60028104600182168062000b4557607f821691505b6020821081141562000b80577f4e487b7100000000000000000000000000000000000000000000000000000000600052602260045260246000fd5b50919050565b7f4e487b7100000000000000000000000000000000000000000000000000000000600052604160045260246000fd5b600160a060020a0381168114620006d157600080fdfe60806040523480156200001157600080fd5b50604051620033d1380380620033d183398101604081905262000034916200030d565b8451859085906200004d906001906020850190620001b4565b50805162000063906002906020840190620001b4565b505050620000a17f02043e402b2448206150a36c314b46e304de4c541e73a976575d9c4a6333626b82620000d2640100000000026401000000009004565b600a9290925560095560088054600160a060020a031916600160a060020a0390921691909117905550620004309050565b620000e78282640100000000620000eb810204565b5050565b62000100828264010000000062000187810204565b620000e757600082815260208181526040808320600160a060020a03851684529091529020805460ff1916600117905562000143640100000000620001b0810204565b600160a060020a031681600160a060020a0316837f2f8788117e7eff1d82e926ec794901d17c78024a50270940304540a733656f0d60405160405180910390a45050565b600091825260208281526040808420600160a060020a0393909316845291905290205460ff1690565b3390565b828054620001c290620003ab565b90600052602060002090601f016020900481019282620001e6576000855562000231565b82601f106200020157805160ff191683800117855562000231565b8280016001018555821562000231579182015b828111156200023157825182559160200191906001019062000214565b506200023f92915062000243565b5090565b5b808211156200023f576000815560010162000244565b600082601f8301126200026b578081fd5b81516001604060020a038082111562000288576200028862000401565b604051601f8301601f19908116603f01168101908282118183101715620002b357620002b362000401565b81604052838152602092508683858801011115620002cf578485fd5b8491505b83821015620002f25785820183015181830184015290820190620002d3565b838211156200030357848385830101525b9695505050505050565b600080600080600060a0868803121562000325578081fd5b85516001604060020a03808211156200033c578283fd5b6200034a89838a016200025a565b9650602088015191508082111562000360578283fd5b506200036f888289016200025a565b6040880151606089015160808a015192975090955093509050600160a060020a03811681146200039d578182fd5b809150509295509295909350565b600281046001821680620003c057607f821691505b60208210811415620003fb577f4e487b7100000000000000000000000000000000000000000000000000000000600052602260045260246000fd5b50919050565b7f4e487b7100000000000000000000000000000000000000000000000000000000600052604160045260246000fd5b612f9180620004406000396000f3fe608060405234801561001057600080fd5b5060043610610218576000357c01000000000000000000000000000000000000000000000000000000009004806371b5a8cf11610137578063a22cb465116100ca578063c87b56dd11610099578063c87b56dd1461047a578063d547741f1461048d578063e44360ae146104a0578063e985e9c5146104b3578063ff99a063146104ef57600080fd5b8063a22cb4651461042c578063b88d4fde1461043f578063bc4d677114610452578063c2f637dc1461046757600080fd5b8063941ada0e11610106578063941ada0e146103e657806395d89b41146104095780639f26002c14610411578063a217fddf1461042457600080fd5b806371b5a8cf1461038f5780637738f809146103b65780638063d897146103cb57806391d14854146103d357600080fd5b80632f2ff15d116101af5780636352211e1161017e5780636352211e1461034e57806367ff8ef2146103615780636dc7e3c71461036957806370a082311461037c57600080fd5b80632f2ff15d1461030257806336568abe1461031557806342842e0e14610328578063593367db1461033b57600080fd5b80630b705578116101eb5780630b7055781461029a5780631b4e22de146102ab57806323b872dd146102be578063248a9ca3146102d157600080fd5b806301ffc9a71461021d57806306fdde0314610245578063081812fc1461025a578063095ea7b314610285575b600080fd5b61023061022b366004612b15565b61053f565b60405190151581526020015b60405180910390f35b61024d610550565b60405161023c9190612d1e565b61026d610268366004612adb565b6105e2565b604051600160a060020a03909116815260200161023c565b610298610293366004612ab2565b610690565b005b600854600160a060020a031661026d565b6102986102b9366004612ab2565b6107c8565b6102986102cc366004612968565b610e94565b6102f46102df366004612adb565b60009081526020819052604090206001015490565b60405190815260200161023c565b610298610310366004612af3565b610ec8565b610298610323366004612af3565b610eee565b610298610336366004612968565b610f7d565b6102f4610349366004612adb565b610f98565b61026d61035c366004612adb565b611019565b6009546102f4565b610298610377366004612b4d565b6110a7565b6102f461038a36600461291c565b61130c565b6102f47f02043e402b2448206150a36c314b46e304de4c541e73a976575d9c4a6333626b81565b6103be6113a9565b60405161023c9190612ce6565b6103be611400565b6102306103e1366004612af3565b611456565b60085474010000000000000000000000000000000000000000900460ff16610230565b61024d61147f565b6103be61041f36600461291c565b61148e565b6102f4600081565b61029861043a366004612a78565b6114fa565b61029861044d3660046129a3565b6115c2565b61045a6115f7565b60405161023c9190612c99565b610298610475366004612af3565b611658565b61024d610488366004612adb565b61186d565b61029861049b366004612af3565b611966565b6102986104ae366004612ab2565b61198c565b6102306104c1366004612936565b600160a060020a03918216600090815260066020908152604080832093909416825291909152205460ff1690565b6105226104fd366004612adb565b6000908152600b6020526040902080546001820154600290920154909260ff90911690565b60408051938452602084019290925215159082015260600161023c565b600061054a82611cf2565b92915050565b60606001805461055f90612e90565b80601f016020809104026020016040519081016040528092919081815260200182805461058b90612e90565b80156105d85780601f106105ad576101008083540402835291602001916105d8565b820191906000526020600020905b8154815290600101906020018083116105bb57829003601f168201915b5050505050905090565b600081815260036020526040812054600160a060020a03166106745760405160e560020a62461bcd02815260206004820152602c60248201527f4552433732313a20617070726f76656420717565727920666f72206e6f6e657860448201527f697374656e7420746f6b656e000000000000000000000000000000000000000060648201526084015b60405180910390fd5b50600090815260056020526040902054600160a060020a031690565b600061069b82611019565b905080600160a060020a031683600160a060020a031614156107285760405160e560020a62461bcd02815260206004820152602160248201527f4552433732313a20617070726f76616c20746f2063757272656e74206f776e6560448201527f7200000000000000000000000000000000000000000000000000000000000000606482015260840161066b565b33600160a060020a0382161480610744575061074481336104c1565b6107b95760405160e560020a62461bcd02815260206004820152603860248201527f4552433732313a20617070726f76652063616c6c6572206973206e6f74206f7760448201527f6e6572206e6f7220617070726f76656420666f7220616c6c0000000000000000606482015260840161066b565b6107c38383611d64565b505050565b600854600160a060020a03166107dd82611019565b600160a060020a031614156108375760405160e560020a62461bcd02815260206004820152601860248201527f546865206f7267616e697365722063616e27742073656c6c0000000000000000604482015260640161066b565b81600160a060020a031661084a82611019565b600160a060020a031614156108ca5760405160e560020a62461bcd02815260206004820152602160248201527f54686520627579657220616c7265616479206f776e7320746865207469636b6560448201527f7400000000000000000000000000000000000000000000000000000000000000606482015260840161066b565b600854600160a060020a038381169116141561092b5760405160e560020a62461bcd02815260206004820152601860248201527f546865206f7267616e697365722063616e6e6f74206275790000000000000000604482015260640161066b565b600061093682611019565b905061094b61094483611019565b8484610e94565b6000828152600b6020908152604080832060018082015482556002909101805460ff19169055600160a060020a0387168452600d8352908320805491820181558352908220018390555b600c54811015610aba5782600c82815481106109c45760e060020a634e487b7102600052603260045260246000fd5b90600052602060002001541415610aa857600c5415610a8657600c80546109ed90600190612e36565b81548110610a0e5760e060020a634e487b7102600052603260045260246000fd5b9060005260206000200154600c8281548110610a3d5760e060020a634e487b7102600052603260045260246000fd5b600091825260209091200155600c805480610a6b5760e060020a634e487b7102600052603160045260246000fd5b60019003818190600052602060002001600090559055610aba565b600c805480610a6b5760e060020a634e487b7102600052603160045260246000fd5b80610ab281612ec8565b915050610995565b5060005b600160a060020a0382166000908152600d6020526040902054811015610c8f57600160a060020a0382166000908152600d60205260409020805484919083908110610b1c5760e060020a634e487b7102600052603260045260246000fd5b90600052602060002001541415610c7d57600160a060020a0382166000908152600d602052604090205415610c4557600160a060020a0382166000908152600d602052604090208054610b7190600190612e36565b81548110610b925760e060020a634e487b7102600052603260045260246000fd5b9060005260206000200154600d600084600160a060020a0316600160a060020a031681526020019081526020016000208281548110610be45760e060020a634e487b7102600052603260045260246000fd5b6000918252602080832090910192909255600160a060020a0384168152600d90915260409020805480610c2a5760e060020a634e487b7102600052603160045260246000fd5b60019003818190600052602060002001600090559055610c8f565b600160a060020a0382166000908152600d60205260409020805480610c2a5760e060020a634e487b7102600052603160045260246000fd5b80610c8781612ec8565b915050610abe565b50600160a060020a0381166000908152600d6020526040902054610e335760005b600e54811015610e315781600160a060020a0316600e8281548110610ce85760e060020a634e487b7102600052603260045260246000fd5b600091825260209091200154600160a060020a03161415610e1f57600e5415610dfd57600e8054610d1b90600190612e36565b81548110610d3c5760e060020a634e487b7102600052603260045260246000fd5b600091825260209091200154600e8054600160a060020a039092169183908110610d795760e060020a634e487b7102600052603260045260246000fd5b9060005260206000200160006101000a815481600160a060020a030219169083600160a060020a03160217905550600e805480610dc95760e060020a634e487b7102600052603160045260246000fd5b6000828152602090208101600019908101805473ffffffffffffffffffffffffffffffffffffffff19169055019055610e31565b600e805480610dc95760e060020a634e487b7102600052603160045260246000fd5b80610e2981612ec8565b915050610cb0565b505b5050600e80546001810182556000919091527fbb7b4a454dc3493923482f07822329ed19e8244eff582cc204f8554c3620c3fd01805473ffffffffffffffffffffffffffffffffffffffff1916600160a060020a0392909216919091179055565b610e9e3382611ddf565b610ebd5760405160e560020a62461bcd02815260040161066b90612d8e565b6107c3838383611eea565b600082815260208190526040902060010154610ee481336120ca565b6107c38383612131565b600160a060020a0381163314610f6f5760405160e560020a62461bcd02815260206004820152602f60248201527f416363657373436f6e74726f6c3a2063616e206f6e6c792072656e6f756e636560448201527f20726f6c657320666f722073656c660000000000000000000000000000000000606482015260840161066b565b610f7982826121b5565b5050565b6107c3838383604051806020016040528060008152506115c2565b6000818152600b6020526040812060020154829060ff16610ffe5760405160e560020a62461bcd02815260206004820152601560248201527f5469636b6574206973206e6f74206f6e2073616c650000000000000000000000604482015260640161066b565b6000838152600b602052604090206001015491505b50919050565b600081815260036020526040812054600160a060020a03168061054a5760405160e560020a62461bcd02815260206004820152602960248201527f4552433732313a206f776e657220717565727920666f72206e6f6e657869737460448201527f656e7420746f6b656e0000000000000000000000000000000000000000000000606482015260840161066b565b6000838152600b60205260409020546064906110c49060d2612e17565b6110ce9190612e03565b821061111f5760405160e560020a62461bcd02815260206004820152601860248201527f53656c6c696e6720707269636520697320746f20686967680000000000000000604482015260640161066b565b3361112984611019565b600160a060020a0316146111a85760405160e560020a62461bcd02815260206004820152602160248201527f4163636f756e742063616e6e6f7420707574207469636b6574206f6e2073616c60448201527f6500000000000000000000000000000000000000000000000000000000000000606482015260840161066b565b600854600160a060020a03166111bd84611019565b600160a060020a0316141561123d5760405160e560020a62461bcd02815260206004820152602d60248201527f4f7267616e697365722063616e6e6f742073656c6c206f6e207468652073656360448201527f6f6e64617279206d61726b657400000000000000000000000000000000000000606482015260840161066b565b6000838152600b6020526040812060018082018590556002909101805460ff19169091179055805b600c548110156112c05784600c82815481106112945760e060020a634e487b7102600052603260045260246000fd5b906000526020600020015414156112ae57600191506112c0565b806112b881612ec8565b915050611265565b50806112fc57600c80546001810182556000919091527fdf6966c971051c3d54ec59162606531493a51404a002842f56009d7e5cf4a8c7018490555b6113068285610690565b50505050565b6000600160a060020a03821661138d5760405160e560020a62461bcd02815260206004820152602a60248201527f4552433732313a2062616c616e636520717565727920666f7220746865207a6560448201527f726f206164647265737300000000000000000000000000000000000000000000606482015260840161066b565b50600160a060020a031660009081526004602052604090205490565b6060600f8054806020026020016040519081016040528092919081815260200182805480156105d857602002820191906000526020600020905b8154815260200190600101908083116113e3575050505050905090565b6060600c8054806020026020016040519081016040528092919081815260200182805480156105d857602002820191906000526020600020908154815260200190600101908083116113e3575050505050905090565b600091825260208281526040808420600160a060020a0393909316845291905290205460ff1690565b60606002805461055f90612e90565b600160a060020a0381166000908152600d60209081526040918290208054835181840281018401909452808452606093928301828280156114ee57602002820191906000526020600020905b8154815260200190600101908083116114da575b50505050509050919050565b600160a060020a0382163314156115565760405160e560020a62461bcd02815260206004820152601960248201527f4552433732313a20617070726f766520746f2063616c6c657200000000000000604482015260640161066b565b336000818152600660209081526040808320600160a060020a03871680855290835292819020805460ff191686151590811790915590519081529192917f17307eab39ab6107e8899845ad3d59bd9653f200f220920489ca2b5937696c31910160405180910390a35050565b6115cc3383611ddf565b6115eb5760405160e560020a62461bcd02815260040161066b90612d8e565b6113068484848461221a565b6060600e8054806020026020016040519081016040528092919081815260200182805480156105d857602002820191906000526020600020905b8154600160a060020a03168152600190910190602001808311611631575050505050905090565b6116827f02043e402b2448206150a36c314b46e304de4c541e73a976575d9c4a6333626b33611456565b6116d15760405160e560020a62461bcd02815260206004820152601160248201527f4e6f7420746865206f7267616e69736572000000000000000000000000000000604482015260640161066b565b6103e8826116de60075490565b6116e89190612deb565b111561175f5760405160e560020a62461bcd02815260206004820152602260248201527f43616e6e6f74206d696e74206d6f7265207468616e2031303030207469636b6560448201527f7473000000000000000000000000000000000000000000000000000000000000606482015260840161066b565b60005b8281101561180a57600061177560075490565b90506117818382612250565b60408051606081018252600954815260006020808301828152838501838152868452600b90925293909120915182559151600182015590516002909101805460ff1916911515919091179055600754600f90815460018101835560009283526020909220909101556117f7600780546001019055565b508061180281612ec8565b915050611762565b506008805474ff00000000000000000000000000000000000000001916740100000000000000000000000000000000000000001790556040517f5a31340f0d75691fca7c6ab36bdd3ece0f99ebc1e7aea94477e8a27ac8c44b6390600090a15050565b600081815260036020526040902054606090600160a060020a03166118fd5760405160e560020a62461bcd02815260206004820152602f60248201527f4552433732314d657461646174613a2055524920717565727920666f72206e6f60448201527f6e6578697374656e7420746f6b656e0000000000000000000000000000000000606482015260840161066b565b600061191460408051602081019091526000815290565b90506000815111611934576040518060200160405280600081525061195f565b8061193e846123a5565b60405160200161194f929190612bad565b6040516020818303038152906040525b9392505050565b60008281526020819052604090206001015461198281336120ca565b6107c383836121b5565b3361199682611019565b600160a060020a031614611a155760405160e560020a62461bcd02815260206004820152602960248201527f547279696e6720746f207472616e736665722066726f6d207468652077726f6e60448201527f67206163636f756e740000000000000000000000000000000000000000000000606482015260840161066b565b600854600160a060020a0383811691161415611a9c5760405160e560020a62461bcd02815260206004820152603060248201527f546865206f7267616e697365722063616e6e6f7420627579206f6e207468652060448201527f7365636f6e64617279206d61726b657400000000000000000000000000000000606482015260840161066b565b611aaf611aa882611019565b8383610e94565b6000805b600e54811015611b4d5783600160a060020a0316600e8281548110611aeb5760e060020a634e487b7102600052603260045260246000fd5b600091825260209091200154600160a060020a03161415611b3b57600160a060020a0384166000908152600d60209081526040822080546001818101835591845291909220018490559150611b4d565b80611b4581612ec8565b915050611ab3565b5080611bca57600e805460018082019092557fbb7b4a454dc3493923482f07822329ed19e8244eff582cc204f8554c3620c3fd01805473ffffffffffffffffffffffffffffffffffffffff1916600160a060020a0386169081179091556000908152600d6020908152604082208054938401815582529020018290555b60005b600f548110156113065782600f8281548110611bfc5760e060020a634e487b7102600052603260045260246000fd5b90600052602060002001541415611ce057600f5415611cbe57600f8054611c2590600190612e36565b81548110611c465760e060020a634e487b7102600052603260045260246000fd5b9060005260206000200154600f8281548110611c755760e060020a634e487b7102600052603260045260246000fd5b600091825260209091200155600f805480611ca35760e060020a634e487b7102600052603160045260246000fd5b60019003818190600052602060002001600090559055611306565b600f805480611ca35760e060020a634e487b7102600052603160045260246000fd5b80611cea81612ec8565b915050611bcd565b6000600160e060020a031982167f80ac58cd000000000000000000000000000000000000000000000000000000001480611d555750600160e060020a031982167f5b5e139f00000000000000000000000000000000000000000000000000000000145b8061054a575061054a82612500565b6000818152600560205260409020805473ffffffffffffffffffffffffffffffffffffffff1916600160a060020a0384169081179091558190611da682611019565b600160a060020a03167f8c5be1e5ebec7d5bd14f71427d1e84f3dd0314c0f7b2291e5b200ac8c7c3b92560405160405180910390a45050565b600081815260036020526040812054600160a060020a0316611e6c5760405160e560020a62461bcd02815260206004820152602c60248201527f4552433732313a206f70657261746f7220717565727920666f72206e6f6e657860448201527f697374656e7420746f6b656e0000000000000000000000000000000000000000606482015260840161066b565b6000611e7783611019565b905080600160a060020a031684600160a060020a03161480611eb2575083600160a060020a0316611ea7846105e2565b600160a060020a0316145b80611ee25750600160a060020a0380821660009081526006602090815260408083209388168352929052205460ff165b949350505050565b82600160a060020a0316611efd82611019565b600160a060020a031614611f7c5760405160e560020a62461bcd02815260206004820152602960248201527f4552433732313a207472616e73666572206f6620746f6b656e2074686174206960448201527f73206e6f74206f776e0000000000000000000000000000000000000000000000606482015260840161066b565b600160a060020a038216611ffa5760405160e560020a62461bcd028152602060048201526024808201527f4552433732313a207472616e7366657220746f20746865207a65726f2061646460448201527f7265737300000000000000000000000000000000000000000000000000000000606482015260840161066b565b612005600082611d64565b600160a060020a038316600090815260046020526040812080546001929061202e908490612e36565b9091555050600160a060020a038216600090815260046020526040812080546001929061205c908490612deb565b9091555050600081815260036020526040808220805473ffffffffffffffffffffffffffffffffffffffff1916600160a060020a0386811691821790925591518493918716917fddf252ad1be2c89b69c2b068fc378daa952ba7f163c4a11628f55a4df523b3ef91a4505050565b6120d48282611456565b610f79576120ec81600160a060020a03166014612567565b6120f7836020612567565b604051602001612108929190612bdc565b60408051601f198184030181529082905260e560020a62461bcd02825261066b91600401612d1e565b61213b8282611456565b610f7957600082815260208181526040808320600160a060020a03851684529091529020805460ff191660011790556121713390565b600160a060020a031681600160a060020a0316837f2f8788117e7eff1d82e926ec794901d17c78024a50270940304540a733656f0d60405160405180910390a45050565b6121bf8282611456565b15610f7957600082815260208181526040808320600160a060020a0385168085529252808320805460ff1916905551339285917ff6391f5c32d9c69d2a47ea670b442974b53935d1edc7fd64eb21e047a839171b9190a45050565b612225848484611eea565b612231848484846127be565b6113065760405160e560020a62461bcd02815260040161066b90612d31565b600160a060020a0382166122a95760405160e560020a62461bcd02815260206004820181905260248201527f4552433732313a206d696e7420746f20746865207a65726f2061646472657373604482015260640161066b565b600081815260036020526040902054600160a060020a0316156123115760405160e560020a62461bcd02815260206004820152601c60248201527f4552433732313a20746f6b656e20616c7265616479206d696e74656400000000604482015260640161066b565b600160a060020a038216600090815260046020526040812080546001929061233a908490612deb565b9091555050600081815260036020526040808220805473ffffffffffffffffffffffffffffffffffffffff1916600160a060020a03861690811790915590518392907fddf252ad1be2c89b69c2b068fc378daa952ba7f163c4a11628f55a4df523b3ef908290a45050565b6060816123e557505060408051808201909152600181527f3000000000000000000000000000000000000000000000000000000000000000602082015290565b8160005b811561240f57806123f981612ec8565b91506124089050600a83612e03565b91506123e9565b60008167ffffffffffffffff81111561243b5760e060020a634e487b7102600052604160045260246000fd5b6040519080825280601f01601f191660200182016040528015612465576020820181803683370190505b5090505b8415611ee25761247a600183612e36565b9150612487600a86612ee3565b612492906030612deb565b7f0100000000000000000000000000000000000000000000000000000000000000028183815181106124d75760e060020a634e487b7102600052603260045260246000fd5b6020010190600160f860020a031916908160001a9053506124f9600a86612e03565b9450612469565b6000600160e060020a031982167f7965db0b00000000000000000000000000000000000000000000000000000000148061054a57507f01ffc9a700000000000000000000000000000000000000000000000000000000600160e060020a031983161461054a565b60606000612576836002612e17565b612581906002612deb565b67ffffffffffffffff8111156125aa5760e060020a634e487b7102600052604160045260246000fd5b6040519080825280601f01601f1916602001820160405280156125d4576020820181803683370190505b5090507f30000000000000000000000000000000000000000000000000000000000000008160008151811061261c5760e060020a634e487b7102600052603260045260246000fd5b6020010190600160f860020a031916908160001a9053507f7800000000000000000000000000000000000000000000000000000000000000816001815181106126785760e060020a634e487b7102600052603260045260246000fd5b6020010190600160f860020a031916908160001a905350600061269c846002612e17565b6126a7906001612deb565b90505b600181111561276c577f303132333435363738396162636465660000000000000000000000000000000085600f16601081106126f95760e060020a634e487b7102600052603260045260246000fd5b1a7f01000000000000000000000000000000000000000000000000000000000000000282828151811061273f5760e060020a634e487b7102600052603260045260246000fd5b6020010190600160f860020a031916908160001a90535060109094049361276581612e79565b90506126aa565b50831561195f5760405160e560020a62461bcd02815260206004820181905260248201527f537472696e67733a20686578206c656e67746820696e73756666696369656e74604482015260640161066b565b6000600160a060020a0384163b156128f5576040517f150b7a02000000000000000000000000000000000000000000000000000000008152600160a060020a0385169063150b7a029061281b903390899088908890600401612c5d565b602060405180830381600087803b15801561283557600080fd5b505af1925050508015612865575060408051601f3d908101601f1916820190925261286291810190612b31565b60015b6128c2573d808015612893576040519150601f19603f3d011682016040523d82523d6000602084013e612898565b606091505b5080516128ba5760405160e560020a62461bcd02815260040161066b90612d31565b805181602001fd5b600160e060020a0319167f150b7a0200000000000000000000000000000000000000000000000000000000149050611ee2565b506001949350505050565b8035600160a060020a038116811461291757600080fd5b919050565b60006020828403121561292d578081fd5b61195f82612900565b60008060408385031215612948578081fd5b61295183612900565b915061295f60208401612900565b90509250929050565b60008060006060848603121561297c578081fd5b61298584612900565b925061299360208501612900565b9150604084013590509250925092565b600080600080608085870312156129b8578081fd5b6129c185612900565b93506129cf60208601612900565b925060408501359150606085013567ffffffffffffffff808211156129f2578283fd5b818701915087601f830112612a05578283fd5b813581811115612a1757612a17612f29565b604051601f8201601f19908116603f01168101908382118183101715612a3f57612a3f612f29565b816040528281528a6020848701011115612a57578586fd5b82602086016020830137918201602001949094529598949750929550505050565b60008060408385031215612a8a578182fd5b612a9383612900565b915060208301358015158114612aa7578182fd5b809150509250929050565b60008060408385031215612ac4578182fd5b612acd83612900565b946020939093013593505050565b600060208284031215612aec578081fd5b5035919050565b60008060408385031215612b05578182fd5b8235915061295f60208401612900565b600060208284031215612b26578081fd5b813561195f81612f42565b600060208284031215612b42578081fd5b815161195f81612f42565b600080600060608486031215612b61578283fd5b8335925060208401359150612b7860408501612900565b90509250925092565b60008151808452612b99816020860160208601612e4d565b601f01601f19169290920160200192915050565b60008351612bbf818460208801612e4d565b835190830190612bd3818360208801612e4d565b01949350505050565b7f416363657373436f6e74726f6c3a206163636f756e7420000000000000000000815260008351612c14816017850160208801612e4d565b7f206973206d697373696e6720726f6c65200000000000000000000000000000006017918401918201528351612c51816028840160208801612e4d565b01602801949350505050565b6000600160a060020a03808716835280861660208401525083604083015260806060830152612c8f6080830184612b81565b9695505050505050565b6020808252825182820181905260009190848201906040850190845b81811015612cda578351600160a060020a031683529284019291840191600101612cb5565b50909695505050505050565b6020808252825182820181905260009190848201906040850190845b81811015612cda57835183529284019291840191600101612d02565b60208152600061195f6020830184612b81565b60208082526032908201527f4552433732313a207472616e7366657220746f206e6f6e20455243373231526560408201527f63656976657220696d706c656d656e7465720000000000000000000000000000606082015260800190565b60208082526031908201527f4552433732313a207472616e736665722063616c6c6572206973206e6f74206f60408201527f776e6572206e6f7220617070726f766564000000000000000000000000000000606082015260800190565b60008219821115612dfe57612dfe612ef7565b500190565b600082612e1257612e12612f10565b500490565b6000816000190483118215151615612e3157612e31612ef7565b500290565b600082821015612e4857612e48612ef7565b500390565b60005b83811015612e68578181015183820152602001612e50565b838111156113065750506000910152565b600081612e8857612e88612ef7565b506000190190565b600281046001821680612ea457607f821691505b602082108114156110135760e060020a634e487b7102600052602260045260246000fd5b6000600019821415612edc57612edc612ef7565b5060010190565b600082612ef257612ef2612f10565b500690565b60e060020a634e487b7102600052601160045260246000fd5b60e060020a634e487b7102600052601260045260246000fd5b60e060020a634e487b7102600052604160045260246000fd5b600160e060020a031981168114612f5857600080fd5b5056fea2646970667358221220c5eef144137ac41a401630d126585ff27b3303ead199885deaa9c56effb6861264736f6c63430008040033608060405234801561001057600080fd5b506040516108d03803806108d083398101604081905261002f91610150565b60008054600160a060020a03808616600160a060020a031992831617835560018054918616919092168117909155604080517f0b70557800000000000000000000000000000000000000000000000000000000815290519192630b705578926004808401936020939083900390910190829087803b1580156100b057600080fd5b505af11580156100c4573d6000803e3d6000fd5b505050506040513d601f19601f820116820180604052508101906100e8919061012f565b60028054600160a060020a031916600160a060020a03929092169190911790556003555061018b9050565b8051600160a060020a038116811461012a57600080fd5b919050565b600060208284031215610140578081fd5b61014982610113565b9392505050565b600080600060608486031215610164578182fd5b61016d84610113565b925061017b60208501610113565b9150604084015190509250925092565b6107368061019a6000396000f3fe608060405234801561001057600080fd5b506004361061004f5760e060020a6000350463249bf50f81146100545780636737dc2514610078578063ad55c4b51461008d578063bb9bee781461009e575b600080fd5b61005c6100b1565b604051600160a060020a03909116815260200160405180910390f35b61008b610086366004610632565b61014d565b005b600154600160a060020a031661005c565b61008b6100ac366004610632565b61044b565b600154604080517f0b7055780000000000000000000000000000000000000000000000000000000081529051600092600160a060020a031691630b70557891600480830192602092919082900301818787803b15801561011057600080fd5b505af1158015610124573d6000803e3d6000fd5b505050506040513d601f19601f820116820180604052508101906101489190610604565b905090565b6001546040517f593367db00000000000000000000000000000000000000000000000000000000815260048101839052600091600160a060020a03169063593367db90602401602060405180830381600087803b1580156101ad57600080fd5b505af11580156101c1573d6000803e3d6000fd5b505050506040513d601f19601f820116820180604052508101906101e5919061064a565b905060006064826003546101f9919061069b565b6102039190610662565b6000546001546040517f6352211e00000000000000000000000000000000000000000000000000000000815260048101879052929350600160a060020a03918216926323b872dd9233921690636352211e90602401602060405180830381600087803b15801561027257600080fd5b505af1158015610286573d6000803e3d6000fd5b505050506040513d601f19601f820116820180604052508101906102aa9190610604565b6102b485876106ba565b60405160e060020a63ffffffff8616028152600160a060020a0393841660048201529290911660248301526044820152606401600060405180830381600087803b15801561030157600080fd5b505af1158015610315573d6000803e3d6000fd5b50506000546002546040517f23b872dd000000000000000000000000000000000000000000000000000000008152336004820152600160a060020a03918216602482015260448101869052911692506323b872dd9150606401600060405180830381600087803b15801561038857600080fd5b505af115801561039c573d6000803e3d6000fd5b50506001546040517f1b4e22de00000000000000000000000000000000000000000000000000000000815233600482015260248101879052600160a060020a039091169250631b4e22de9150604401600060405180830381600087803b15801561040557600080fd5b505af1158015610419573d6000803e3d6000fd5b50506040517f23f7ccf46dafb36db26d07aecbdb0042cdb6b24a2a9678c1aafa7bae5d884ed1925060009150a1505050565b60008054600254600154604080517f67ff8ef20000000000000000000000000000000000000000000000000000000081529051600160a060020a03948516956323b872dd95339581169416926367ff8ef29260048083019360209383900390910190829087803b1580156104be57600080fd5b505af11580156104d2573d6000803e3d6000fd5b505050506040513d601f19601f820116820180604052508101906104f6919061064a565b60405160e060020a63ffffffff8616028152600160a060020a0393841660048201529290911660248301526044820152606401600060405180830381600087803b15801561054357600080fd5b505af1158015610557573d6000803e3d6000fd5b50506001546040517fe44360ae00000000000000000000000000000000000000000000000000000000815233600482015260248101859052600160a060020a03909116925063e44360ae9150604401600060405180830381600087803b1580156105c057600080fd5b505af11580156105d4573d6000803e3d6000fd5b50506040517f23f7ccf46dafb36db26d07aecbdb0042cdb6b24a2a9678c1aafa7bae5d884ed1925060009150a150565b600060208284031215610615578081fd5b8151600160a060020a038116811461062b578182fd5b9392505050565b600060208284031215610643578081fd5b5035919050565b60006020828403121561065b578081fd5b5051919050565b600082610696577f4e487b710000000000000000000000000000000000000000000000000000000081526012600452602481fd5b500490565b60008160001904831182151516156106b5576106b56106d1565b500290565b6000828210156106cc576106cc6106d1565b500390565b7f4e487b7100000000000000000000000000000000000000000000000000000000600052601160045260246000fdfea264697066735822122082f13c374a40a68564405ee10b8af17cac1aed3276e33ff41f1ad1ada4a1539b64736f6c63430008040033a2646970667358221220b78bc050ca4ff69cf034d07b1590e80fa00276764d78dcc917233a9dc9b1049e64736f6c63430008040033",
  "immutableReferences": {},
  "source": "// SPDX-License-Identifier: MIT\npragma solidity ^0.8.0;\n\nimport \"./FestivalTicket.sol\";\nimport \"./TransactionsLogic.sol\";\nimport \"@openzeppelin/contracts/access/Ownable.sol\";\n\ncontract FestivalMarketPlace is Ownable{\n    struct FestivalDetails{\n        string festivalName;\n        string festivalSymbol;\n        address transactionsLogic;\n        uint256 ticketPrice;\n    }\n\n    event FestivalMarketPlaceCreated(address contractAddress);\n\n    constructor(){\n        emit FestivalMarketPlaceCreated(address(this));\n    }\n\n    mapping(string => bool) private festivalExists;\n    FestivalDetails[] private listOfFestivals;\n\n    event FestivalCreated(string festivalName, address transactionsLogicAddress);\n\n    function createFestival(string memory festivalName, string memory festivalSymbol,\n                            uint256 totalSupply, uint256 ticketPrice, uint256 commission,\n                            address festivalOrganiser, FestivalMarketToken token) onlyOwner public returns(address){\n        //Festivals must have different names\n        require(festivalExists[festivalName] == false, 'Festival exists already');\n        //The commission cannot be higher than 10%\n        require(commission <= 10, 'The organiser commission is to high (<10%)');\n        \n        FestivalTicket newTickets = new FestivalTicket(festivalName, festivalSymbol, totalSupply, ticketPrice, festivalOrganiser);\n        \n        //The transactions logic contract is linked to the NFT here. \n        TransactionsLogic festivalTransactionsLogic = new TransactionsLogic(address(token), address(newTickets), commission);\n        \n        FestivalDetails memory festDetails = FestivalDetails({\n            festivalName: festivalName,\n            festivalSymbol: festivalSymbol,\n            ticketPrice: ticketPrice,\n            transactionsLogic: address(festivalTransactionsLogic)});\n            festivalExists[festivalName] = true;\n            listOfFestivals.push(festDetails);\n            \n            emit FestivalCreated(festivalName, address(festivalTransactionsLogic));\n            // returning the transactions logic address let us create the contract directly in the dapp with the abi and the address. \n            return address(festivalTransactionsLogic);\n    }\n    /* This function let us easily get the different festivals that have already been created by the organiser.\n    It is used to load the contracts that are deployed on the blockchain in the dapp. */\n    function getFestivalsOnMarketPlace() public view returns(FestivalDetails[] memory){\n        return listOfFestivals;\n    }\n}",
  "sourcePath": "/Users/ambroisemoreau/coding/consensys/final-project/contracts/FestivalMarketPlace.sol",
  "compiler": {
    "name": "solc",
    "version": "0.8.4+commit.c7e474f2.Emscripten.clang"
  },
  "schemaVersion": "3.4.1",
  "updatedAt": "2021-11-21T10:09:02.850Z",
  "devdoc": {
    "kind": "dev",
    "methods": {
      "owner()": {
        "details": "Returns the address of the current owner."
      },
      "renounceOwnership()": {
        "details": "Leaves the contract without owner. It will not be possible to call `onlyOwner` functions anymore. Can only be called by the current owner. NOTE: Renouncing ownership will leave the contract without an owner, thereby removing any functionality that is only available to the owner."
      },
      "transferOwnership(address)": {
        "details": "Transfers ownership of the contract to a new account (`newOwner`). Can only be called by the current owner."
      }
    },
    "version": 1
  },
  "userdoc": {
    "kind": "user",
    "methods": {},
    "version": 1
  }
}