{
  "contractName": "FestivalMarketToken",
  "abi": [
    {
      "inputs": [],
      "stateMutability": "nonpayable",
      "type": "constructor"
    },
    {
      "anonymous": false,
      "inputs": [
        {
          "indexed": true,
          "internalType": "address",
          "name": "owner",
          "type": "address"
        },
        {
          "indexed": true,
          "internalType": "address",
          "name": "spender",
          "type": "address"
        },
        {
          "indexed": false,
          "internalType": "uint256",
          "name": "value",
          "type": "uint256"
        }
      ],
      "name": "Approval",
      "type": "event"
    },
    {
      "anonymous": false,
      "inputs": [
        {
          "indexed": true,
          "internalType": "address",
          "name": "from",
          "type": "address"
        },
        {
          "indexed": true,
          "internalType": "address",
          "name": "to",
          "type": "address"
        },
        {
          "indexed": false,
          "internalType": "uint256",
          "name": "value",
          "type": "uint256"
        }
      ],
      "name": "Transfer",
      "type": "event"
    },
    {
      "inputs": [
        {
          "internalType": "address",
          "name": "owner",
          "type": "address"
        },
        {
          "internalType": "address",
          "name": "spender",
          "type": "address"
        }
      ],
      "name": "allowance",
      "outputs": [
        {
          "internalType": "uint256",
          "name": "",
          "type": "uint256"
        }
      ],
      "stateMutability": "view",
      "type": "function",
      "constant": true
    },
    {
      "inputs": [
        {
          "internalType": "address",
          "name": "spender",
          "type": "address"
        },
        {
          "internalType": "uint256",
          "name": "amount",
          "type": "uint256"
        }
      ],
      "name": "approve",
      "outputs": [
        {
          "internalType": "bool",
          "name": "",
          "type": "bool"
        }
      ],
      "stateMutability": "nonpayable",
      "type": "function"
    },
    {
      "inputs": [
        {
          "internalType": "address",
          "name": "account",
          "type": "address"
        }
      ],
      "name": "balanceOf",
      "outputs": [
        {
          "internalType": "uint256",
          "name": "",
          "type": "uint256"
        }
      ],
      "stateMutability": "view",
      "type": "function",
      "constant": true
    },
    {
      "inputs": [],
      "name": "decimals",
      "outputs": [
        {
          "internalType": "uint8",
          "name": "",
          "type": "uint8"
        }
      ],
      "stateMutability": "view",
      "type": "function",
      "constant": true
    },
    {
      "inputs": [
        {
          "internalType": "address",
          "name": "spender",
          "type": "address"
        },
        {
          "internalType": "uint256",
          "name": "subtractedValue",
          "type": "uint256"
        }
      ],
      "name": "decreaseAllowance",
      "outputs": [
        {
          "internalType": "bool",
          "name": "",
          "type": "bool"
        }
      ],
      "stateMutability": "nonpayable",
      "type": "function"
    },
    {
      "inputs": [
        {
          "internalType": "address",
          "name": "spender",
          "type": "address"
        },
        {
          "internalType": "uint256",
          "name": "addedValue",
          "type": "uint256"
        }
      ],
      "name": "increaseAllowance",
      "outputs": [
        {
          "internalType": "bool",
          "name": "",
          "type": "bool"
        }
      ],
      "stateMutability": "nonpayable",
      "type": "function"
    },
    {
      "inputs": [],
      "name": "name",
      "outputs": [
        {
          "internalType": "string",
          "name": "",
          "type": "string"
        }
      ],
      "stateMutability": "view",
      "type": "function",
      "constant": true
    },
    {
      "inputs": [],
      "name": "symbol",
      "outputs": [
        {
          "internalType": "string",
          "name": "",
          "type": "string"
        }
      ],
      "stateMutability": "view",
      "type": "function",
      "constant": true
    },
    {
      "inputs": [],
      "name": "totalSupply",
      "outputs": [
        {
          "internalType": "uint256",
          "name": "",
          "type": "uint256"
        }
      ],
      "stateMutability": "view",
      "type": "function",
      "constant": true
    },
    {
      "inputs": [
        {
          "internalType": "address",
          "name": "recipient",
          "type": "address"
        },
        {
          "internalType": "uint256",
          "name": "amount",
          "type": "uint256"
        }
      ],
      "name": "transfer",
      "outputs": [
        {
          "internalType": "bool",
          "name": "",
          "type": "bool"
        }
      ],
      "stateMutability": "nonpayable",
      "type": "function"
    },
    {
      "inputs": [
        {
          "internalType": "address",
          "name": "sender",
          "type": "address"
        },
        {
          "internalType": "address",
          "name": "recipient",
          "type": "address"
        },
        {
          "internalType": "uint256",
          "name": "amount",
          "type": "uint256"
        }
      ],
      "name": "transferFrom",
      "outputs": [
        {
          "internalType": "bool",
          "name": "",
          "type": "bool"
        }
      ],
      "stateMutability": "nonpayable",
      "type": "function"
    },
    {
      "inputs": [
        {
          "internalType": "address",
          "name": "recipient",
          "type": "address"
        },
        {
          "internalType": "uint256",
          "name": "amount",
          "type": "uint256"
        }
      ],
      "name": "faucet",
      "outputs": [],
      "stateMutability": "nonpayable",
      "type": "function"
    }
  ],
  "bytecode": "0x60806040523480156200001157600080fd5b506040518060400160405280601381526020017f466573746976616c4d61726b6574546f6b656e000000000000000000000000008152506040518060400160405280600381526020017f464d54000000000000000000000000000000000000000000000000000000000081525081600390805190602001906200009692919062000218565b508051620000ac90600490602084019062000218565b505050620000fa33620000cd62000100640100000000026401000000009004565b620000dd9060ff16600a62000368565b620000eb90614e206200045d565b64010000000062000105810204565b62000504565b601290565b600160a060020a03821662000151576040517f08c379a00000000000000000000000000000000000000000000000000000000081526004016200014890620002be565b60405180910390fd5b620001686000838364010000000062000213810204565b80600260008282546200017c9190620002fe565b9091555050600160a060020a03821660009081526020819052604081208054839290620001ab908490620002fe565b9091555050604051600160a060020a038316906000907fddf252ad1be2c89b69c2b068fc378daa952ba7f163c4a11628f55a4df523b3ef90620001f0908590620002f5565b60405180910390a36200020f6000838364010000000062000213810204565b5050565b505050565b82805462000226906200047f565b90600052602060002090601f0160209004810192826200024a576000855562000295565b82601f106200026557805160ff191683800117855562000295565b8280016001018555821562000295579182015b828111156200029557825182559160200191906001019062000278565b50620002a3929150620002a7565b5090565b5b80821115620002a35760008155600101620002a8565b6020808252601f908201527f45524332303a206d696e7420746f20746865207a65726f206164647265737300604082015260600190565b90815260200190565b60008219821115620003145762000314620004d5565b500190565b80825b60018086116200032d57506200035f565b818704821115620003425762000342620004d5565b808616156200035057918102915b5060029094049380026200031c565b94509492505050565b600062000379600019848462000380565b9392505050565b600082620003915750600162000379565b81620003a05750600062000379565b8160018114620003b95760028114620003c457620003f8565b600191505062000379565b60ff841115620003d857620003d8620004d5565b8360020a915084821115620003f157620003f1620004d5565b5062000379565b5060208310610133831016604e8410600b841016171562000430575081810a838111156200042a576200042a620004d5565b62000379565b6200043f848484600162000319565b808604821115620004545762000454620004d5565b02949350505050565b60008160001904831182151516156200047a576200047a620004d5565b500290565b6002810460018216806200049457607f821691505b60208210811415620004cf577f4e487b7100000000000000000000000000000000000000000000000000000000600052602260045260246000fd5b50919050565b7f4e487b7100000000000000000000000000000000000000000000000000000000600052601160045260246000fd5b610bf780620005146000396000f3fe608060405234801561001057600080fd5b50600436106100d1576000357c01000000000000000000000000000000000000000000000000000000009004806370a082311161008e57806370a08231146101645780637b56c2b21461017757806395d89b411461018c578063a457c2d714610194578063a9059cbb146101a7578063dd62ed3e146101ba576100d1565b806306fdde03146100d6578063095ea7b3146100f457806318160ddd1461011457806323b872dd14610129578063313ce5671461013c5780633950935114610151575b600080fd5b6100de6101cd565b6040516100eb9190610804565b60405180910390f35b6101076101023660046107d0565b61025f565b6040516100eb91906107f9565b61011c61027c565b6040516100eb9190610b19565b610107610137366004610795565b610282565b61014461031e565b6040516100eb9190610b22565b61010761015f3660046107d0565b610323565b61011c610172366004610742565b610377565b61018a6101853660046107d0565b610396565b005b6100de6103a4565b6101076101a23660046107d0565b6103b3565b6101076101b53660046107d0565b61042f565b61011c6101c8366004610763565b610443565b6060600380546101dc90610b6d565b80601f016020809104026020016040519081016040528092919081815260200182805461020890610b6d565b80156102555780601f1061022a57610100808354040283529160200191610255565b820191906000526020600020905b81548152906001019060200180831161023857829003601f168201915b5050505050905090565b600061027361026c61046e565b8484610472565b50600192915050565b60025490565b600061028f84848461052c565b600160a060020a0384166000908152600160205260408120816102b061046e565b600160a060020a0316600160a060020a03168152602001908152602001600020549050828110156102ff5760405160e560020a62461bcd0281526004016102f69061096e565b60405180910390fd5b6103138561030b61046e565b858403610472565b506001949350505050565b601290565b600061027361033061046e565b84846001600061033e61046e565b600160a060020a03908116825260208083019390935260409182016000908120918b16815292529020546103729190610b30565b610472565b600160a060020a0381166000908152602081905260409020545b919050565b6103a0828261065f565b5050565b6060600480546101dc90610b6d565b600080600160006103c261046e565b600160a060020a03908116825260208083019390935260409182016000908120918816815292529020549050828110156104115760405160e560020a62461bcd0281526004016102f690610a85565b61042561041c61046e565b85858403610472565b5060019392505050565b600061027361043c61046e565b848461052c565b600160a060020a03918216600090815260016020908152604080832093909416825291909152205490565b3390565b600160a060020a03831661049b5760405160e560020a62461bcd0281526004016102f690610a28565b600160a060020a0382166104c45760405160e560020a62461bcd0281526004016102f6906108b4565b600160a060020a0380841660008181526001602090815260408083209487168084529490915290819020849055517f8c5be1e5ebec7d5bd14f71427d1e84f3dd0314c0f7b2291e5b200ac8c7c3b9259061051f908590610b19565b60405180910390a3505050565b600160a060020a0383166105555760405160e560020a62461bcd0281526004016102f6906109cb565b600160a060020a03821661057e5760405160e560020a62461bcd0281526004016102f690610857565b610589838383610726565b600160a060020a038316600090815260208190526040902054818110156105c55760405160e560020a62461bcd0281526004016102f690610911565b600160a060020a038085166000908152602081905260408082208585039055918516815290812080548492906105fc908490610b30565b9250508190555082600160a060020a031684600160a060020a03167fddf252ad1be2c89b69c2b068fc378daa952ba7f163c4a11628f55a4df523b3ef846040516106469190610b19565b60405180910390a3610659848484610726565b50505050565b600160a060020a0382166106885760405160e560020a62461bcd0281526004016102f690610ae2565b61069460008383610726565b80600260008282546106a69190610b30565b9091555050600160a060020a038216600090815260208190526040812080548392906106d3908490610b30565b9091555050604051600160a060020a038316906000907fddf252ad1be2c89b69c2b068fc378daa952ba7f163c4a11628f55a4df523b3ef90610716908590610b19565b60405180910390a36103a0600083835b505050565b8035600160a060020a038116811461039157600080fd5b600060208284031215610753578081fd5b61075c8261072b565b9392505050565b60008060408385031215610775578081fd5b61077e8361072b565b915061078c6020840161072b565b90509250929050565b6000806000606084860312156107a9578081fd5b6107b28461072b565b92506107c06020850161072b565b9150604084013590509250925092565b600080604083850312156107e2578182fd5b6107eb8361072b565b946020939093013593505050565b901515815260200190565b6000602080835283518082850152825b8181101561083057858101830151858201604001528201610814565b818111156108415783604083870101525b50601f01601f1916929092016040019392505050565b60208082526023908201527f45524332303a207472616e7366657220746f20746865207a65726f206164647260408201527f6573730000000000000000000000000000000000000000000000000000000000606082015260800190565b60208082526022908201527f45524332303a20617070726f766520746f20746865207a65726f20616464726560408201527f7373000000000000000000000000000000000000000000000000000000000000606082015260800190565b60208082526026908201527f45524332303a207472616e7366657220616d6f756e742065786365656473206260408201527f616c616e63650000000000000000000000000000000000000000000000000000606082015260800190565b60208082526028908201527f45524332303a207472616e7366657220616d6f756e742065786365656473206160408201527f6c6c6f77616e6365000000000000000000000000000000000000000000000000606082015260800190565b60208082526025908201527f45524332303a207472616e736665722066726f6d20746865207a65726f20616460408201527f6472657373000000000000000000000000000000000000000000000000000000606082015260800190565b60208082526024908201527f45524332303a20617070726f76652066726f6d20746865207a65726f2061646460408201527f7265737300000000000000000000000000000000000000000000000000000000606082015260800190565b60208082526025908201527f45524332303a2064656372656173656420616c6c6f77616e63652062656c6f7760408201527f207a65726f000000000000000000000000000000000000000000000000000000606082015260800190565b6020808252601f908201527f45524332303a206d696e7420746f20746865207a65726f206164647265737300604082015260600190565b90815260200190565b60ff91909116815260200190565b60008219821115610b68577f4e487b710000000000000000000000000000000000000000000000000000000081526011600452602481fd5b500190565b600281046001821680610b8157607f821691505b60208210811415610bbb577f4e487b7100000000000000000000000000000000000000000000000000000000600052602260045260246000fd5b5091905056fea264697066735822122070055478b14a003ddc31454dd2108cfad2697a48c9d89a006b11c034de8b099564736f6c63430008000033",
  "immutableReferences": {},
  "source": "// SPDX-License-Identifier: MIT\npragma solidity 0.8.0;\n\nimport \"@openzeppelin/contracts/token/ERC20/ERC20.sol\";\n\n/// @title an ERC20 token used to purchase tickets\n/// @author Ambroise Moreau\n/// @notice This contract is an ERC20 smart contract. The FestivalMarketToken is the currency used to buy the tickets\n\ncontract FestivalMarketToken is ERC20{\n    /// @notice constructor\n    constructor() ERC20(\"FestivalMarketToken\", \"FMT\"){\n        _mint(msg.sender, 20000*(10**uint256(decimals())));\n    }\n    /// @notice faucet function to let user get test currency \n    /// @param recipient address of the account that will receive FMT\n    /// @param amount of FMT sent to recipient\n    function faucet(address recipient, uint amount) external {\n        _mint(recipient, amount);\n    }\n}",
  "sourcePath": "/Users/ambroisemoreau/coding/consensys/final-project/contracts/FestivalMarketToken.sol",
  "compiler": {
    "name": "solc",
    "version": "0.8.0+commit.c7dfd78e.Emscripten.clang"
  },
  "schemaVersion": "3.4.1",
  "updatedAt": "2021-11-28T23:01:39.166Z",
  "networkType": "ethereum",
  "devdoc": {
    "author": "Ambroise Moreau",
    "kind": "dev",
    "methods": {
      "allowance(address,address)": {
        "details": "See {IERC20-allowance}."
      },
      "approve(address,uint256)": {
        "details": "See {IERC20-approve}. Requirements: - `spender` cannot be the zero address."
      },
      "balanceOf(address)": {
        "details": "See {IERC20-balanceOf}."
      },
      "decimals()": {
        "details": "Returns the number of decimals used to get its user representation. For example, if `decimals` equals `2`, a balance of `505` tokens should be displayed to a user as `5.05` (`505 / 10 ** 2`). Tokens usually opt for a value of 18, imitating the relationship between Ether and Wei. This is the value {ERC20} uses, unless this function is overridden; NOTE: This information is only used for _display_ purposes: it in no way affects any of the arithmetic of the contract, including {IERC20-balanceOf} and {IERC20-transfer}."
      },
      "decreaseAllowance(address,uint256)": {
        "details": "Atomically decreases the allowance granted to `spender` by the caller. This is an alternative to {approve} that can be used as a mitigation for problems described in {IERC20-approve}. Emits an {Approval} event indicating the updated allowance. Requirements: - `spender` cannot be the zero address. - `spender` must have allowance for the caller of at least `subtractedValue`."
      },
      "faucet(address,uint256)": {
        "params": {
          "amount": "of FMT sent to recipient",
          "recipient": "address of the account that will receive FMT"
        }
      },
      "increaseAllowance(address,uint256)": {
        "details": "Atomically increases the allowance granted to `spender` by the caller. This is an alternative to {approve} that can be used as a mitigation for problems described in {IERC20-approve}. Emits an {Approval} event indicating the updated allowance. Requirements: - `spender` cannot be the zero address."
      },
      "name()": {
        "details": "Returns the name of the token."
      },
      "symbol()": {
        "details": "Returns the symbol of the token, usually a shorter version of the name."
      },
      "totalSupply()": {
        "details": "See {IERC20-totalSupply}."
      },
      "transfer(address,uint256)": {
        "details": "See {IERC20-transfer}. Requirements: - `recipient` cannot be the zero address. - the caller must have a balance of at least `amount`."
      },
      "transferFrom(address,address,uint256)": {
        "details": "See {IERC20-transferFrom}. Emits an {Approval} event indicating the updated allowance. This is not required by the EIP. See the note at the beginning of {ERC20}. Requirements: - `sender` and `recipient` cannot be the zero address. - `sender` must have a balance of at least `amount`. - the caller must have allowance for ``sender``'s tokens of at least `amount`."
      }
    },
    "title": "an ERC20 token used to purchase tickets",
    "version": 1
  },
  "userdoc": {
    "kind": "user",
    "methods": {
      "constructor": {
        "notice": "constructor"
      },
      "faucet(address,uint256)": {
        "notice": "faucet function to let user get test currency "
      }
    },
    "notice": "This contract is an ERC20 smart contract. The FestivalMarketToken is the currency used to buy the tickets",
    "version": 1
  }
}