{
  "contractName": "FestivalMarketPlace",
  "abi": [
    {
      "inputs": [],
      "stateMutability": "nonpayable",
      "type": "constructor"
    },
    {
      "anonymous": false,
      "inputs": [
        {
          "indexed": false,
          "internalType": "string",
          "name": "festivalName",
          "type": "string"
        },
        {
          "indexed": false,
          "internalType": "address",
          "name": "transactionsLogicAddress",
          "type": "address"
        }
      ],
      "name": "FestivalCreated",
      "type": "event"
    },
    {
      "anonymous": false,
      "inputs": [
        {
          "indexed": false,
          "internalType": "address",
          "name": "contractAddress",
          "type": "address"
        }
      ],
      "name": "FestivalMarketPlaceCreated",
      "type": "event"
    },
    {
      "anonymous": false,
      "inputs": [
        {
          "indexed": true,
          "internalType": "address",
          "name": "previousOwner",
          "type": "address"
        },
        {
          "indexed": true,
          "internalType": "address",
          "name": "newOwner",
          "type": "address"
        }
      ],
      "name": "OwnershipTransferred",
      "type": "event"
    },
    {
      "inputs": [
        {
          "internalType": "uint256",
          "name": "",
          "type": "uint256"
        }
      ],
      "name": "listOfFestivals",
      "outputs": [
        {
          "internalType": "string",
          "name": "festivalName",
          "type": "string"
        },
        {
          "internalType": "string",
          "name": "festivalSymbol",
          "type": "string"
        },
        {
          "internalType": "address",
          "name": "transactionsLogic",
          "type": "address"
        },
        {
          "internalType": "uint256",
          "name": "ticketPrice",
          "type": "uint256"
        }
      ],
      "stateMutability": "view",
      "type": "function",
      "constant": true
    },
    {
      "inputs": [],
      "name": "owner",
      "outputs": [
        {
          "internalType": "address",
          "name": "",
          "type": "address"
        }
      ],
      "stateMutability": "view",
      "type": "function",
      "constant": true
    },
    {
      "inputs": [],
      "name": "renounceOwnership",
      "outputs": [],
      "stateMutability": "nonpayable",
      "type": "function"
    },
    {
      "inputs": [
        {
          "internalType": "address",
          "name": "newOwner",
          "type": "address"
        }
      ],
      "name": "transferOwnership",
      "outputs": [],
      "stateMutability": "nonpayable",
      "type": "function"
    },
    {
      "inputs": [
        {
          "internalType": "string",
          "name": "festivalName",
          "type": "string"
        },
        {
          "internalType": "string",
          "name": "festivalSymbol",
          "type": "string"
        },
        {
          "internalType": "uint256",
          "name": "totalSupply",
          "type": "uint256"
        },
        {
          "internalType": "uint256",
          "name": "ticketPrice",
          "type": "uint256"
        },
        {
          "internalType": "uint256",
          "name": "commission",
          "type": "uint256"
        },
        {
          "internalType": "address",
          "name": "festivalOrganiser",
          "type": "address"
        },
        {
          "internalType": "contract FestivalMarketToken",
          "name": "token",
          "type": "address"
        }
      ],
      "name": "createFestival",
      "outputs": [
        {
          "internalType": "address",
          "name": "",
          "type": "address"
        }
      ],
      "stateMutability": "nonpayable",
      "type": "function"
    },
    {
      "inputs": [],
      "name": "getFestivalsOnMarketPlace",
      "outputs": [
        {
          "components": [
            {
              "internalType": "string",
              "name": "festivalName",
              "type": "string"
            },
            {
              "internalType": "string",
              "name": "festivalSymbol",
              "type": "string"
            },
            {
              "internalType": "address",
              "name": "transactionsLogic",
              "type": "address"
            },
            {
              "internalType": "uint256",
              "name": "ticketPrice",
              "type": "uint256"
            }
          ],
          "internalType": "struct FestivalMarketPlace.FestivalDetails[]",
          "name": "",
          "type": "tuple[]"
        }
      ],
      "stateMutability": "view",
      "type": "function",
      "constant": true
    }
  ],
  "bytecode": "0x608060405234801561001057600080fd5b5061003361002564010000000061006f810204565b640100000000610073810204565b7f470a221e0a85239625f4ac5d3660c960820219b1f5bb2e6d9264c3acbbe20b943060405161006291906100c3565b60405180910390a16100d7565b3390565b60008054600160a060020a03838116600160a060020a0319831681178455604051919092169283917f8be0079c531659141344cd1fd0a4f28419497f9722a3daafe3b4186f6b6457e09190a35050565b600160a060020a0391909116815260200190565b614cf0806100e66000396000f3fe60806040523480156200001157600080fd5b506004361062000086577c0100000000000000000000000000000000000000000000000000000000600035046317cf8d9d81146200008b57806322f204f314620000bd578063592a322514620000d6578063715018a614620000fc5780638da5cb5b1462000108578063f2fde38b1462000112575b600080fd5b620000a26200009c36600462000a56565b62000129565b604051620000b4949392919062000bc7565b60405180910390f35b620000c762000294565b604051620000b4919062000af3565b620000ed620000e7366004620009a6565b6200044c565b604051620000b4919062000abb565b62000106620006eb565b005b620000ed62000742565b620001066200012336600462000980565b62000751565b600281815481106200013a57600080fd5b90600052602060002090600402016000915090508060000180546200015f9062000db6565b80601f01602080910402602001604051908101604052809291908181526020018280546200018d9062000db6565b8015620001de5780601f10620001b257610100808354040283529160200191620001de565b820191906000526020600020905b815481529060010190602001808311620001c057829003601f168201915b505050505090806001018054620001f59062000db6565b80601f0160208091040260200160405190810160405280929190818152602001828054620002239062000db6565b8015620002745780601f10620002485761010080835404028352916020019162000274565b820191906000526020600020905b8154815290600101906020018083116200025657829003601f168201915b5050505060028301546003909301549192600160a060020a031691905084565b60606002805480602002602001604051908101604052809291908181526020016000905b82821015620004435783829060005260206000209060040201604051806080016040529081600082018054620002ee9062000db6565b80601f01602080910402602001604051908101604052809291908181526020018280546200031c9062000db6565b80156200036d5780601f1062000341576101008083540402835291602001916200036d565b820191906000526020600020905b8154815290600101906020018083116200034f57829003601f168201915b50505050508152602001600182018054620003889062000db6565b80601f0160208091040260200160405190810160405280929190818152602001828054620003b69062000db6565b8015620004075780601f10620003db5761010080835404028352916020019162000407565b820191906000526020600020905b815481529060010190602001808311620003e957829003601f168201915b50505091835250506002820154600160a060020a03166020808301919091526003909201546040909101529082526001929092019101620002b8565b50505050905090565b600062000458620007d4565b600160a060020a03166200046b62000742565b600160a060020a031614620004a05760405160e560020a62461bcd028152600401620004979062000d17565b60405180910390fd5b600188604051620004b2919062000a9d565b9081526040519081900360200190205460ff1615620004e85760405160e560020a62461bcd028152600401620004979062000d4c565b600a8411156200050f5760405160e560020a62461bcd028152600401620004979062000cba565b60008888888887604051620005249062000835565b6200053495949392919062000c0d565b604051809103906000f08015801562000551573d6000803e3d6000fd5b5090506000838287604051620005679062000843565b620005759392919062000acf565b604051809103906000f08015801562000592573d6000803e3d6000fd5b509050600060405180608001604052808c81526020018b815260200183600160a060020a031681526020018981525090506001808c604051620005d6919062000a9d565b90815260405160209181900382019020805460ff191692151592909217909155600280546001810182556000919091528251805184937f405787fa12a823e0f2b7631cc41b3ba8828b3321ca811111fa75cd3aa3bb5ace600490940293909301926200064792849291019062000851565b50602082810151805162000662926001850192019062000851565b5060408281015160028301805473ffffffffffffffffffffffffffffffffffffffff1916600160a060020a03909216919091179055606090920151600390910155517f6cd117335e9e94970fe1de88c577d26981426c097f5eebb62364583a74ebe5bd90620006d5908d90859062000b9a565b60405180910390a1509998505050505050505050565b620006f5620007d4565b600160a060020a03166200070862000742565b600160a060020a031614620007345760405160e560020a62461bcd028152600401620004979062000d17565b620007406000620007d8565b565b600054600160a060020a031690565b6200075b620007d4565b600160a060020a03166200076e62000742565b600160a060020a0316146200079a5760405160e560020a62461bcd028152600401620004979062000d17565b600160a060020a038116620007c65760405160e560020a62461bcd028152600401620004979062000c5d565b620007d181620007d8565b50565b3390565b60008054600160a060020a0383811673ffffffffffffffffffffffffffffffffffffffff19831681178455604051919092169283917f8be0079c531659141344cd1fd0a4f28419497f9722a3daafe3b4186f6b6457e09190a35050565b61355c8062000e5283390190565b61090d80620043ae83390190565b8280546200085f9062000db6565b90600052602060002090601f016020900481019282620008835760008555620008ce565b82601f106200089e57805160ff1916838001178555620008ce565b82800160010185558215620008ce579182015b82811115620008ce578251825591602001919060010190620008b1565b50620008dc929150620008e0565b5090565b5b80821115620008dc5760008155600101620008e1565b600082601f83011262000908578081fd5b813567ffffffffffffffff8082111562000926576200092662000e0c565b604051601f8301601f1916810160200182811182821017156200094d576200094d62000e0c565b60405282815284830160200186101562000965578384fd5b82602086016020830137918201602001929092529392505050565b60006020828403121562000992578081fd5b81356200099f8162000e3b565b9392505050565b600080600080600080600060e0888a031215620009c1578283fd5b873567ffffffffffffffff80821115620009d9578485fd5b620009e78b838c01620008f7565b985060208a0135915080821115620009fd578485fd5b5062000a0c8a828b01620008f7565b96505060408801359450606088013593506080880135925060a088013562000a348162000e3b565b915060c088013562000a468162000e3b565b8091505092959891949750929550565b60006020828403121562000a68578081fd5b5035919050565b6000815180845262000a8981602086016020860162000d83565b601f01601f19169290920160200192915050565b6000825162000ab181846020870162000d83565b9190910192915050565b600160a060020a0391909116815260200190565b600160a060020a039384168152919092166020820152604081019190915260600190565b60208082528251828201819052600091906040908185019080840286018301878501865b8381101562000b8c57603f1989840301855281516080815181865262000b408287018262000a6f565b915050888201518582038a87015262000b5a828262000a6f565b838a0151600160a060020a0316878b015260609384015193909601929092525050938601939086019060010162000b17565b509098975050505050505050565b60006040825262000baf604083018562000a6f565b9050600160a060020a03831660208301529392505050565b60006080825262000bdc608083018762000a6f565b828103602084015262000bf0818762000a6f565b600160a060020a0395909516604084015250506060015292915050565b600060a0825262000c2260a083018862000a6f565b828103602084015262000c36818862000a6f565b604084019690965250506060810192909252600160a060020a031660809091015292915050565b60208082526026908201527f4f776e61626c653a206e6577206f776e657220697320746865207a65726f206160408201527f6464726573730000000000000000000000000000000000000000000000000000606082015260800190565b6020808252602a908201527f546865206f7267616e6973657220636f6d6d697373696f6e20697320746f206860408201527f69676820283c3130252900000000000000000000000000000000000000000000606082015260800190565b6020808252818101527f4f776e61626c653a2063616c6c6572206973206e6f7420746865206f776e6572604082015260600190565b60208082526017908201527f466573746976616c2065786973747320616c7265616479000000000000000000604082015260600190565b60005b8381101562000da057818101518382015260200162000d86565b8381111562000db0576000848401525b50505050565b60028104600182168062000dcb57607f821691505b6020821081141562000e06577f4e487b7100000000000000000000000000000000000000000000000000000000600052602260045260246000fd5b50919050565b7f4e487b7100000000000000000000000000000000000000000000000000000000600052604160045260246000fd5b600160a060020a0381168114620007d157600080fdfe60806040523480156200001157600080fd5b506040516200355c3803806200355c833981016040819052620000349162000305565b8451859085906200004d906001906020850190620001b4565b50805162000063906002906020840190620001b4565b505050620000a17f02043e402b2448206150a36c314b46e304de4c541e73a976575d9c4a6333626b82620000d2640100000000026401000000009004565b600a9290925560095560088054600160a060020a031916600160a060020a0390921691909117905550620004289050565b620000e78282640100000000620000eb810204565b5050565b62000100828264010000000062000187810204565b620000e757600082815260208181526040808320600160a060020a03851684529091529020805460ff1916600117905562000143640100000000620001b0810204565b600160a060020a031681600160a060020a0316837f2f8788117e7eff1d82e926ec794901d17c78024a50270940304540a733656f0d60405160405180910390a45050565b600091825260208281526040808420600160a060020a0393909316845291905290205460ff1690565b3390565b828054620001c290620003a3565b90600052602060002090601f016020900481019282620001e6576000855562000231565b82601f106200020157805160ff191683800117855562000231565b8280016001018555821562000231579182015b828111156200023157825182559160200191906001019062000214565b506200023f92915062000243565b5090565b5b808211156200023f576000815560010162000244565b600082601f8301126200026b578081fd5b81516001604060020a0380821115620002885762000288620003f9565b6040516020601f8401601f1916820181018381118382101715620002b057620002b0620003f9565b6040528382528584018101871015620002c7578485fd5b8492505b83831015620002ea5785830181015182840182015291820191620002cb565b83831115620002fb57848185840101525b5095945050505050565b600080600080600060a086880312156200031d578081fd5b85516001604060020a038082111562000334578283fd5b6200034289838a016200025a565b9650602088015191508082111562000358578283fd5b5062000367888289016200025a565b6040880151606089015160808a015192975090955093509050600160a060020a038116811462000395578182fd5b809150509295509295909350565b600281046001821680620003b857607f821691505b60208210811415620003f3577f4e487b7100000000000000000000000000000000000000000000000000000000600052602260045260246000fd5b50919050565b7f4e487b7100000000000000000000000000000000000000000000000000000000600052604160045260246000fd5b61312480620004386000396000f3fe608060405234801561001057600080fd5b5060043610610218576000357c01000000000000000000000000000000000000000000000000000000009004806371b5a8cf11610137578063a22cb465116100ca578063c87b56dd11610099578063c87b56dd1461041c578063d547741f1461042f578063e44360ae14610442578063e985e9c514610455578063ff99a0631461046857610218565b8063a22cb465146103ce578063b88d4fde146103e1578063bc4d6771146103f4578063c2f637dc1461040957610218565b8063941ada0e11610106578063941ada0e146103a357806395d89b41146103ab5780639f26002c146103b3578063a217fddf146103c657610218565b806371b5a8cf1461036b5780637738f809146103735780638063d8971461038857806391d148541461039057610218565b80632f2ff15d116101af5780636352211e1161017e5780636352211e1461032a57806367ff8ef21461033d5780636dc7e3c71461034557806370a082311461035857610218565b80632f2ff15d146102de57806336568abe146102f157806342842e0e14610304578063593367db1461031757610218565b80630b705578116101eb5780630b705578146102905780631b4e22de1461029857806323b872dd146102ab578063248a9ca3146102be57610218565b806301ffc9a71461021d57806306fdde0314610246578063081812fc1461025b578063095ea7b31461027b575b600080fd5b61023061022b3660046124d5565b61048a565b60405161023d91906126f2565b60405180910390f35b61024e61049d565b60405161023d9190612706565b61026e61026936600461249b565b61052f565b60405161023d919061261d565b61028e610289366004612472565b61057e565b005b61026e61061c565b61028e6102a6366004612472565b61062b565b61028e6102b9366004612331565b610c87565b6102d16102cc36600461249b565b610cc2565b60405161023d91906126fd565b61028e6102ec3660046124b3565b610cd7565b61028e6102ff3660046124b3565b610cfb565b61028e610312366004612331565b610d44565b6102d161032536600461249b565b610d5f565b61026e61033836600461249b565b610db0565b6102d1610de8565b61028e61035336600461250d565b610dee565b6102d16103663660046122e5565b610f77565b6102d1610fbe565b61037b610fe2565b60405161023d91906126ba565b61037b611039565b61023061039e3660046124b3565b61108f565b6102306110b8565b61024e6110d9565b61037b6103c13660046122e5565b6110e8565b6102d1611154565b61028e6103dc366004612438565b611159565b61028e6103ef36600461236c565b61122a565b6103fc611266565b60405161023d919061266d565b61028e6104173660046124b3565b6112c7565b61024e61042a36600461249b565b61145c565b61028e61043d3660046124b3565b6114e2565b61028e610450366004612472565b611501565b6102306104633660046122ff565b6117ca565b61047b61047636600461249b565b6117f8565b60405161023d93929190612f66565b60006104958261181d565b90505b919050565b6060600180546104ac90613023565b80601f01602080910402602001604051908101604052809291908181526020018280546104d890613023565b80156105255780601f106104fa57610100808354040283529160200191610525565b820191906000526020600020905b81548152906001019060200180831161050857829003601f168201915b5050505050905090565b600061053a8261188f565b6105625760405160e560020a62461bcd02815260040161055990612c6f565b60405180910390fd5b50600090815260056020526040902054600160a060020a031690565b600061058982610db0565b905080600160a060020a031683600160a060020a031614156105c05760405160e560020a62461bcd02815260040161055990612d86565b80600160a060020a03166105d26118ac565b600160a060020a031614806105ee57506105ee816104636118ac565b61060d5760405160e560020a62461bcd02815260040161055990612a58565b61061783836118b0565b505050565b600854600160a060020a031690565b600854600160a060020a031661064082610db0565b600160a060020a0316141561066a5760405160e560020a62461bcd02815260040161055990612b6f565b81600160a060020a031661067d82610db0565b600160a060020a031614156106a75760405160e560020a62461bcd028152600401610559906129c4565b600854600160a060020a03838116911614156106d85760405160e560020a62461bcd028152600401610559906127e2565b60006106e382610db0565b90506106f86106f183610db0565b8484610c87565b6000828152600b6020908152604080832060018082015482556002909101805460ff19169055600160a060020a0387168452600d8352908320805491820181558352908220018390555b600c548110156108835782600c82815481106107715760e060020a634e487b7102600052603260045260246000fd5b9060005260206000200154141561087157600c541561083357600c805461079a90600190612fc9565b815481106107bb5760e060020a634e487b7102600052603260045260246000fd5b9060005260206000200154600c82815481106107ea5760e060020a634e487b7102600052603260045260246000fd5b600091825260209091200155600c8054806108185760e060020a634e487b7102600052603160045260246000fd5b6001900381819060005260206000200160009055905561086c565b600c8054806108555760e060020a634e487b7102600052603160045260246000fd5b600190038181906000526020600020016000905590555b610883565b8061087b8161305b565b915050610742565b5060005b600160a060020a0382166000908152600d6020526040902054811015610a7457600160a060020a0382166000908152600d602052604090208054849190839081106108e55760e060020a634e487b7102600052603260045260246000fd5b90600052602060002001541415610a6257600160a060020a0382166000908152600d602052604090205415610a0e57600160a060020a0382166000908152600d60205260409020805461093a90600190612fc9565b8154811061095b5760e060020a634e487b7102600052603260045260246000fd5b9060005260206000200154600d600084600160a060020a0316600160a060020a0316815260200190815260200160002082815481106109ad5760e060020a634e487b7102600052603260045260246000fd5b6000918252602080832090910192909255600160a060020a0384168152600d909152604090208054806109f35760e060020a634e487b7102600052603160045260246000fd5b60019003818190600052602060002001600090559055610a5d565b600160a060020a0382166000908152600d60205260409020805480610a465760e060020a634e487b7102600052603160045260246000fd5b600190038181906000526020600020016000905590555b610a74565b80610a6c8161305b565b915050610887565b50600160a060020a0381166000908152600d6020526040902054610c335760005b600e54811015610c315781600160a060020a0316600e8281548110610acd5760e060020a634e487b7102600052603260045260246000fd5b600091825260209091200154600160a060020a03161415610c1f57600e5415610bd557600e8054610b0090600190612fc9565b81548110610b215760e060020a634e487b7102600052603260045260246000fd5b600091825260209091200154600e8054600160a060020a039092169183908110610b5e5760e060020a634e487b7102600052603260045260246000fd5b9060005260206000200160006101000a815481600160a060020a030219169083600160a060020a03160217905550600e805480610bae5760e060020a634e487b7102600052603160045260246000fd5b60008281526020902081016000199081018054600160a060020a0319169055019055610c1a565b600e805480610bf75760e060020a634e487b7102600052603160045260246000fd5b60008281526020902081016000199081018054600160a060020a03191690550190555b610c31565b80610c298161305b565b915050610a95565b505b5050600e80546001810182556000919091527fbb7b4a454dc3493923482f07822329ed19e8244eff582cc204f8554c3620c3fd018054600160a060020a031916600160a060020a0392909216919091179055565b610c98610c926118ac565b8261191e565b610cb75760405160e560020a62461bcd02815260040161055990612e4f565b6106178383836119a6565b60009081526020819052604090206001015490565b610ce082610cc2565b610cf181610cec6118ac565b611ad9565b6106178383611b40565b610d036118ac565b600160a060020a031681600160a060020a031614610d365760405160e560020a62461bcd02815260040161055990612f09565b610d408282611bc5565b5050565b6106178383836040518060200160405280600081525061122a565b6000818152600b6020526040812060020154829060ff16610d955760405160e560020a62461bcd02815260040161055990612a21565b6000838152600b602052604090206001015491505b50919050565b600081815260036020526040812054600160a060020a0316806104955760405160e560020a62461bcd02815260040161055990612b12565b60095490565b6000838152600b6020526040902054606490610e0b9060d2612faa565b610e159190612f96565b8210610e365760405160e560020a62461bcd02815260040161055990612ba6565b33610e4084610db0565b600160a060020a031614610e695760405160e560020a62461bcd02815260040161055990612c12565b600854600160a060020a0316610e7e84610db0565b600160a060020a03161415610ea85760405160e560020a62461bcd02815260040161055990612eac565b6000838152600b6020526040812060018082018590556002909101805460ff19169091179055805b600c54811015610f2b5784600c8281548110610eff5760e060020a634e487b7102600052603260045260246000fd5b90600052602060002001541415610f195760019150610f2b565b80610f238161305b565b915050610ed0565b5080610f6757600c80546001810182556000919091527fdf6966c971051c3d54ec59162606531493a51404a002842f56009d7e5cf4a8c7018490555b610f71828561057e565b50505050565b6000600160a060020a038216610fa25760405160e560020a62461bcd02815260040161055990612ab5565b50600160a060020a031660009081526004602052604090205490565b7f02043e402b2448206150a36c314b46e304de4c541e73a976575d9c4a6333626b81565b6060600f80548060200260200160405190810160405280929190818152602001828054801561052557602002820191906000526020600020905b81548152602001906001019080831161101c575050505050905090565b6060600c805480602002602001604051908101604052809291908181526020018280548015610525576020028201919060005260206000209081548152602001906001019080831161101c575050505050905090565b600091825260208281526040808420600160a060020a0393909316845291905290205460ff1690565b60085474010000000000000000000000000000000000000000900460ff1690565b6060600280546104ac90613023565b600160a060020a0381166000908152600d602090815260409182902080548351818402810184019094528084526060939283018282801561114857602002820191906000526020600020905b815481526020019060010190808311611134575b50505050509050919050565b600081565b6111616118ac565b600160a060020a031682600160a060020a031614156111955760405160e560020a62461bcd028152600401610559906128d3565b80600660006111a26118ac565b600160a060020a03908116825260208083019390935260409182016000908120918716808252919093529120805460ff1916921515929092179091556111e66118ac565b600160a060020a03167f17307eab39ab6107e8899845ad3d59bd9653f200f220920489ca2b5937696c318360405161121e91906126f2565b60405180910390a35050565b61123b6112356118ac565b8361191e565b61125a5760405160e560020a62461bcd02815260040161055990612e4f565b610f7184848484611c48565b6060600e80548060200260200160405190810160405280929190818152602001828054801561052557602002820191906000526020600020905b8154600160a060020a031681526001909101906020018083116112a0575050505050905090565b6112f37f02043e402b2448206150a36c314b46e304de4c541e73a976575d9c4a6333626b61039e6118ac565b6113125760405160e560020a62461bcd02815260040161055990612e18565b6103e8826113206007611c7e565b61132a9190612f7e565b111561134b5760405160e560020a62461bcd02815260040161055990612819565b60005b828110156113f95760006113626007611c7e565b905061136e8382611c82565b60408051606081018252600954815260006020808301828152838501838152868452600b90925293909120915182559151600182015590516002909101805460ff1916911515919091179055600f6113c66007611c7e565b815460018101835560009283526020909220909101556113e66007611d67565b50806113f18161305b565b91505061134e565b506008805474ff00000000000000000000000000000000000000001916740100000000000000000000000000000000000000001790556040517f5a31340f0d75691fca7c6ab36bdd3ece0f99ebc1e7aea94477e8a27ac8c44b6390600090a15050565b60606114678261188f565b6114865760405160e560020a62461bcd02815260040161055990612d29565b6000611490611d70565b905060008151116114b057604051806020016040528060008152506114db565b806114ba84611d82565b6040516020016114cb92919061256d565b6040516020818303038152906040525b9392505050565b6114eb82610cc2565b6114f781610cec6118ac565b6106178383611bc5565b3361150b82610db0565b600160a060020a0316146115345760405160e560020a62461bcd0281526004016105599061290a565b600854600160a060020a03838116911614156115655760405160e560020a62461bcd02815260040161055990612de3565b61157861157182610db0565b8383610c87565b6000805b600e548110156116165783600160a060020a0316600e82815481106115b45760e060020a634e487b7102600052603260045260246000fd5b600091825260209091200154600160a060020a0316141561160457600160a060020a0384166000908152600d60209081526040822080546001818101835591845291909220018490559150611616565b8061160e8161305b565b91505061157c565b508061168657600e805460018082019092557fbb7b4a454dc3493923482f07822329ed19e8244eff582cc204f8554c3620c3fd018054600160a060020a031916600160a060020a0386169081179091556000908152600d6020908152604082208054938401815582529020018290555b60005b600f54811015610f715782600f82815481106116b85760e060020a634e487b7102600052603260045260246000fd5b906000526020600020015414156117b857600f541561177a57600f80546116e190600190612fc9565b815481106117025760e060020a634e487b7102600052603260045260246000fd5b9060005260206000200154600f82815481106117315760e060020a634e487b7102600052603260045260246000fd5b600091825260209091200155600f80548061175f5760e060020a634e487b7102600052603160045260246000fd5b600190038181906000526020600020016000905590556117b3565b600f80548061179c5760e060020a634e487b7102600052603160045260246000fd5b600190038181906000526020600020016000905590555b610f71565b806117c28161305b565b915050611689565b600160a060020a03918216600090815260066020908152604080832093909416825291909152205460ff1690565b6000908152600b6020526040902080546001820154600290920154909260ff90911690565b6000600160e060020a031982167f80ac58cd0000000000000000000000000000000000000000000000000000000014806118805750600160e060020a031982167f5b5e139f00000000000000000000000000000000000000000000000000000000145b80610495575061049582611ede565b600090815260036020526040902054600160a060020a0316151590565b3390565b60008181526005602052604090208054600160a060020a031916600160a060020a03841690811790915581906118e582610db0565b600160a060020a03167f8c5be1e5ebec7d5bd14f71427d1e84f3dd0314c0f7b2291e5b200ac8c7c3b92560405160405180910390a45050565b60006119298261188f565b6119485760405160e560020a62461bcd02815260040161055990612967565b600061195383610db0565b905080600160a060020a031684600160a060020a0316148061198e575083600160a060020a03166119838461052f565b600160a060020a0316145b8061199e575061199e81856117ca565b949350505050565b82600160a060020a03166119b982610db0565b600160a060020a0316146119e25760405160e560020a62461bcd02815260040161055990612ccc565b600160a060020a038216611a0b5760405160e560020a62461bcd02815260040161055990612876565b611a16838383610617565b611a216000826118b0565b600160a060020a0383166000908152600460205260408120805460019290611a4a908490612fc9565b9091555050600160a060020a0382166000908152600460205260408120805460019290611a78908490612f7e565b90915550506000818152600360205260408082208054600160a060020a031916600160a060020a0386811691821790925591518493918716917fddf252ad1be2c89b69c2b068fc378daa952ba7f163c4a11628f55a4df523b3ef91a4505050565b611ae3828261108f565b610d4057611afb81600160a060020a03166014611f1c565b611b06836020611f1c565b604051602001611b1792919061259c565b60408051601f198184030181529082905260e560020a62461bcd02825261055991600401612706565b611b4a828261108f565b610d4057600082815260208181526040808320600160a060020a03851684529091529020805460ff19166001179055611b816118ac565b600160a060020a031681600160a060020a0316837f2f8788117e7eff1d82e926ec794901d17c78024a50270940304540a733656f0d60405160405180910390a45050565b611bcf828261108f565b15610d4057600082815260208181526040808320600160a060020a03851684529091529020805460ff19169055611c046118ac565b600160a060020a031681600160a060020a0316837ff6391f5c32d9c69d2a47ea670b442974b53935d1edc7fd64eb21e047a839171b60405160405180910390a45050565b611c538484846119a6565b611c5f84848484612143565b610f715760405160e560020a62461bcd0281526004016105599061274e565b5490565b600160a060020a038216611cab5760405160e560020a62461bcd02815260040161055990612bdd565b611cb48161188f565b15611cd45760405160e560020a62461bcd028152600401610559906127ab565b611ce060008383610617565b600160a060020a0382166000908152600460205260408120805460019290611d09908490612f7e565b90915550506000818152600360205260408082208054600160a060020a031916600160a060020a03861690811790915590518392907fddf252ad1be2c89b69c2b068fc378daa952ba7f163c4a11628f55a4df523b3ef908290a45050565b80546001019055565b60408051602081019091526000815290565b606081611dc3575060408051808201909152600181527f30000000000000000000000000000000000000000000000000000000000000006020820152610498565b8160005b8115611ded5780611dd78161305b565b9150611de69050600a83612f96565b9150611dc7565b60008167ffffffffffffffff811115611e195760e060020a634e487b7102600052604160045260246000fd5b6040519080825280601f01601f191660200182016040528015611e43576020820181803683370190505b5090505b841561199e57611e58600183612fc9565b9150611e65600a86613076565b611e70906030612f7e565b7f010000000000000000000000000000000000000000000000000000000000000002818381518110611eb55760e060020a634e487b7102600052603260045260246000fd5b6020010190600160f860020a031916908160001a905350611ed7600a86612f96565b9450611e47565b6000600160e060020a031982167f7965db0b000000000000000000000000000000000000000000000000000000001480610495575061049582612296565b60606000611f2b836002612faa565b611f36906002612f7e565b67ffffffffffffffff811115611f5f5760e060020a634e487b7102600052604160045260246000fd5b6040519080825280601f01601f191660200182016040528015611f89576020820181803683370190505b5090507f300000000000000000000000000000000000000000000000000000000000000081600081518110611fd15760e060020a634e487b7102600052603260045260246000fd5b6020010190600160f860020a031916908160001a9053507f78000000000000000000000000000000000000000000000000000000000000008160018151811061202d5760e060020a634e487b7102600052603260045260246000fd5b6020010190600160f860020a031916908160001a9053506000612051846002612faa565b61205c906001612f7e565b90505b6001811115612121577f303132333435363738396162636465660000000000000000000000000000000085600f16601081106120ae5760e060020a634e487b7102600052603260045260246000fd5b1a7f0100000000000000000000000000000000000000000000000000000000000000028282815181106120f45760e060020a634e487b7102600052603260045260246000fd5b6020010190600160f860020a031916908160001a90535060109094049361211a8161300c565b905061205f565b5083156114db5760405160e560020a62461bcd02815260040161055990612719565b600061215784600160a060020a03166122c8565b1561228b5783600160a060020a031663150b7a026121736118ac565b8786866040518563ffffffff167c01000000000000000000000000000000000000000000000000000000000281526004016121b19493929190612631565b602060405180830381600087803b1580156121cb57600080fd5b505af19250505080156121fb575060408051601f3d908101601f191682019092526121f8918101906124f1565b60015b612258573d808015612229576040519150601f19603f3d011682016040523d82523d6000602084013e61222e565b606091505b5080516122505760405160e560020a62461bcd0281526004016105599061274e565b805181602001fd5b600160e060020a0319167f150b7a020000000000000000000000000000000000000000000000000000000014905061199e565b506001949350505050565b600160e060020a031981167f01ffc9a70000000000000000000000000000000000000000000000000000000014919050565b3b151590565b8035600160a060020a038116811461049857600080fd5b6000602082840312156122f6578081fd5b6114db826122ce565b60008060408385031215612311578081fd5b61231a836122ce565b9150612328602084016122ce565b90509250929050565b600080600060608486031215612345578081fd5b61234e846122ce565b925061235c602085016122ce565b9150604084013590509250925092565b60008060008060808587031215612381578081fd5b61238a856122ce565b935060206123998187016122ce565b935060408601359250606086013567ffffffffffffffff808211156123bc578384fd5b818801915088601f8301126123cf578384fd5b8135818111156123e1576123e16130bc565b604051601f8201601f1916810185018381118282101715612404576124046130bc565b60405281815283820185018b101561241a578586fd5b81858501868301379081019093019390935250939692955090935050565b6000806040838503121561244a578182fd5b612453836122ce565b915060208301358015158114612467578182fd5b809150509250929050565b60008060408385031215612484578182fd5b61248d836122ce565b946020939093013593505050565b6000602082840312156124ac578081fd5b5035919050565b600080604083850312156124c5578182fd5b82359150612328602084016122ce565b6000602082840312156124e6578081fd5b81356114db816130d5565b600060208284031215612502578081fd5b81516114db816130d5565b600080600060608486031215612521578283fd5b8335925060208401359150612538604085016122ce565b90509250925092565b60008151808452612559816020860160208601612fe0565b601f01601f19169290920160200192915050565b6000835161257f818460208801612fe0565b835190830190612593818360208801612fe0565b01949350505050565b60007f416363657373436f6e74726f6c3a206163636f756e7420000000000000000000825283516125d4816017850160208801612fe0565b7f206973206d697373696e6720726f6c65200000000000000000000000000000006017918401918201528351612611816028840160208801612fe0565b01602801949350505050565b600160a060020a0391909116815260200190565b6000600160a060020a038087168352808616602084015250836040830152608060608301526126636080830184612541565b9695505050505050565b6020808252825182820181905260009190848201906040850190845b818110156126ae578351600160a060020a031683529284019291840191600101612689565b50909695505050505050565b6020808252825182820181905260009190848201906040850190845b818110156126ae578351835292840192918401916001016126d6565b901515815260200190565b90815260200190565b6000602082526114db6020830184612541565b6020808252818101527f537472696e67733a20686578206c656e67746820696e73756666696369656e74604082015260600190565b60208082526032908201527f4552433732313a207472616e7366657220746f206e6f6e20455243373231526560408201527f63656976657220696d706c656d656e7465720000000000000000000000000000606082015260800190565b6020808252601c908201527f4552433732313a20746f6b656e20616c7265616479206d696e74656400000000604082015260600190565b60208082526018908201527f546865206f7267616e697365722063616e6e6f74206275790000000000000000604082015260600190565b60208082526022908201527f43616e6e6f74206d696e74206d6f7265207468616e2031303030207469636b6560408201527f7473000000000000000000000000000000000000000000000000000000000000606082015260800190565b60208082526024908201527f4552433732313a207472616e7366657220746f20746865207a65726f2061646460408201527f7265737300000000000000000000000000000000000000000000000000000000606082015260800190565b60208082526019908201527f4552433732313a20617070726f766520746f2063616c6c657200000000000000604082015260600190565b60208082526029908201527f547279696e6720746f207472616e736665722066726f6d207468652077726f6e60408201527f67206163636f756e740000000000000000000000000000000000000000000000606082015260800190565b6020808252602c908201527f4552433732313a206f70657261746f7220717565727920666f72206e6f6e657860408201527f697374656e7420746f6b656e0000000000000000000000000000000000000000606082015260800190565b60208082526021908201527f54686520627579657220616c7265616479206f776e7320746865207469636b6560408201527f7400000000000000000000000000000000000000000000000000000000000000606082015260800190565b60208082526015908201527f5469636b6574206973206e6f74206f6e2073616c650000000000000000000000604082015260600190565b60208082526038908201527f4552433732313a20617070726f76652063616c6c6572206973206e6f74206f7760408201527f6e6572206e6f7220617070726f76656420666f7220616c6c0000000000000000606082015260800190565b6020808252602a908201527f4552433732313a2062616c616e636520717565727920666f7220746865207a6560408201527f726f206164647265737300000000000000000000000000000000000000000000606082015260800190565b60208082526029908201527f4552433732313a206f776e657220717565727920666f72206e6f6e657869737460408201527f656e7420746f6b656e0000000000000000000000000000000000000000000000606082015260800190565b60208082526018908201527f546865206f7267616e697365722063616e27742073656c6c0000000000000000604082015260600190565b60208082526018908201527f53656c6c696e6720707269636520697320746f20686967680000000000000000604082015260600190565b6020808252818101527f4552433732313a206d696e7420746f20746865207a65726f2061646472657373604082015260600190565b60208082526021908201527f4163636f756e742063616e6e6f7420707574207469636b6574206f6e2073616c60408201527f6500000000000000000000000000000000000000000000000000000000000000606082015260800190565b6020808252602c908201527f4552433732313a20617070726f76656420717565727920666f72206e6f6e657860408201527f697374656e7420746f6b656e0000000000000000000000000000000000000000606082015260800190565b60208082526029908201527f4552433732313a207472616e73666572206f6620746f6b656e2074686174206960408201527f73206e6f74206f776e0000000000000000000000000000000000000000000000606082015260800190565b6020808252602f908201527f4552433732314d657461646174613a2055524920717565727920666f72206e6f60408201527f6e6578697374656e7420746f6b656e0000000000000000000000000000000000606082015260800190565b60208082526021908201527f4552433732313a20617070726f76616c20746f2063757272656e74206f776e6560408201527f7200000000000000000000000000000000000000000000000000000000000000606082015260800190565b6020808252818101527f546865206f7267616e697365722063616e6e6f7420627579207469636b657473604082015260600190565b60208082526011908201527f4e6f7420746865206f7267616e69736572000000000000000000000000000000604082015260600190565b60208082526031908201527f4552433732313a207472616e736665722063616c6c6572206973206e6f74206f60408201527f776e6572206e6f7220617070726f766564000000000000000000000000000000606082015260800190565b6020808252602d908201527f4f7267616e697365722063616e6e6f742073656c6c206f6e207468652073656360408201527f6f6e64617279206d61726b657400000000000000000000000000000000000000606082015260800190565b6020808252602f908201527f416363657373436f6e74726f6c3a2063616e206f6e6c792072656e6f756e636560408201527f20726f6c657320666f722073656c660000000000000000000000000000000000606082015260800190565b92835260208301919091521515604082015260600190565b60008219821115612f9157612f9161308a565b500190565b600082612fa557612fa56130a3565b500490565b6000816000190483118215151615612fc457612fc461308a565b500290565b600082821015612fdb57612fdb61308a565b500390565b60005b83811015612ffb578181015183820152602001612fe3565b83811115610f715750506000910152565b60008161301b5761301b61308a565b506000190190565b60028104600182168061303757607f821691505b60208210811415610daa5760e060020a634e487b7102600052602260045260246000fd5b600060001982141561306f5761306f61308a565b5060010190565b600082613085576130856130a3565b500690565b60e060020a634e487b7102600052601160045260246000fd5b60e060020a634e487b7102600052601260045260246000fd5b60e060020a634e487b7102600052604160045260246000fd5b600160e060020a0319811681146130eb57600080fd5b5056fea26469706673582212209d0a35f23a4579424a367fa65048ff938695f1c172c30196641835735e05d4a664736f6c63430008000033608060405234801561001057600080fd5b5060405161090d38038061090d83398101604081905261002f91610154565b60008054600160a060020a03808616600160a060020a03199283161783556001805486831693169290921791829055604080517f0b70557800000000000000000000000000000000000000000000000000000000815290519290911692630b705578926004808401936020939083900390910190829087803b1580156100b457600080fd5b505af11580156100c8573d6000803e3d6000fd5b505050506040513d601f19601f820116820180604052508101906100ec9190610133565b60028054600160a060020a031916600160a060020a03929092169190911790556003555061018f9050565b8051600160a060020a038116811461012e57600080fd5b919050565b600060208284031215610144578081fd5b61014d82610117565b9392505050565b600080600060608486031215610168578182fd5b61017184610117565b925061017f60208501610117565b9150604084015190509250925092565b61076f8061019e6000396000f3fe608060405234801561001057600080fd5b506004361061004f5760e060020a6000350463249bf50f81146100545780636737dc2514610072578063ad55c4b514610087578063bb9bee781461008f575b600080fd5b61005c6100a2565b6040516100699190610641565b60405180910390f35b610085610080366004610611565b61013e565b005b61005c61042d565b61008561009d366004610611565b61043c565b600154604080517f0b7055780000000000000000000000000000000000000000000000000000000081529051600092600160a060020a031691630b70557891600480830192602092919082900301818787803b15801561010157600080fd5b505af1158015610115573d6000803e3d6000fd5b505050506040513d601f19601f8201168201806040525081019061013991906105e3565b905090565b6001546040517f593367db000000000000000000000000000000000000000000000000000000008152600091600160a060020a03169063593367db90610188908590600401610692565b602060405180830381600087803b1580156101a257600080fd5b505af11580156101b6573d6000803e3d6000fd5b505050506040513d601f19601f820116820180604052508101906101da9190610629565b905060006064826003546101ee91906106d4565b6101f8919061069b565b6000546001546040517f6352211e000000000000000000000000000000000000000000000000000000008152929350600160a060020a03918216926323b872dd9233921690636352211e90610251908990600401610692565b602060405180830381600087803b15801561026b57600080fd5b505af115801561027f573d6000803e3d6000fd5b505050506040513d601f19601f820116820180604052508101906102a391906105e3565b6102ad85876106f3565b6040518463ffffffff1660e060020a0281526004016102ce93929190610655565b600060405180830381600087803b1580156102e857600080fd5b505af11580156102fc573d6000803e3d6000fd5b50506000546002546040517f23b872dd000000000000000000000000000000000000000000000000000000008152600160a060020a0392831694506323b872dd935061035092339216908690600401610655565b600060405180830381600087803b15801561036a57600080fd5b505af115801561037e573d6000803e3d6000fd5b50506001546040517f1b4e22de000000000000000000000000000000000000000000000000000000008152600160a060020a039091169250631b4e22de91506103cd9033908790600401610679565b600060405180830381600087803b1580156103e757600080fd5b505af11580156103fb573d6000803e3d6000fd5b50506040517f23f7ccf46dafb36db26d07aecbdb0042cdb6b24a2a9678c1aafa7bae5d884ed1925060009150a1505050565b600154600160a060020a031690565b60008054600254600154604080517f67ff8ef20000000000000000000000000000000000000000000000000000000081529051600160a060020a03948516956323b872dd95339581169416926367ff8ef29260048083019360209383900390910190829087803b1580156104af57600080fd5b505af11580156104c3573d6000803e3d6000fd5b505050506040513d601f19601f820116820180604052508101906104e79190610629565b6040518463ffffffff1660e060020a02815260040161050893929190610655565b600060405180830381600087803b15801561052257600080fd5b505af1158015610536573d6000803e3d6000fd5b50506001546040517fe44360ae000000000000000000000000000000000000000000000000000000008152600160a060020a03909116925063e44360ae91506105859033908590600401610679565b600060405180830381600087803b15801561059f57600080fd5b505af11580156105b3573d6000803e3d6000fd5b50506040517f23f7ccf46dafb36db26d07aecbdb0042cdb6b24a2a9678c1aafa7bae5d884ed1925060009150a150565b6000602082840312156105f4578081fd5b8151600160a060020a038116811461060a578182fd5b9392505050565b600060208284031215610622578081fd5b5035919050565b60006020828403121561063a578081fd5b5051919050565b600160a060020a0391909116815260200190565b600160a060020a039384168152919092166020820152604081019190915260600190565b600160a060020a03929092168252602082015260400190565b90815260200190565b6000826106cf577f4e487b710000000000000000000000000000000000000000000000000000000081526012600452602481fd5b500490565b60008160001904831182151516156106ee576106ee61070a565b500290565b6000828210156107055761070561070a565b500390565b7f4e487b7100000000000000000000000000000000000000000000000000000000600052601160045260246000fdfea2646970667358221220f18ecc0efdffccc026c4c8c9f146d4d20cfc194d37f53fbbd579941bfc5759f064736f6c63430008000033a2646970667358221220d6520ddd4e47338893fdbedde04032ee6aba93a01204a0823e13d02ff6a53faf64736f6c63430008000033",
  "immutableReferences": {},
  "source": "// SPDX-License-Identifier: MIT\npragma solidity 0.8.0;\n\nimport \"./FestivalTicket.sol\";\nimport \"./TransactionsLogic.sol\";\nimport \"@openzeppelin/contracts/access/Ownable.sol\";\n\ncontract FestivalMarketPlace is Ownable{\n    struct FestivalDetails{\n        string festivalName;\n        string festivalSymbol;\n        address transactionsLogic;\n        uint256 ticketPrice;\n    }\n\n    event FestivalMarketPlaceCreated(address contractAddress);\n\n    constructor(){\n        emit FestivalMarketPlaceCreated(address(this));\n    }\n\n    mapping(string => bool) private festivalExists;\n    FestivalDetails[] public listOfFestivals;\n\n    event FestivalCreated(string festivalName, address transactionsLogicAddress);\n\n    function createFestival(string memory festivalName, string memory festivalSymbol,\n                            uint256 totalSupply, uint256 ticketPrice, uint256 commission,\n                            address festivalOrganiser, FestivalMarketToken token) onlyOwner public returns(address){\n        //Festivals must have different names\n        require(festivalExists[festivalName] == false, 'Festival exists already');\n        //The commission cannot be higher than 10%\n        require(commission <= 10, 'The organiser commission is to high (<10%)');\n        \n        FestivalTicket newTickets = new FestivalTicket(festivalName, festivalSymbol, totalSupply, ticketPrice, festivalOrganiser);\n        \n        //The transactions logic contract is linked to the NFT here. \n        TransactionsLogic festivalTransactionsLogic = new TransactionsLogic(address(token), address(newTickets), commission);\n        \n        FestivalDetails memory festDetails = FestivalDetails({\n            festivalName: festivalName,\n            festivalSymbol: festivalSymbol,\n            ticketPrice: ticketPrice,\n            transactionsLogic: address(festivalTransactionsLogic)});\n            festivalExists[festivalName] = true;\n            listOfFestivals.push(festDetails);\n            \n            emit FestivalCreated(festivalName, address(festivalTransactionsLogic));\n            // returning the transactions logic address let us create the contract directly in the dapp with the abi and the address. \n            return address(festivalTransactionsLogic);\n    }\n    /* This function let us easily get the different festivals that have already been created by the organiser.\n    It is used to load the contracts that are deployed on the blockchain in the dapp. */\n    function getFestivalsOnMarketPlace() public view returns(FestivalDetails[] memory){\n        return listOfFestivals;\n    }\n}",
  "sourcePath": "/Users/ambroisemoreau/coding/consensys/final-project/contracts/FestivalMarketPlace.sol",
  "compiler": {
    "name": "solc",
    "version": "0.8.0+commit.c7dfd78e.Emscripten.clang"
  },
  "schemaVersion": "3.4.1",
  "updatedAt": "2021-11-26T20:45:18.883Z",
  "networkType": "ethereum",
  "devdoc": {
    "kind": "dev",
    "methods": {
      "owner()": {
        "details": "Returns the address of the current owner."
      },
      "renounceOwnership()": {
        "details": "Leaves the contract without owner. It will not be possible to call `onlyOwner` functions anymore. Can only be called by the current owner. NOTE: Renouncing ownership will leave the contract without an owner, thereby removing any functionality that is only available to the owner."
      },
      "transferOwnership(address)": {
        "details": "Transfers ownership of the contract to a new account (`newOwner`). Can only be called by the current owner."
      }
    },
    "version": 1
  },
  "userdoc": {
    "kind": "user",
    "methods": {},
    "version": 1
  }
}