{
  "contractName": "FestivalTicket",
  "abi": [
    {
      "inputs": [
        {
          "internalType": "string",
          "name": "festivalName",
          "type": "string"
        },
        {
          "internalType": "string",
          "name": "festivalSymbol",
          "type": "string"
        },
        {
          "internalType": "uint256",
          "name": "totalSupply",
          "type": "uint256"
        },
        {
          "internalType": "uint256",
          "name": "initTicketPrice",
          "type": "uint256"
        },
        {
          "internalType": "address",
          "name": "festivalOrganiser",
          "type": "address"
        }
      ],
      "stateMutability": "nonpayable",
      "type": "constructor"
    },
    {
      "anonymous": false,
      "inputs": [
        {
          "indexed": true,
          "internalType": "address",
          "name": "owner",
          "type": "address"
        },
        {
          "indexed": true,
          "internalType": "address",
          "name": "approved",
          "type": "address"
        },
        {
          "indexed": true,
          "internalType": "uint256",
          "name": "tokenId",
          "type": "uint256"
        }
      ],
      "name": "Approval",
      "type": "event"
    },
    {
      "anonymous": false,
      "inputs": [
        {
          "indexed": true,
          "internalType": "address",
          "name": "owner",
          "type": "address"
        },
        {
          "indexed": true,
          "internalType": "address",
          "name": "operator",
          "type": "address"
        },
        {
          "indexed": false,
          "internalType": "bool",
          "name": "approved",
          "type": "bool"
        }
      ],
      "name": "ApprovalForAll",
      "type": "event"
    },
    {
      "anonymous": false,
      "inputs": [],
      "name": "BatchMinted",
      "type": "event"
    },
    {
      "anonymous": false,
      "inputs": [
        {
          "indexed": true,
          "internalType": "bytes32",
          "name": "role",
          "type": "bytes32"
        },
        {
          "indexed": true,
          "internalType": "bytes32",
          "name": "previousAdminRole",
          "type": "bytes32"
        },
        {
          "indexed": true,
          "internalType": "bytes32",
          "name": "newAdminRole",
          "type": "bytes32"
        }
      ],
      "name": "RoleAdminChanged",
      "type": "event"
    },
    {
      "anonymous": false,
      "inputs": [
        {
          "indexed": true,
          "internalType": "bytes32",
          "name": "role",
          "type": "bytes32"
        },
        {
          "indexed": true,
          "internalType": "address",
          "name": "account",
          "type": "address"
        },
        {
          "indexed": true,
          "internalType": "address",
          "name": "sender",
          "type": "address"
        }
      ],
      "name": "RoleGranted",
      "type": "event"
    },
    {
      "anonymous": false,
      "inputs": [
        {
          "indexed": true,
          "internalType": "bytes32",
          "name": "role",
          "type": "bytes32"
        },
        {
          "indexed": true,
          "internalType": "address",
          "name": "account",
          "type": "address"
        },
        {
          "indexed": true,
          "internalType": "address",
          "name": "sender",
          "type": "address"
        }
      ],
      "name": "RoleRevoked",
      "type": "event"
    },
    {
      "anonymous": false,
      "inputs": [
        {
          "indexed": true,
          "internalType": "address",
          "name": "from",
          "type": "address"
        },
        {
          "indexed": true,
          "internalType": "address",
          "name": "to",
          "type": "address"
        },
        {
          "indexed": true,
          "internalType": "uint256",
          "name": "tokenId",
          "type": "uint256"
        }
      ],
      "name": "Transfer",
      "type": "event"
    },
    {
      "inputs": [],
      "name": "DEFAULT_ADMIN_ROLE",
      "outputs": [
        {
          "internalType": "bytes32",
          "name": "",
          "type": "bytes32"
        }
      ],
      "stateMutability": "view",
      "type": "function"
    },
    {
      "inputs": [],
      "name": "ORGANISER_ROLE",
      "outputs": [
        {
          "internalType": "bytes32",
          "name": "",
          "type": "bytes32"
        }
      ],
      "stateMutability": "view",
      "type": "function"
    },
    {
      "inputs": [
        {
          "internalType": "address",
          "name": "to",
          "type": "address"
        },
        {
          "internalType": "uint256",
          "name": "tokenId",
          "type": "uint256"
        }
      ],
      "name": "approve",
      "outputs": [],
      "stateMutability": "nonpayable",
      "type": "function"
    },
    {
      "inputs": [
        {
          "internalType": "address",
          "name": "owner",
          "type": "address"
        }
      ],
      "name": "balanceOf",
      "outputs": [
        {
          "internalType": "uint256",
          "name": "",
          "type": "uint256"
        }
      ],
      "stateMutability": "view",
      "type": "function"
    },
    {
      "inputs": [
        {
          "internalType": "uint256",
          "name": "tokenId",
          "type": "uint256"
        }
      ],
      "name": "getApproved",
      "outputs": [
        {
          "internalType": "address",
          "name": "",
          "type": "address"
        }
      ],
      "stateMutability": "view",
      "type": "function"
    },
    {
      "inputs": [
        {
          "internalType": "bytes32",
          "name": "role",
          "type": "bytes32"
        }
      ],
      "name": "getRoleAdmin",
      "outputs": [
        {
          "internalType": "bytes32",
          "name": "",
          "type": "bytes32"
        }
      ],
      "stateMutability": "view",
      "type": "function"
    },
    {
      "inputs": [
        {
          "internalType": "bytes32",
          "name": "role",
          "type": "bytes32"
        },
        {
          "internalType": "address",
          "name": "account",
          "type": "address"
        }
      ],
      "name": "grantRole",
      "outputs": [],
      "stateMutability": "nonpayable",
      "type": "function"
    },
    {
      "inputs": [
        {
          "internalType": "bytes32",
          "name": "role",
          "type": "bytes32"
        },
        {
          "internalType": "address",
          "name": "account",
          "type": "address"
        }
      ],
      "name": "hasRole",
      "outputs": [
        {
          "internalType": "bool",
          "name": "",
          "type": "bool"
        }
      ],
      "stateMutability": "view",
      "type": "function"
    },
    {
      "inputs": [
        {
          "internalType": "address",
          "name": "owner",
          "type": "address"
        },
        {
          "internalType": "address",
          "name": "operator",
          "type": "address"
        }
      ],
      "name": "isApprovedForAll",
      "outputs": [
        {
          "internalType": "bool",
          "name": "",
          "type": "bool"
        }
      ],
      "stateMutability": "view",
      "type": "function"
    },
    {
      "inputs": [],
      "name": "name",
      "outputs": [
        {
          "internalType": "string",
          "name": "",
          "type": "string"
        }
      ],
      "stateMutability": "view",
      "type": "function"
    },
    {
      "inputs": [
        {
          "internalType": "uint256",
          "name": "tokenId",
          "type": "uint256"
        }
      ],
      "name": "ownerOf",
      "outputs": [
        {
          "internalType": "address",
          "name": "",
          "type": "address"
        }
      ],
      "stateMutability": "view",
      "type": "function"
    },
    {
      "inputs": [
        {
          "internalType": "bytes32",
          "name": "role",
          "type": "bytes32"
        },
        {
          "internalType": "address",
          "name": "account",
          "type": "address"
        }
      ],
      "name": "renounceRole",
      "outputs": [],
      "stateMutability": "nonpayable",
      "type": "function"
    },
    {
      "inputs": [
        {
          "internalType": "bytes32",
          "name": "role",
          "type": "bytes32"
        },
        {
          "internalType": "address",
          "name": "account",
          "type": "address"
        }
      ],
      "name": "revokeRole",
      "outputs": [],
      "stateMutability": "nonpayable",
      "type": "function"
    },
    {
      "inputs": [
        {
          "internalType": "address",
          "name": "from",
          "type": "address"
        },
        {
          "internalType": "address",
          "name": "to",
          "type": "address"
        },
        {
          "internalType": "uint256",
          "name": "tokenId",
          "type": "uint256"
        }
      ],
      "name": "safeTransferFrom",
      "outputs": [],
      "stateMutability": "nonpayable",
      "type": "function"
    },
    {
      "inputs": [
        {
          "internalType": "address",
          "name": "from",
          "type": "address"
        },
        {
          "internalType": "address",
          "name": "to",
          "type": "address"
        },
        {
          "internalType": "uint256",
          "name": "tokenId",
          "type": "uint256"
        },
        {
          "internalType": "bytes",
          "name": "_data",
          "type": "bytes"
        }
      ],
      "name": "safeTransferFrom",
      "outputs": [],
      "stateMutability": "nonpayable",
      "type": "function"
    },
    {
      "inputs": [
        {
          "internalType": "address",
          "name": "operator",
          "type": "address"
        },
        {
          "internalType": "bool",
          "name": "approved",
          "type": "bool"
        }
      ],
      "name": "setApprovalForAll",
      "outputs": [],
      "stateMutability": "nonpayable",
      "type": "function"
    },
    {
      "inputs": [],
      "name": "symbol",
      "outputs": [
        {
          "internalType": "string",
          "name": "",
          "type": "string"
        }
      ],
      "stateMutability": "view",
      "type": "function"
    },
    {
      "inputs": [
        {
          "internalType": "uint256",
          "name": "tokenId",
          "type": "uint256"
        }
      ],
      "name": "tokenURI",
      "outputs": [
        {
          "internalType": "string",
          "name": "",
          "type": "string"
        }
      ],
      "stateMutability": "view",
      "type": "function"
    },
    {
      "inputs": [
        {
          "internalType": "address",
          "name": "from",
          "type": "address"
        },
        {
          "internalType": "address",
          "name": "to",
          "type": "address"
        },
        {
          "internalType": "uint256",
          "name": "tokenId",
          "type": "uint256"
        }
      ],
      "name": "transferFrom",
      "outputs": [],
      "stateMutability": "nonpayable",
      "type": "function"
    },
    {
      "inputs": [
        {
          "internalType": "uint256",
          "name": "numberOfTickets",
          "type": "uint256"
        },
        {
          "internalType": "address",
          "name": "operator",
          "type": "address"
        }
      ],
      "name": "batchMint",
      "outputs": [],
      "stateMutability": "nonpayable",
      "type": "function"
    },
    {
      "inputs": [
        {
          "internalType": "address",
          "name": "buyer",
          "type": "address"
        },
        {
          "internalType": "uint256",
          "name": "ticketId",
          "type": "uint256"
        }
      ],
      "name": "primaryPurchaseTransfer",
      "outputs": [],
      "stateMutability": "nonpayable",
      "type": "function"
    },
    {
      "inputs": [
        {
          "internalType": "address",
          "name": "buyer",
          "type": "address"
        },
        {
          "internalType": "uint256",
          "name": "ticketId",
          "type": "uint256"
        }
      ],
      "name": "secondaryPurchaseTransfer",
      "outputs": [],
      "stateMutability": "nonpayable",
      "type": "function"
    },
    {
      "inputs": [
        {
          "internalType": "uint256",
          "name": "ticketId",
          "type": "uint256"
        },
        {
          "internalType": "uint256",
          "name": "newPrice",
          "type": "uint256"
        },
        {
          "internalType": "address",
          "name": "operator",
          "type": "address"
        }
      ],
      "name": "setTicketOnSale",
      "outputs": [],
      "stateMutability": "nonpayable",
      "type": "function"
    },
    {
      "inputs": [],
      "name": "getOrganiser",
      "outputs": [
        {
          "internalType": "address",
          "name": "",
          "type": "address"
        }
      ],
      "stateMutability": "view",
      "type": "function"
    },
    {
      "inputs": [],
      "name": "getInitSellingPrice",
      "outputs": [
        {
          "internalType": "uint256",
          "name": "",
          "type": "uint256"
        }
      ],
      "stateMutability": "view",
      "type": "function"
    },
    {
      "inputs": [
        {
          "internalType": "uint256",
          "name": "ticketId",
          "type": "uint256"
        }
      ],
      "name": "getSecondaryMarketSellingPrice",
      "outputs": [
        {
          "internalType": "uint256",
          "name": "",
          "type": "uint256"
        }
      ],
      "stateMutability": "view",
      "type": "function"
    },
    {
      "inputs": [
        {
          "internalType": "uint256",
          "name": "ticketId",
          "type": "uint256"
        }
      ],
      "name": "getTicketInfo",
      "outputs": [
        {
          "internalType": "uint256",
          "name": "",
          "type": "uint256"
        },
        {
          "internalType": "uint256",
          "name": "",
          "type": "uint256"
        },
        {
          "internalType": "bool",
          "name": "",
          "type": "bool"
        }
      ],
      "stateMutability": "view",
      "type": "function"
    },
    {
      "inputs": [],
      "name": "getMintStatus",
      "outputs": [
        {
          "internalType": "bool",
          "name": "",
          "type": "bool"
        }
      ],
      "stateMutability": "view",
      "type": "function"
    },
    {
      "inputs": [],
      "name": "getTicketsOnSecondaryMarket",
      "outputs": [
        {
          "internalType": "uint256[]",
          "name": "",
          "type": "uint256[]"
        }
      ],
      "stateMutability": "view",
      "type": "function"
    },
    {
      "inputs": [
        {
          "internalType": "address",
          "name": "buyer",
          "type": "address"
        }
      ],
      "name": "getTicketsOwnedByAddress",
      "outputs": [
        {
          "internalType": "uint256[]",
          "name": "",
          "type": "uint256[]"
        }
      ],
      "stateMutability": "view",
      "type": "function"
    },
    {
      "inputs": [],
      "name": "getTicketsOwnedByOrganiser",
      "outputs": [
        {
          "internalType": "uint256[]",
          "name": "",
          "type": "uint256[]"
        }
      ],
      "stateMutability": "view",
      "type": "function"
    },
    {
      "inputs": [],
      "name": "getTicketsBuyers",
      "outputs": [
        {
          "internalType": "address[]",
          "name": "",
          "type": "address[]"
        }
      ],
      "stateMutability": "view",
      "type": "function"
    },
    {
      "inputs": [
        {
          "internalType": "bytes4",
          "name": "interfaceId",
          "type": "bytes4"
        }
      ],
      "name": "supportsInterface",
      "outputs": [
        {
          "internalType": "bool",
          "name": "",
          "type": "bool"
        }
      ],
      "stateMutability": "view",
      "type": "function"
    }
  ],
  "bytecode": "0x60806040523480156200001157600080fd5b506040516200354338038062003543833981016040819052620000349162000305565b8451859085906200004d906001906020850190620001b4565b50805162000063906002906020840190620001b4565b505050620000a17f02043e402b2448206150a36c314b46e304de4c541e73a976575d9c4a6333626b82620000d2640100000000026401000000009004565b600a9290925560095560088054600160a060020a031916600160a060020a0390921691909117905550620004289050565b620000e78282640100000000620000eb810204565b5050565b62000100828264010000000062000187810204565b620000e757600082815260208181526040808320600160a060020a03851684529091529020805460ff1916600117905562000143640100000000620001b0810204565b600160a060020a031681600160a060020a0316837f2f8788117e7eff1d82e926ec794901d17c78024a50270940304540a733656f0d60405160405180910390a45050565b600091825260208281526040808420600160a060020a0393909316845291905290205460ff1690565b3390565b828054620001c290620003a3565b90600052602060002090601f016020900481019282620001e6576000855562000231565b82601f106200020157805160ff191683800117855562000231565b8280016001018555821562000231579182015b828111156200023157825182559160200191906001019062000214565b506200023f92915062000243565b5090565b5b808211156200023f576000815560010162000244565b600082601f8301126200026b578081fd5b81516001604060020a0380821115620002885762000288620003f9565b6040516020601f8401601f1916820181018381118382101715620002b057620002b0620003f9565b6040528382528584018101871015620002c7578485fd5b8492505b83831015620002ea5785830181015182840182015291820191620002cb565b83831115620002fb57848185840101525b5095945050505050565b600080600080600060a086880312156200031d578081fd5b85516001604060020a038082111562000334578283fd5b6200034289838a016200025a565b9650602088015191508082111562000358578283fd5b5062000367888289016200025a565b6040880151606089015160808a015192975090955093509050600160a060020a038116811462000395578182fd5b809150509295509295909350565b600281046001821680620003b857607f821691505b60208210811415620003f3577f4e487b7100000000000000000000000000000000000000000000000000000000600052602260045260246000fd5b50919050565b7f4e487b7100000000000000000000000000000000000000000000000000000000600052604160045260246000fd5b61310b80620004386000396000f3fe608060405234801561001057600080fd5b5060043610610218576000357c01000000000000000000000000000000000000000000000000000000009004806371b5a8cf11610137578063a22cb465116100ca578063c87b56dd11610099578063c87b56dd1461041c578063d547741f1461042f578063e44360ae14610442578063e985e9c514610455578063ff99a0631461046857610218565b8063a22cb465146103ce578063b88d4fde146103e1578063bc4d6771146103f4578063c2f637dc1461040957610218565b8063941ada0e11610106578063941ada0e146103a357806395d89b41146103ab5780639f26002c146103b3578063a217fddf146103c657610218565b806371b5a8cf1461036b5780637738f809146103735780638063d8971461038857806391d148541461039057610218565b80632f2ff15d116101af5780636352211e1161017e5780636352211e1461032a57806367ff8ef21461033d5780636dc7e3c71461034557806370a082311461035857610218565b80632f2ff15d146102de57806336568abe146102f157806342842e0e14610304578063593367db1461031757610218565b80630b705578116101eb5780630b705578146102905780631b4e22de1461029857806323b872dd146102ab578063248a9ca3146102be57610218565b806301ffc9a71461021d57806306fdde0314610246578063081812fc1461025b578063095ea7b31461027b575b600080fd5b61023061022b3660046124bc565b61048a565b60405161023d91906126d9565b60405180910390f35b61024e61049d565b60405161023d91906126ed565b61026e610269366004612482565b61052f565b60405161023d9190612604565b61028e610289366004612459565b61057e565b005b61026e61061c565b61028e6102a6366004612459565b61062b565b61028e6102b9366004612318565b610c87565b6102d16102cc366004612482565b610cc2565b60405161023d91906126e4565b61028e6102ec36600461249a565b610cd7565b61028e6102ff36600461249a565b610cfb565b61028e610312366004612318565b610d44565b6102d1610325366004612482565b610d5f565b61026e610338366004612482565b610db0565b6102d1610de8565b61028e6103533660046124f4565b610dee565b6102d16103663660046122cc565b610f77565b6102d1610fbe565b61037b610fe2565b60405161023d91906126a1565b61037b611039565b61023061039e36600461249a565b61108f565b6102306110b8565b61024e6110d9565b61037b6103c13660046122cc565b6110e8565b6102d1611154565b61028e6103dc36600461241f565b611159565b61028e6103ef366004612353565b61116b565b6103fc6111a7565b60405161023d9190612654565b61028e61041736600461249a565b611208565b61024e61042a366004612482565b61139d565b61028e61043d36600461249a565b611423565b61028e610450366004612459565b611442565b6102306104633660046122e6565b61170b565b61047b610476366004612482565b611739565b60405161023d93929190612f4d565b60006104958261175e565b90505b919050565b6060600180546104ac9061300a565b80601f01602080910402602001604051908101604052809291908181526020018280546104d89061300a565b80156105255780601f106104fa57610100808354040283529160200191610525565b820191906000526020600020905b81548152906001019060200180831161050857829003601f168201915b5050505050905090565b600061053a826117d0565b6105625760405160e560020a62461bcd02815260040161055990612c56565b60405180910390fd5b50600090815260056020526040902054600160a060020a031690565b600061058982610db0565b905080600160a060020a031683600160a060020a031614156105c05760405160e560020a62461bcd02815260040161055990612d6d565b80600160a060020a03166105d26117ed565b600160a060020a031614806105ee57506105ee816104636117ed565b61060d5760405160e560020a62461bcd02815260040161055990612a3f565b61061783836117f1565b505050565b600854600160a060020a031690565b600854600160a060020a031661064082610db0565b600160a060020a0316141561066a5760405160e560020a62461bcd02815260040161055990612b56565b81600160a060020a031661067d82610db0565b600160a060020a031614156106a75760405160e560020a62461bcd028152600401610559906129ab565b600854600160a060020a03838116911614156106d85760405160e560020a62461bcd028152600401610559906127c9565b60006106e382610db0565b90506106f86106f183610db0565b8484610c87565b6000828152600b6020908152604080832060018082015482556002909101805460ff19169055600160a060020a0387168452600d8352908320805491820181558352908220018390555b600c548110156108835782600c82815481106107715760e060020a634e487b7102600052603260045260246000fd5b9060005260206000200154141561087157600c541561083357600c805461079a90600190612fb0565b815481106107bb5760e060020a634e487b7102600052603260045260246000fd5b9060005260206000200154600c82815481106107ea5760e060020a634e487b7102600052603260045260246000fd5b600091825260209091200155600c8054806108185760e060020a634e487b7102600052603160045260246000fd5b6001900381819060005260206000200160009055905561086c565b600c8054806108555760e060020a634e487b7102600052603160045260246000fd5b600190038181906000526020600020016000905590555b610883565b8061087b81613042565b915050610742565b5060005b600160a060020a0382166000908152600d6020526040902054811015610a7457600160a060020a0382166000908152600d602052604090208054849190839081106108e55760e060020a634e487b7102600052603260045260246000fd5b90600052602060002001541415610a6257600160a060020a0382166000908152600d602052604090205415610a0e57600160a060020a0382166000908152600d60205260409020805461093a90600190612fb0565b8154811061095b5760e060020a634e487b7102600052603260045260246000fd5b9060005260206000200154600d600084600160a060020a0316600160a060020a0316815260200190815260200160002082815481106109ad5760e060020a634e487b7102600052603260045260246000fd5b6000918252602080832090910192909255600160a060020a0384168152600d909152604090208054806109f35760e060020a634e487b7102600052603160045260246000fd5b60019003818190600052602060002001600090559055610a5d565b600160a060020a0382166000908152600d60205260409020805480610a465760e060020a634e487b7102600052603160045260246000fd5b600190038181906000526020600020016000905590555b610a74565b80610a6c81613042565b915050610887565b50600160a060020a0381166000908152600d6020526040902054610c335760005b600e54811015610c315781600160a060020a0316600e8281548110610acd5760e060020a634e487b7102600052603260045260246000fd5b600091825260209091200154600160a060020a03161415610c1f57600e5415610bd557600e8054610b0090600190612fb0565b81548110610b215760e060020a634e487b7102600052603260045260246000fd5b600091825260209091200154600e8054600160a060020a039092169183908110610b5e5760e060020a634e487b7102600052603260045260246000fd5b9060005260206000200160006101000a815481600160a060020a030219169083600160a060020a03160217905550600e805480610bae5760e060020a634e487b7102600052603160045260246000fd5b60008281526020902081016000199081018054600160a060020a0319169055019055610c1a565b600e805480610bf75760e060020a634e487b7102600052603160045260246000fd5b60008281526020902081016000199081018054600160a060020a03191690550190555b610c31565b80610c2981613042565b915050610a95565b505b5050600e80546001810182556000919091527fbb7b4a454dc3493923482f07822329ed19e8244eff582cc204f8554c3620c3fd018054600160a060020a031916600160a060020a0392909216919091179055565b610c98610c926117ed565b8261185f565b610cb75760405160e560020a62461bcd02815260040161055990612e36565b6106178383836118e7565b60009081526020819052604090206001015490565b610ce082610cc2565b610cf181610cec6117ed565b611a1a565b6106178383611a81565b610d036117ed565b600160a060020a031681600160a060020a031614610d365760405160e560020a62461bcd02815260040161055990612ef0565b610d408282611b06565b5050565b6106178383836040518060200160405280600081525061116b565b6000818152600b6020526040812060020154829060ff16610d955760405160e560020a62461bcd02815260040161055990612a08565b6000838152600b602052604090206001015491505b50919050565b600081815260036020526040812054600160a060020a0316806104955760405160e560020a62461bcd02815260040161055990612af9565b60095490565b6000838152600b6020526040902054606490610e0b9060d2612f91565b610e159190612f7d565b8210610e365760405160e560020a62461bcd02815260040161055990612b8d565b33610e4084610db0565b600160a060020a031614610e695760405160e560020a62461bcd02815260040161055990612bf9565b600854600160a060020a0316610e7e84610db0565b600160a060020a03161415610ea85760405160e560020a62461bcd02815260040161055990612e93565b6000838152600b6020526040812060018082018590556002909101805460ff19169091179055805b600c54811015610f2b5784600c8281548110610eff5760e060020a634e487b7102600052603260045260246000fd5b90600052602060002001541415610f195760019150610f2b565b80610f2381613042565b915050610ed0565b5080610f6757600c80546001810182556000919091527fdf6966c971051c3d54ec59162606531493a51404a002842f56009d7e5cf4a8c7018490555b610f71828561057e565b50505050565b6000600160a060020a038216610fa25760405160e560020a62461bcd02815260040161055990612a9c565b50600160a060020a031660009081526004602052604090205490565b7f02043e402b2448206150a36c314b46e304de4c541e73a976575d9c4a6333626b81565b6060600f80548060200260200160405190810160405280929190818152602001828054801561052557602002820191906000526020600020905b81548152602001906001019080831161101c575050505050905090565b6060600c805480602002602001604051908101604052809291908181526020018280548015610525576020028201919060005260206000209081548152602001906001019080831161101c575050505050905090565b600091825260208281526040808420600160a060020a0393909316845291905290205460ff1690565b60085474010000000000000000000000000000000000000000900460ff1690565b6060600280546104ac9061300a565b600160a060020a0381166000908152600d602090815260409182902080548351818402810184019094528084526060939283018282801561114857602002820191906000526020600020905b815481526020019060010190808311611134575b50505050509050919050565b600081565b610d406111646117ed565b8383611b89565b61117c6111766117ed565b8361185f565b61119b5760405160e560020a62461bcd02815260040161055990612e36565b610f7184848484611c2f565b6060600e80548060200260200160405190810160405280929190818152602001828054801561052557602002820191906000526020600020905b8154600160a060020a031681526001909101906020018083116111e1575050505050905090565b6112347f02043e402b2448206150a36c314b46e304de4c541e73a976575d9c4a6333626b61039e6117ed565b6112535760405160e560020a62461bcd02815260040161055990612dff565b600a54826112616007611c65565b61126b9190612f65565b111561128c5760405160e560020a62461bcd02815260040161055990612800565b60005b8281101561133a5760006112a36007611c65565b90506112af8382611c69565b60408051606081018252600954815260006020808301828152838501838152868452600b90925293909120915182559151600182015590516002909101805460ff1916911515919091179055600f6113076007611c65565b815460018101835560009283526020909220909101556113276007611d4e565b508061133281613042565b91505061128f565b506008805474ff00000000000000000000000000000000000000001916740100000000000000000000000000000000000000001790556040517f5a31340f0d75691fca7c6ab36bdd3ece0f99ebc1e7aea94477e8a27ac8c44b6390600090a15050565b60606113a8826117d0565b6113c75760405160e560020a62461bcd02815260040161055990612d10565b60006113d1611d57565b905060008151116113f1576040518060200160405280600081525061141c565b806113fb84611d69565b60405160200161140c929190612554565b6040516020818303038152906040525b9392505050565b61142c82610cc2565b61143881610cec6117ed565b6106178383611b06565b3361144c82610db0565b600160a060020a0316146114755760405160e560020a62461bcd028152600401610559906128f1565b600854600160a060020a03838116911614156114a65760405160e560020a62461bcd02815260040161055990612dca565b6114b96114b282610db0565b8383610c87565b6000805b600e548110156115575783600160a060020a0316600e82815481106114f55760e060020a634e487b7102600052603260045260246000fd5b600091825260209091200154600160a060020a0316141561154557600160a060020a0384166000908152600d60209081526040822080546001818101835591845291909220018490559150611557565b8061154f81613042565b9150506114bd565b50806115c757600e805460018082019092557fbb7b4a454dc3493923482f07822329ed19e8244eff582cc204f8554c3620c3fd018054600160a060020a031916600160a060020a0386169081179091556000908152600d6020908152604082208054938401815582529020018290555b60005b600f54811015610f715782600f82815481106115f95760e060020a634e487b7102600052603260045260246000fd5b906000526020600020015414156116f957600f54156116bb57600f805461162290600190612fb0565b815481106116435760e060020a634e487b7102600052603260045260246000fd5b9060005260206000200154600f82815481106116725760e060020a634e487b7102600052603260045260246000fd5b600091825260209091200155600f8054806116a05760e060020a634e487b7102600052603160045260246000fd5b600190038181906000526020600020016000905590556116f4565b600f8054806116dd5760e060020a634e487b7102600052603160045260246000fd5b600190038181906000526020600020016000905590555b610f71565b8061170381613042565b9150506115ca565b600160a060020a03918216600090815260066020908152604080832093909416825291909152205460ff1690565b6000908152600b6020526040902080546001820154600290920154909260ff90911690565b6000600160e060020a031982167f80ac58cd0000000000000000000000000000000000000000000000000000000014806117c15750600160e060020a031982167f5b5e139f00000000000000000000000000000000000000000000000000000000145b80610495575061049582611ec5565b600090815260036020526040902054600160a060020a0316151590565b3390565b60008181526005602052604090208054600160a060020a031916600160a060020a038416908117909155819061182682610db0565b600160a060020a03167f8c5be1e5ebec7d5bd14f71427d1e84f3dd0314c0f7b2291e5b200ac8c7c3b92560405160405180910390a45050565b600061186a826117d0565b6118895760405160e560020a62461bcd0281526004016105599061294e565b600061189483610db0565b905080600160a060020a031684600160a060020a031614806118cf575083600160a060020a03166118c48461052f565b600160a060020a0316145b806118df57506118df818561170b565b949350505050565b82600160a060020a03166118fa82610db0565b600160a060020a0316146119235760405160e560020a62461bcd02815260040161055990612cb3565b600160a060020a03821661194c5760405160e560020a62461bcd0281526004016105599061285d565b611957838383610617565b6119626000826117f1565b600160a060020a038316600090815260046020526040812080546001929061198b908490612fb0565b9091555050600160a060020a03821660009081526004602052604081208054600192906119b9908490612f65565b90915550506000818152600360205260408082208054600160a060020a031916600160a060020a0386811691821790925591518493918716917fddf252ad1be2c89b69c2b068fc378daa952ba7f163c4a11628f55a4df523b3ef91a4505050565b611a24828261108f565b610d4057611a3c81600160a060020a03166014611f03565b611a47836020611f03565b604051602001611a58929190612583565b60408051601f198184030181529082905260e560020a62461bcd028252610559916004016126ed565b611a8b828261108f565b610d4057600082815260208181526040808320600160a060020a03851684529091529020805460ff19166001179055611ac26117ed565b600160a060020a031681600160a060020a0316837f2f8788117e7eff1d82e926ec794901d17c78024a50270940304540a733656f0d60405160405180910390a45050565b611b10828261108f565b15610d4057600082815260208181526040808320600160a060020a03851684529091529020805460ff19169055611b456117ed565b600160a060020a031681600160a060020a0316837ff6391f5c32d9c69d2a47ea670b442974b53935d1edc7fd64eb21e047a839171b60405160405180910390a45050565b81600160a060020a031683600160a060020a03161415611bbe5760405160e560020a62461bcd028152600401610559906128ba565b600160a060020a0383811660008181526006602090815260408083209487168084529490915290819020805460ff1916851515179055517f17307eab39ab6107e8899845ad3d59bd9653f200f220920489ca2b5937696c3190611c229085906126d9565b60405180910390a3505050565b611c3a8484846118e7565b611c468484848461212a565b610f715760405160e560020a62461bcd02815260040161055990612735565b5490565b600160a060020a038216611c925760405160e560020a62461bcd02815260040161055990612bc4565b611c9b816117d0565b15611cbb5760405160e560020a62461bcd02815260040161055990612792565b611cc760008383610617565b600160a060020a0382166000908152600460205260408120805460019290611cf0908490612f65565b90915550506000818152600360205260408082208054600160a060020a031916600160a060020a03861690811790915590518392907fddf252ad1be2c89b69c2b068fc378daa952ba7f163c4a11628f55a4df523b3ef908290a45050565b80546001019055565b60408051602081019091526000815290565b606081611daa575060408051808201909152600181527f30000000000000000000000000000000000000000000000000000000000000006020820152610498565b8160005b8115611dd45780611dbe81613042565b9150611dcd9050600a83612f7d565b9150611dae565b60008167ffffffffffffffff811115611e005760e060020a634e487b7102600052604160045260246000fd5b6040519080825280601f01601f191660200182016040528015611e2a576020820181803683370190505b5090505b84156118df57611e3f600183612fb0565b9150611e4c600a8661305d565b611e57906030612f65565b7f010000000000000000000000000000000000000000000000000000000000000002818381518110611e9c5760e060020a634e487b7102600052603260045260246000fd5b6020010190600160f860020a031916908160001a905350611ebe600a86612f7d565b9450611e2e565b6000600160e060020a031982167f7965db0b00000000000000000000000000000000000000000000000000000000148061049557506104958261227d565b60606000611f12836002612f91565b611f1d906002612f65565b67ffffffffffffffff811115611f465760e060020a634e487b7102600052604160045260246000fd5b6040519080825280601f01601f191660200182016040528015611f70576020820181803683370190505b5090507f300000000000000000000000000000000000000000000000000000000000000081600081518110611fb85760e060020a634e487b7102600052603260045260246000fd5b6020010190600160f860020a031916908160001a9053507f7800000000000000000000000000000000000000000000000000000000000000816001815181106120145760e060020a634e487b7102600052603260045260246000fd5b6020010190600160f860020a031916908160001a9053506000612038846002612f91565b612043906001612f65565b90505b6001811115612108577f303132333435363738396162636465660000000000000000000000000000000085600f16601081106120955760e060020a634e487b7102600052603260045260246000fd5b1a7f0100000000000000000000000000000000000000000000000000000000000000028282815181106120db5760e060020a634e487b7102600052603260045260246000fd5b6020010190600160f860020a031916908160001a90535060109094049361210181612ff3565b9050612046565b50831561141c5760405160e560020a62461bcd02815260040161055990612700565b600061213e84600160a060020a03166122af565b156122725783600160a060020a031663150b7a0261215a6117ed565b8786866040518563ffffffff167c01000000000000000000000000000000000000000000000000000000000281526004016121989493929190612618565b602060405180830381600087803b1580156121b257600080fd5b505af19250505080156121e2575060408051601f3d908101601f191682019092526121df918101906124d8565b60015b61223f573d808015612210576040519150601f19603f3d011682016040523d82523d6000602084013e612215565b606091505b5080516122375760405160e560020a62461bcd02815260040161055990612735565b805181602001fd5b600160e060020a0319167f150b7a02000000000000000000000000000000000000000000000000000000001490506118df565b506001949350505050565b600160e060020a031981167f01ffc9a70000000000000000000000000000000000000000000000000000000014919050565b3b151590565b8035600160a060020a038116811461049857600080fd5b6000602082840312156122dd578081fd5b61141c826122b5565b600080604083850312156122f8578081fd5b612301836122b5565b915061230f602084016122b5565b90509250929050565b60008060006060848603121561232c578081fd5b612335846122b5565b9250612343602085016122b5565b9150604084013590509250925092565b60008060008060808587031215612368578081fd5b612371856122b5565b935060206123808187016122b5565b935060408601359250606086013567ffffffffffffffff808211156123a3578384fd5b818801915088601f8301126123b6578384fd5b8135818111156123c8576123c86130a3565b604051601f8201601f19168101850183811182821017156123eb576123eb6130a3565b60405281815283820185018b1015612401578586fd5b81858501868301379081019093019390935250939692955090935050565b60008060408385031215612431578182fd5b61243a836122b5565b91506020830135801515811461244e578182fd5b809150509250929050565b6000806040838503121561246b578182fd5b612474836122b5565b946020939093013593505050565b600060208284031215612493578081fd5b5035919050565b600080604083850312156124ac578182fd5b8235915061230f602084016122b5565b6000602082840312156124cd578081fd5b813561141c816130bc565b6000602082840312156124e9578081fd5b815161141c816130bc565b600080600060608486031215612508578283fd5b833592506020840135915061251f604085016122b5565b90509250925092565b60008151808452612540816020860160208601612fc7565b601f01601f19169290920160200192915050565b60008351612566818460208801612fc7565b83519083019061257a818360208801612fc7565b01949350505050565b60007f416363657373436f6e74726f6c3a206163636f756e7420000000000000000000825283516125bb816017850160208801612fc7565b7f206973206d697373696e6720726f6c652000000000000000000000000000000060179184019182015283516125f8816028840160208801612fc7565b01602801949350505050565b600160a060020a0391909116815260200190565b6000600160a060020a0380871683528086166020840152508360408301526080606083015261264a6080830184612528565b9695505050505050565b6020808252825182820181905260009190848201906040850190845b81811015612695578351600160a060020a031683529284019291840191600101612670565b50909695505050505050565b6020808252825182820181905260009190848201906040850190845b81811015612695578351835292840192918401916001016126bd565b901515815260200190565b90815260200190565b60006020825261141c6020830184612528565b6020808252818101527f537472696e67733a20686578206c656e67746820696e73756666696369656e74604082015260600190565b60208082526032908201527f4552433732313a207472616e7366657220746f206e6f6e20455243373231526560408201527f63656976657220696d706c656d656e7465720000000000000000000000000000606082015260800190565b6020808252601c908201527f4552433732313a20746f6b656e20616c7265616479206d696e74656400000000604082015260600190565b60208082526018908201527f546865206f7267616e697365722063616e6e6f74206275790000000000000000604082015260600190565b60208082526022908201527f43616e6e6f74206d696e74206d6f7265207468616e20746f74616c207375707060408201527f6c79000000000000000000000000000000000000000000000000000000000000606082015260800190565b60208082526024908201527f4552433732313a207472616e7366657220746f20746865207a65726f2061646460408201527f7265737300000000000000000000000000000000000000000000000000000000606082015260800190565b60208082526019908201527f4552433732313a20617070726f766520746f2063616c6c657200000000000000604082015260600190565b60208082526029908201527f547279696e6720746f207472616e736665722066726f6d207468652077726f6e60408201527f67206163636f756e740000000000000000000000000000000000000000000000606082015260800190565b6020808252602c908201527f4552433732313a206f70657261746f7220717565727920666f72206e6f6e657860408201527f697374656e7420746f6b656e0000000000000000000000000000000000000000606082015260800190565b60208082526021908201527f54686520627579657220616c7265616479206f776e7320746865207469636b6560408201527f7400000000000000000000000000000000000000000000000000000000000000606082015260800190565b60208082526015908201527f5469636b6574206973206e6f74206f6e2073616c650000000000000000000000604082015260600190565b60208082526038908201527f4552433732313a20617070726f76652063616c6c6572206973206e6f74206f7760408201527f6e6572206e6f7220617070726f76656420666f7220616c6c0000000000000000606082015260800190565b6020808252602a908201527f4552433732313a2062616c616e636520717565727920666f7220746865207a6560408201527f726f206164647265737300000000000000000000000000000000000000000000606082015260800190565b60208082526029908201527f4552433732313a206f776e657220717565727920666f72206e6f6e657869737460408201527f656e7420746f6b656e0000000000000000000000000000000000000000000000606082015260800190565b60208082526018908201527f546865206f7267616e697365722063616e27742073656c6c0000000000000000604082015260600190565b60208082526018908201527f53656c6c696e6720707269636520697320746f20686967680000000000000000604082015260600190565b6020808252818101527f4552433732313a206d696e7420746f20746865207a65726f2061646472657373604082015260600190565b60208082526021908201527f4163636f756e742063616e6e6f7420707574207469636b6574206f6e2073616c60408201527f6500000000000000000000000000000000000000000000000000000000000000606082015260800190565b6020808252602c908201527f4552433732313a20617070726f76656420717565727920666f72206e6f6e657860408201527f697374656e7420746f6b656e0000000000000000000000000000000000000000606082015260800190565b60208082526029908201527f4552433732313a207472616e73666572206f6620746f6b656e2074686174206960408201527f73206e6f74206f776e0000000000000000000000000000000000000000000000606082015260800190565b6020808252602f908201527f4552433732314d657461646174613a2055524920717565727920666f72206e6f60408201527f6e6578697374656e7420746f6b656e0000000000000000000000000000000000606082015260800190565b60208082526021908201527f4552433732313a20617070726f76616c20746f2063757272656e74206f776e6560408201527f7200000000000000000000000000000000000000000000000000000000000000606082015260800190565b6020808252818101527f546865206f7267616e697365722063616e6e6f7420627579207469636b657473604082015260600190565b60208082526011908201527f4e6f7420746865206f7267616e69736572000000000000000000000000000000604082015260600190565b60208082526031908201527f4552433732313a207472616e736665722063616c6c6572206973206e6f74206f60408201527f776e6572206e6f7220617070726f766564000000000000000000000000000000606082015260800190565b6020808252602d908201527f4f7267616e697365722063616e6e6f742073656c6c206f6e207468652073656360408201527f6f6e64617279206d61726b657400000000000000000000000000000000000000606082015260800190565b6020808252602f908201527f416363657373436f6e74726f6c3a2063616e206f6e6c792072656e6f756e636560408201527f20726f6c657320666f722073656c660000000000000000000000000000000000606082015260800190565b92835260208301919091521515604082015260600190565b60008219821115612f7857612f78613071565b500190565b600082612f8c57612f8c61308a565b500490565b6000816000190483118215151615612fab57612fab613071565b500290565b600082821015612fc257612fc2613071565b500390565b60005b83811015612fe2578181015183820152602001612fca565b83811115610f715750506000910152565b60008161300257613002613071565b506000190190565b60028104600182168061301e57607f821691505b60208210811415610daa5760e060020a634e487b7102600052602260045260246000fd5b600060001982141561305657613056613071565b5060010190565b60008261306c5761306c61308a565b500690565b60e060020a634e487b7102600052601160045260246000fd5b60e060020a634e487b7102600052601260045260246000fd5b60e060020a634e487b7102600052604160045260246000fd5b600160e060020a0319811681146130d257600080fd5b5056fea2646970667358221220643f3e6b433952a2a8e693e8bc02167047877feab11c4dcbf7dd5a1839204ea564736f6c63430008000033",
  "immutableReferences": {},
  "source": "// SPDX-License-Identifier: MIT\npragma solidity 0.8.0;\n\nimport \"@openzeppelin/contracts/access/AccessControl.sol\";\nimport \"@openzeppelin/contracts/token/ERC721/ERC721.sol\";\nimport \"@openzeppelin/contracts/utils/Counters.sol\";\nimport \"@openzeppelin/contracts/utils/Context.sol\";\n\n/// @title A festival market place\n/// @author Ambroise Moreau\n/// @notice This contract is the ERC721 that is used to mint the festival tickets\n\ncontract FestivalTicket is Context, AccessControl, ERC721{\n    using Counters for Counters.Counter;\n    // @dev counter used to keep track of the id of the minted ticket\n    Counters.Counter private _ticketId;\n    /// @dev bytes32 representing the organiser_role\n    bytes32 public constant ORGANISER_ROLE=keccak256(\"ORGANISER_ROLE\");\n    /// @dev address of the festivalOrganiser\n    address private _festivalOrganiser;\n    \n    /// @dev Struct holding the ticketInfo\n    struct TicketInfo{\n        //@dev last purchase price\n        uint256 purchasedAt;\n        //@dev selling price\n        uint256 sellingAt;\n        //@dev ticket is on sale on the secondary market\n        bool forSale;\n    }\n    /// @dev to check if the tickets have already been minted\n    bool private _minted;\n    /// @dev initial price\n    uint256 private _initTicketPrice;\n    /// @dev ticket supply\n    uint256 private _totalSupply;\n    \n    /// @dev mapping holding the ticketsInfo of all the tickets\n    mapping(uint256 => TicketInfo) ticketsHistory;\n    /// @dev array that holds the id of the tickets on sale on the secondary market\n    uint256[] private ticketsOnSecondaryMarket;\n    /// @dev mapping to check which tickets are owned by one address\n    mapping(address => uint256[]) ticketsOwnedByAddress;\n    /// @dev array of ticket buyers\n    address[] private ticketBuyers;\n    /// @dev tickets that are under the control of the owner\n    uint256[] private ticketsOwnedByOrganiser;\n    /// @notice event emitted when tickets have been minted\n    event BatchMinted();\n    /// @dev ERC721 constructor\n    /// @param festivalName name of the festival\n    /// @param festivalSymbol symbol of the festival\n    /// @param totalSupply total supply of the tickets\n    /// @param initTicketPrice initial ticket price\n    /// @param festivalOrganiser address of the festival organiser\n    constructor(string memory festivalName, string memory festivalSymbol,\n                uint256 totalSupply, uint256 initTicketPrice, address festivalOrganiser)\n                ERC721(festivalName, festivalSymbol){\n                    _setupRole(ORGANISER_ROLE, festivalOrganiser);\n                    _totalSupply = totalSupply;\n                    _initTicketPrice = initTicketPrice;\n                    _festivalOrganiser = festivalOrganiser;\n                }\n    /// @notice check if ticket is on sale\n    /// @param ticketId id of the ticket\n    modifier isOnSale(uint256 ticketId){\n        require(ticketsHistory[ticketId].forSale, 'Ticket is not on sale');\n        _;\n    }\n    /// @notice function that mints the ticket. They are minted to the address of the transactionsLogic smart contract linked to the festival\n    /// @param numberOfTickets The number of tickets minted in the batch\n    /// @param operator The address of the operator. The NFT are minted to this address.\n    function batchMint(uint256 numberOfTickets, address operator) public virtual{\n        // ony the organiser can start the mint process\n        require(hasRole(ORGANISER_ROLE, _msgSender()), 'Not the organiser');\n        require(_ticketId.current() + numberOfTickets <= _totalSupply, \"Cannot mint more than total supply\");\n        for(uint256 i = 0; i < numberOfTickets; i++){\n            uint256 currentTicketId = _ticketId.current();\n            _mint(operator, currentTicketId);\n            ticketsHistory[currentTicketId] = TicketInfo({\n                                                purchasedAt: _initTicketPrice,\n                                                sellingAt: 0,\n                                                forSale: false\n                                            });\n            ticketsOwnedByOrganiser.push(_ticketId.current());\n            _ticketId.increment();\n        }\n        _minted = true;\n        emit BatchMinted();\n    }\n    /// @notice transfer the NFT when it is bought on the primary market\n    /// @param buyer address of the customer buying the ticket\n    /// @param ticketId id of the ticket the customer wants to buy\n    function primaryPurchaseTransfer(address buyer, uint256 ticketId) public{\n        require(ownerOf(ticketId) == msg.sender, 'Trying to transfer from the wrong account');\n        require(buyer != _festivalOrganiser, 'The organiser cannot buy tickets');\n        transferFrom(ownerOf(ticketId), buyer, ticketId);\n        bool existingBuyer = false;\n        // the remainder is just to track the ticket through the different users an provide an accurate history in the frontend \n        for(uint256 i = 0; i < ticketBuyers.length; i++){\n            if(ticketBuyers[i] == buyer){\n                existingBuyer = true;\n                ticketsOwnedByAddress[buyer].push(ticketId);\n                break;\n            }\n        }\n        if(!existingBuyer){\n            ticketBuyers.push(buyer);\n            ticketsOwnedByAddress[buyer].push(ticketId);\n            }\n        for(uint256 i = 0; i < ticketsOwnedByOrganiser.length; i++){\n            if(ticketsOwnedByOrganiser[i] == ticketId){\n                if(ticketsOwnedByOrganiser.length > 0){\n                    ticketsOwnedByOrganiser[i] = ticketsOwnedByOrganiser[ticketsOwnedByOrganiser.length-1];\n                    ticketsOwnedByOrganiser.pop();\n                }\n                else{\n                    ticketsOwnedByOrganiser.pop();\n                }\n                break;\n            }\n        }\n    }\n    /// @notice transfer the NFT when it is bought on the secondary market\n    /// @param ticketId id of the ticket the customer wants to buy\n    function secondaryPurchaseTransfer(address buyer, uint256 ticketId) public{\n        require(ownerOf(ticketId) != _festivalOrganiser, \"The organiser can't sell\");\n        require(ownerOf(ticketId) != buyer, \"The buyer already owns the ticket\");\n        require(buyer != _festivalOrganiser, \"The organiser cannot buy\");\n        address previousOwner = ownerOf(ticketId);\n        transferFrom(ownerOf(ticketId), buyer, ticketId);\n        // the remainder is just to track the ticket through the different users an provide an accurate history in the frontend\n        ticketsHistory[ticketId].purchasedAt = ticketsHistory[ticketId].sellingAt;\n        ticketsHistory[ticketId].forSale = false;\n        ticketsOwnedByAddress[buyer].push(ticketId);\n        for(uint256 i = 0; i < ticketsOnSecondaryMarket.length; i++){\n            if(ticketsOnSecondaryMarket[i] == ticketId){\n                if(ticketsOnSecondaryMarket.length > 0){\n                    ticketsOnSecondaryMarket[i] = ticketsOnSecondaryMarket[ticketsOnSecondaryMarket.length - 1];\n                    ticketsOnSecondaryMarket.pop();\n                }\n                else{\n                    ticketsOnSecondaryMarket.pop();\n                }\n                break;\n            }\n        }\n        for(uint256 i = 0; i < ticketsOwnedByAddress[previousOwner].length; i++){\n            if(ticketsOwnedByAddress[previousOwner][i] == ticketId){\n                if(ticketsOwnedByAddress[previousOwner].length > 0){\n                    ticketsOwnedByAddress[previousOwner][i] = ticketsOwnedByAddress[previousOwner][ticketsOwnedByAddress[previousOwner].length-1];\n                    ticketsOwnedByAddress[previousOwner].pop();\n                }\n                else{\n                    ticketsOwnedByAddress[previousOwner].pop();\n                }\n                break;\n            }\n        }\n        if(ticketsOwnedByAddress[previousOwner].length == 0){\n            for(uint256 i = 0; i < ticketBuyers.length; i++){\n                if(ticketBuyers[i] == previousOwner){\n                    if(ticketBuyers.length > 0){\n                        ticketBuyers[i] = ticketBuyers[ticketBuyers.length - 1];\n                        ticketBuyers.pop();\n                    }\n                    else{\n                        ticketBuyers.pop();\n                    }\n                    break;\n                }\n            }\n        }\n        ticketBuyers.push(buyer);\n    }\n    /// @notice let customers set their tickets on sale\n    /// @param newPrice new price on the secondary market\n    /// @param operator needs to be approved so that the ticket can be transferred when it is bought\n    function setTicketOnSale(uint256 ticketId, uint256 newPrice, address operator) public{\n        require(newPrice < ticketsHistory[ticketId].purchasedAt*210/100, \"Selling price is to high\");\n        require(ownerOf(ticketId) == msg.sender, \"Account cannot put ticket on sale\");\n        require(ownerOf(ticketId) != _festivalOrganiser, \"Organiser cannot sell on the secondary market\");\n        //not needed as we allow a customer to put the same ticket on sale multiple times to change the price.\n        //require(ticketsHistory[ticketId].forSale == false, \\\"Ticket already on sale\\\");\n        ticketsHistory[ticketId].sellingAt = newPrice;\n        ticketsHistory[ticketId].forSale = true;\n        bool ticketOnSale = false;\n        for(uint256 i = 0; i < ticketsOnSecondaryMarket.length; i++){\n            if(ticketsOnSecondaryMarket[i] == ticketId){\n                ticketOnSale = true;\n                break;\n            }\n        }\n        if(!ticketOnSale)\n            ticketsOnSecondaryMarket.push(ticketId);\n        approve(operator, ticketId);\n    }\n    /// @notice get festival organiser\n    /// @return address of the festival organiser\n    function getOrganiser() public view returns(address){\n        return _festivalOrganiser;\n    }\n    /// @notice get selling price on primary market\n    /// @return selling price\n    function getInitSellingPrice() public view returns(uint256){\n        return _initTicketPrice;\n    }\n    /// @notice get price on secondary market\n    /// @param ticketId id of the ticket\n    /// @return selling price on secondary market\n    function getSecondaryMarketSellingPrice(uint256 ticketId) isOnSale(ticketId) public view returns(uint256){\n        return ticketsHistory[ticketId].sellingAt;\n    }\n    /// @notice get the info related to a particular ticket\n    /// @param ticketId id of the ticket\n    /// @return price of purchase, selling price (if any), if ticket on sale\n    function getTicketInfo(uint256 ticketId) public view returns(uint256, uint256, bool){\n        return(ticketsHistory[ticketId].purchasedAt, \n               ticketsHistory[ticketId].sellingAt,\n               ticketsHistory[ticketId].forSale);\n    }\n    /// @notice get the minting status\n    /// @return true if tickets have been minted\n    function getMintStatus() public view returns (bool){\n        return _minted;\n    }\n    /// @notice get the tickets on sale on the secondary market\n    /// @return ticketsOnSecondaryMarket\n    function getTicketsOnSecondaryMarket() public view returns(uint256[] memory){\n        return ticketsOnSecondaryMarket;\n    }\n    /// @notice get the tickets owned by one address\n    /// @return list of tickets owned by the address\n    function getTicketsOwnedByAddress(address buyer) public view returns(uint256[] memory){\n        return ticketsOwnedByAddress[buyer];\n    }\n    /// @notice get the tickets that are controlled by the organiser\n    /// @return list of tickets controlled by the organiser\n    function getTicketsOwnedByOrganiser() public view returns(uint256[] memory){\n        return ticketsOwnedByOrganiser;\n    }\n    /// @notice get the list of customers who bought\n    /// @return list of buyers\n    function getTicketsBuyers() public view returns(address[] memory){\n        return ticketBuyers;\n    }\n    /// @notice check if support interface \n    /// @return true if supports\n    function supportsInterface(bytes4 interfaceId) public view virtual override(ERC721, AccessControl) returns (bool) {\n        return super.supportsInterface(interfaceId);\n    }\n}",
  "sourcePath": "/Users/ambroisemoreau/coding/consensys/final-project/contracts/FestivalTicket.sol",
  "compiler": {
    "name": "solc",
    "version": "0.8.0+commit.c7dfd78e.Emscripten.clang"
  },
  "schemaVersion": "3.4.1",
  "updatedAt": "2021-11-28T22:42:57.479Z",
  "devdoc": {
    "author": "Ambroise Moreau",
    "kind": "dev",
    "methods": {
      "approve(address,uint256)": {
        "details": "See {IERC721-approve}."
      },
      "balanceOf(address)": {
        "details": "See {IERC721-balanceOf}."
      },
      "batchMint(uint256,address)": {
        "params": {
          "numberOfTickets": "The number of tickets minted in the batch",
          "operator": "The address of the operator. The NFT are minted to this address."
        }
      },
      "constructor": {
        "details": "ERC721 constructor",
        "params": {
          "festivalName": "name of the festival",
          "festivalOrganiser": "address of the festival organiser",
          "festivalSymbol": "symbol of the festival",
          "initTicketPrice": "initial ticket price",
          "totalSupply": "total supply of the tickets"
        }
      },
      "getApproved(uint256)": {
        "details": "See {IERC721-getApproved}."
      },
      "getInitSellingPrice()": {
        "returns": {
          "_0": "selling price"
        }
      },
      "getMintStatus()": {
        "returns": {
          "_0": "true if tickets have been minted"
        }
      },
      "getOrganiser()": {
        "returns": {
          "_0": "address of the festival organiser"
        }
      },
      "getRoleAdmin(bytes32)": {
        "details": "Returns the admin role that controls `role`. See {grantRole} and {revokeRole}. To change a role's admin, use {_setRoleAdmin}."
      },
      "getSecondaryMarketSellingPrice(uint256)": {
        "params": {
          "ticketId": "id of the ticket"
        },
        "returns": {
          "_0": "selling price on secondary market"
        }
      },
      "getTicketInfo(uint256)": {
        "params": {
          "ticketId": "id of the ticket"
        },
        "returns": {
          "_0": "price of purchase, selling price (if any), if ticket on sale"
        }
      },
      "getTicketsBuyers()": {
        "returns": {
          "_0": "list of buyers"
        }
      },
      "getTicketsOnSecondaryMarket()": {
        "returns": {
          "_0": "ticketsOnSecondaryMarket"
        }
      },
      "getTicketsOwnedByAddress(address)": {
        "returns": {
          "_0": "list of tickets owned by the address"
        }
      },
      "getTicketsOwnedByOrganiser()": {
        "returns": {
          "_0": "list of tickets controlled by the organiser"
        }
      },
      "grantRole(bytes32,address)": {
        "details": "Grants `role` to `account`. If `account` had not been already granted `role`, emits a {RoleGranted} event. Requirements: - the caller must have ``role``'s admin role."
      },
      "hasRole(bytes32,address)": {
        "details": "Returns `true` if `account` has been granted `role`."
      },
      "isApprovedForAll(address,address)": {
        "details": "See {IERC721-isApprovedForAll}."
      },
      "name()": {
        "details": "See {IERC721Metadata-name}."
      },
      "ownerOf(uint256)": {
        "details": "See {IERC721-ownerOf}."
      },
      "primaryPurchaseTransfer(address,uint256)": {
        "params": {
          "buyer": "address of the customer buying the ticket",
          "ticketId": "id of the ticket the customer wants to buy"
        }
      },
      "renounceRole(bytes32,address)": {
        "details": "Revokes `role` from the calling account. Roles are often managed via {grantRole} and {revokeRole}: this function's purpose is to provide a mechanism for accounts to lose their privileges if they are compromised (such as when a trusted device is misplaced). If the calling account had been revoked `role`, emits a {RoleRevoked} event. Requirements: - the caller must be `account`."
      },
      "revokeRole(bytes32,address)": {
        "details": "Revokes `role` from `account`. If `account` had been granted `role`, emits a {RoleRevoked} event. Requirements: - the caller must have ``role``'s admin role."
      },
      "safeTransferFrom(address,address,uint256)": {
        "details": "See {IERC721-safeTransferFrom}."
      },
      "safeTransferFrom(address,address,uint256,bytes)": {
        "details": "See {IERC721-safeTransferFrom}."
      },
      "secondaryPurchaseTransfer(address,uint256)": {
        "params": {
          "ticketId": "id of the ticket the customer wants to buy"
        }
      },
      "setApprovalForAll(address,bool)": {
        "details": "See {IERC721-setApprovalForAll}."
      },
      "setTicketOnSale(uint256,uint256,address)": {
        "params": {
          "newPrice": "new price on the secondary market",
          "operator": "needs to be approved so that the ticket can be transferred when it is bought"
        }
      },
      "supportsInterface(bytes4)": {
        "returns": {
          "_0": "true if supports"
        }
      },
      "symbol()": {
        "details": "See {IERC721Metadata-symbol}."
      },
      "tokenURI(uint256)": {
        "details": "See {IERC721Metadata-tokenURI}."
      },
      "transferFrom(address,address,uint256)": {
        "details": "See {IERC721-transferFrom}."
      }
    },
    "stateVariables": {
      "ORGANISER_ROLE": {
        "details": "bytes32 representing the organiser_role"
      },
      "_festivalOrganiser": {
        "details": "address of the festivalOrganiser"
      },
      "_initTicketPrice": {
        "details": "initial price"
      },
      "_minted": {
        "details": "to check if the tickets have already been minted"
      },
      "_totalSupply": {
        "details": "ticket supply"
      },
      "ticketBuyers": {
        "details": "array of ticket buyers"
      },
      "ticketsHistory": {
        "details": "mapping holding the ticketsInfo of all the tickets"
      },
      "ticketsOnSecondaryMarket": {
        "details": "array that holds the id of the tickets on sale on the secondary market"
      },
      "ticketsOwnedByAddress": {
        "details": "mapping to check which tickets are owned by one address"
      },
      "ticketsOwnedByOrganiser": {
        "details": "tickets that are under the control of the owner"
      }
    },
    "title": "A festival market place",
    "version": 1
  },
  "userdoc": {
    "events": {
      "BatchMinted()": {
        "notice": "event emitted when tickets have been minted"
      }
    },
    "kind": "user",
    "methods": {
      "batchMint(uint256,address)": {
        "notice": "function that mints the ticket. They are minted to the address of the transactionsLogic smart contract linked to the festival"
      },
      "getInitSellingPrice()": {
        "notice": "get selling price on primary market"
      },
      "getMintStatus()": {
        "notice": "get the minting status"
      },
      "getOrganiser()": {
        "notice": "get festival organiser"
      },
      "getSecondaryMarketSellingPrice(uint256)": {
        "notice": "get price on secondary market"
      },
      "getTicketInfo(uint256)": {
        "notice": "get the info related to a particular ticket"
      },
      "getTicketsBuyers()": {
        "notice": "get the list of customers who bought"
      },
      "getTicketsOnSecondaryMarket()": {
        "notice": "get the tickets on sale on the secondary market"
      },
      "getTicketsOwnedByAddress(address)": {
        "notice": "get the tickets owned by one address"
      },
      "getTicketsOwnedByOrganiser()": {
        "notice": "get the tickets that are controlled by the organiser"
      },
      "primaryPurchaseTransfer(address,uint256)": {
        "notice": "transfer the NFT when it is bought on the primary market"
      },
      "secondaryPurchaseTransfer(address,uint256)": {
        "notice": "transfer the NFT when it is bought on the secondary market"
      },
      "setTicketOnSale(uint256,uint256,address)": {
        "notice": "let customers set their tickets on sale"
      },
      "supportsInterface(bytes4)": {
        "notice": "check if support interface "
      }
    },
    "notice": "This contract is the ERC721 that is used to mint the festival tickets",
    "version": 1
  }
}