{
  "contractName": "FestivalTicket",
  "abi": [
    {
      "inputs": [
        {
          "internalType": "string",
          "name": "festivalName",
          "type": "string"
        },
        {
          "internalType": "string",
          "name": "festivalSymbol",
          "type": "string"
        },
        {
          "internalType": "uint256",
          "name": "totalSupply",
          "type": "uint256"
        },
        {
          "internalType": "uint256",
          "name": "initTicketPrice",
          "type": "uint256"
        },
        {
          "internalType": "address",
          "name": "festivalOrganiser",
          "type": "address"
        }
      ],
      "stateMutability": "nonpayable",
      "type": "constructor"
    },
    {
      "anonymous": false,
      "inputs": [
        {
          "indexed": true,
          "internalType": "address",
          "name": "owner",
          "type": "address"
        },
        {
          "indexed": true,
          "internalType": "address",
          "name": "approved",
          "type": "address"
        },
        {
          "indexed": true,
          "internalType": "uint256",
          "name": "tokenId",
          "type": "uint256"
        }
      ],
      "name": "Approval",
      "type": "event"
    },
    {
      "anonymous": false,
      "inputs": [
        {
          "indexed": true,
          "internalType": "address",
          "name": "owner",
          "type": "address"
        },
        {
          "indexed": true,
          "internalType": "address",
          "name": "operator",
          "type": "address"
        },
        {
          "indexed": false,
          "internalType": "bool",
          "name": "approved",
          "type": "bool"
        }
      ],
      "name": "ApprovalForAll",
      "type": "event"
    },
    {
      "anonymous": false,
      "inputs": [],
      "name": "BatchMinted",
      "type": "event"
    },
    {
      "anonymous": false,
      "inputs": [
        {
          "indexed": true,
          "internalType": "bytes32",
          "name": "role",
          "type": "bytes32"
        },
        {
          "indexed": true,
          "internalType": "bytes32",
          "name": "previousAdminRole",
          "type": "bytes32"
        },
        {
          "indexed": true,
          "internalType": "bytes32",
          "name": "newAdminRole",
          "type": "bytes32"
        }
      ],
      "name": "RoleAdminChanged",
      "type": "event"
    },
    {
      "anonymous": false,
      "inputs": [
        {
          "indexed": true,
          "internalType": "bytes32",
          "name": "role",
          "type": "bytes32"
        },
        {
          "indexed": true,
          "internalType": "address",
          "name": "account",
          "type": "address"
        },
        {
          "indexed": true,
          "internalType": "address",
          "name": "sender",
          "type": "address"
        }
      ],
      "name": "RoleGranted",
      "type": "event"
    },
    {
      "anonymous": false,
      "inputs": [
        {
          "indexed": true,
          "internalType": "bytes32",
          "name": "role",
          "type": "bytes32"
        },
        {
          "indexed": true,
          "internalType": "address",
          "name": "account",
          "type": "address"
        },
        {
          "indexed": true,
          "internalType": "address",
          "name": "sender",
          "type": "address"
        }
      ],
      "name": "RoleRevoked",
      "type": "event"
    },
    {
      "anonymous": false,
      "inputs": [
        {
          "indexed": true,
          "internalType": "address",
          "name": "from",
          "type": "address"
        },
        {
          "indexed": true,
          "internalType": "address",
          "name": "to",
          "type": "address"
        },
        {
          "indexed": true,
          "internalType": "uint256",
          "name": "tokenId",
          "type": "uint256"
        }
      ],
      "name": "Transfer",
      "type": "event"
    },
    {
      "inputs": [],
      "name": "DEFAULT_ADMIN_ROLE",
      "outputs": [
        {
          "internalType": "bytes32",
          "name": "",
          "type": "bytes32"
        }
      ],
      "stateMutability": "view",
      "type": "function"
    },
    {
      "inputs": [],
      "name": "ORGANISER_ROLE",
      "outputs": [
        {
          "internalType": "bytes32",
          "name": "",
          "type": "bytes32"
        }
      ],
      "stateMutability": "view",
      "type": "function"
    },
    {
      "inputs": [
        {
          "internalType": "address",
          "name": "to",
          "type": "address"
        },
        {
          "internalType": "uint256",
          "name": "tokenId",
          "type": "uint256"
        }
      ],
      "name": "approve",
      "outputs": [],
      "stateMutability": "nonpayable",
      "type": "function"
    },
    {
      "inputs": [
        {
          "internalType": "address",
          "name": "owner",
          "type": "address"
        }
      ],
      "name": "balanceOf",
      "outputs": [
        {
          "internalType": "uint256",
          "name": "",
          "type": "uint256"
        }
      ],
      "stateMutability": "view",
      "type": "function"
    },
    {
      "inputs": [
        {
          "internalType": "uint256",
          "name": "tokenId",
          "type": "uint256"
        }
      ],
      "name": "getApproved",
      "outputs": [
        {
          "internalType": "address",
          "name": "",
          "type": "address"
        }
      ],
      "stateMutability": "view",
      "type": "function"
    },
    {
      "inputs": [
        {
          "internalType": "bytes32",
          "name": "role",
          "type": "bytes32"
        }
      ],
      "name": "getRoleAdmin",
      "outputs": [
        {
          "internalType": "bytes32",
          "name": "",
          "type": "bytes32"
        }
      ],
      "stateMutability": "view",
      "type": "function"
    },
    {
      "inputs": [
        {
          "internalType": "bytes32",
          "name": "role",
          "type": "bytes32"
        },
        {
          "internalType": "address",
          "name": "account",
          "type": "address"
        }
      ],
      "name": "grantRole",
      "outputs": [],
      "stateMutability": "nonpayable",
      "type": "function"
    },
    {
      "inputs": [
        {
          "internalType": "bytes32",
          "name": "role",
          "type": "bytes32"
        },
        {
          "internalType": "address",
          "name": "account",
          "type": "address"
        }
      ],
      "name": "hasRole",
      "outputs": [
        {
          "internalType": "bool",
          "name": "",
          "type": "bool"
        }
      ],
      "stateMutability": "view",
      "type": "function"
    },
    {
      "inputs": [
        {
          "internalType": "address",
          "name": "owner",
          "type": "address"
        },
        {
          "internalType": "address",
          "name": "operator",
          "type": "address"
        }
      ],
      "name": "isApprovedForAll",
      "outputs": [
        {
          "internalType": "bool",
          "name": "",
          "type": "bool"
        }
      ],
      "stateMutability": "view",
      "type": "function"
    },
    {
      "inputs": [],
      "name": "name",
      "outputs": [
        {
          "internalType": "string",
          "name": "",
          "type": "string"
        }
      ],
      "stateMutability": "view",
      "type": "function"
    },
    {
      "inputs": [
        {
          "internalType": "uint256",
          "name": "tokenId",
          "type": "uint256"
        }
      ],
      "name": "ownerOf",
      "outputs": [
        {
          "internalType": "address",
          "name": "",
          "type": "address"
        }
      ],
      "stateMutability": "view",
      "type": "function"
    },
    {
      "inputs": [
        {
          "internalType": "bytes32",
          "name": "role",
          "type": "bytes32"
        },
        {
          "internalType": "address",
          "name": "account",
          "type": "address"
        }
      ],
      "name": "renounceRole",
      "outputs": [],
      "stateMutability": "nonpayable",
      "type": "function"
    },
    {
      "inputs": [
        {
          "internalType": "bytes32",
          "name": "role",
          "type": "bytes32"
        },
        {
          "internalType": "address",
          "name": "account",
          "type": "address"
        }
      ],
      "name": "revokeRole",
      "outputs": [],
      "stateMutability": "nonpayable",
      "type": "function"
    },
    {
      "inputs": [
        {
          "internalType": "address",
          "name": "from",
          "type": "address"
        },
        {
          "internalType": "address",
          "name": "to",
          "type": "address"
        },
        {
          "internalType": "uint256",
          "name": "tokenId",
          "type": "uint256"
        }
      ],
      "name": "safeTransferFrom",
      "outputs": [],
      "stateMutability": "nonpayable",
      "type": "function"
    },
    {
      "inputs": [
        {
          "internalType": "address",
          "name": "from",
          "type": "address"
        },
        {
          "internalType": "address",
          "name": "to",
          "type": "address"
        },
        {
          "internalType": "uint256",
          "name": "tokenId",
          "type": "uint256"
        },
        {
          "internalType": "bytes",
          "name": "_data",
          "type": "bytes"
        }
      ],
      "name": "safeTransferFrom",
      "outputs": [],
      "stateMutability": "nonpayable",
      "type": "function"
    },
    {
      "inputs": [
        {
          "internalType": "address",
          "name": "operator",
          "type": "address"
        },
        {
          "internalType": "bool",
          "name": "approved",
          "type": "bool"
        }
      ],
      "name": "setApprovalForAll",
      "outputs": [],
      "stateMutability": "nonpayable",
      "type": "function"
    },
    {
      "inputs": [],
      "name": "symbol",
      "outputs": [
        {
          "internalType": "string",
          "name": "",
          "type": "string"
        }
      ],
      "stateMutability": "view",
      "type": "function"
    },
    {
      "inputs": [
        {
          "internalType": "uint256",
          "name": "tokenId",
          "type": "uint256"
        }
      ],
      "name": "tokenURI",
      "outputs": [
        {
          "internalType": "string",
          "name": "",
          "type": "string"
        }
      ],
      "stateMutability": "view",
      "type": "function"
    },
    {
      "inputs": [
        {
          "internalType": "address",
          "name": "from",
          "type": "address"
        },
        {
          "internalType": "address",
          "name": "to",
          "type": "address"
        },
        {
          "internalType": "uint256",
          "name": "tokenId",
          "type": "uint256"
        }
      ],
      "name": "transferFrom",
      "outputs": [],
      "stateMutability": "nonpayable",
      "type": "function"
    },
    {
      "inputs": [
        {
          "internalType": "uint256",
          "name": "numberOfTickets",
          "type": "uint256"
        },
        {
          "internalType": "address",
          "name": "operator",
          "type": "address"
        }
      ],
      "name": "batchMint",
      "outputs": [],
      "stateMutability": "nonpayable",
      "type": "function"
    },
    {
      "inputs": [
        {
          "internalType": "address",
          "name": "buyer",
          "type": "address"
        },
        {
          "internalType": "uint256",
          "name": "ticketId",
          "type": "uint256"
        }
      ],
      "name": "primaryPurchaseTransfer",
      "outputs": [],
      "stateMutability": "nonpayable",
      "type": "function"
    },
    {
      "inputs": [
        {
          "internalType": "address",
          "name": "buyer",
          "type": "address"
        },
        {
          "internalType": "uint256",
          "name": "ticketId",
          "type": "uint256"
        }
      ],
      "name": "secondaryPurchaseTransfer",
      "outputs": [],
      "stateMutability": "nonpayable",
      "type": "function"
    },
    {
      "inputs": [
        {
          "internalType": "uint256",
          "name": "ticketId",
          "type": "uint256"
        },
        {
          "internalType": "uint256",
          "name": "newPrice",
          "type": "uint256"
        },
        {
          "internalType": "address",
          "name": "operator",
          "type": "address"
        }
      ],
      "name": "setTicketOnSale",
      "outputs": [],
      "stateMutability": "nonpayable",
      "type": "function"
    },
    {
      "inputs": [],
      "name": "getOrganiser",
      "outputs": [
        {
          "internalType": "address",
          "name": "",
          "type": "address"
        }
      ],
      "stateMutability": "view",
      "type": "function"
    },
    {
      "inputs": [],
      "name": "getInitSellingPrice",
      "outputs": [
        {
          "internalType": "uint256",
          "name": "",
          "type": "uint256"
        }
      ],
      "stateMutability": "view",
      "type": "function"
    },
    {
      "inputs": [
        {
          "internalType": "uint256",
          "name": "ticketId",
          "type": "uint256"
        }
      ],
      "name": "getSecondaryMarketSellingPrice",
      "outputs": [
        {
          "internalType": "uint256",
          "name": "",
          "type": "uint256"
        }
      ],
      "stateMutability": "view",
      "type": "function"
    },
    {
      "inputs": [
        {
          "internalType": "uint256",
          "name": "ticketId",
          "type": "uint256"
        }
      ],
      "name": "getTicketInfo",
      "outputs": [
        {
          "internalType": "uint256",
          "name": "",
          "type": "uint256"
        },
        {
          "internalType": "uint256",
          "name": "",
          "type": "uint256"
        },
        {
          "internalType": "bool",
          "name": "",
          "type": "bool"
        }
      ],
      "stateMutability": "view",
      "type": "function"
    },
    {
      "inputs": [],
      "name": "getMintStatus",
      "outputs": [
        {
          "internalType": "bool",
          "name": "",
          "type": "bool"
        }
      ],
      "stateMutability": "view",
      "type": "function"
    },
    {
      "inputs": [],
      "name": "getTicketsOnSecondaryMarket",
      "outputs": [
        {
          "internalType": "uint256[]",
          "name": "",
          "type": "uint256[]"
        }
      ],
      "stateMutability": "view",
      "type": "function"
    },
    {
      "inputs": [
        {
          "internalType": "address",
          "name": "buyer",
          "type": "address"
        }
      ],
      "name": "getTicketsOwnedByAddress",
      "outputs": [
        {
          "internalType": "uint256[]",
          "name": "",
          "type": "uint256[]"
        }
      ],
      "stateMutability": "view",
      "type": "function"
    },
    {
      "inputs": [],
      "name": "getTicketsOwnedByOrganiser",
      "outputs": [
        {
          "internalType": "uint256[]",
          "name": "",
          "type": "uint256[]"
        }
      ],
      "stateMutability": "view",
      "type": "function"
    },
    {
      "inputs": [],
      "name": "getTicketsBuyers",
      "outputs": [
        {
          "internalType": "address[]",
          "name": "",
          "type": "address[]"
        }
      ],
      "stateMutability": "view",
      "type": "function"
    },
    {
      "inputs": [
        {
          "internalType": "bytes4",
          "name": "interfaceId",
          "type": "bytes4"
        }
      ],
      "name": "supportsInterface",
      "outputs": [
        {
          "internalType": "bool",
          "name": "",
          "type": "bool"
        }
      ],
      "stateMutability": "view",
      "type": "function"
    }
  ],
  "bytecode": "0x60806040523480156200001157600080fd5b50604051620033d1380380620033d183398101604081905262000034916200030d565b8451859085906200004d906001906020850190620001b4565b50805162000063906002906020840190620001b4565b505050620000a17f02043e402b2448206150a36c314b46e304de4c541e73a976575d9c4a6333626b82620000d2640100000000026401000000009004565b600a9290925560095560088054600160a060020a031916600160a060020a0390921691909117905550620004309050565b620000e78282640100000000620000eb810204565b5050565b62000100828264010000000062000187810204565b620000e757600082815260208181526040808320600160a060020a03851684529091529020805460ff1916600117905562000143640100000000620001b0810204565b600160a060020a031681600160a060020a0316837f2f8788117e7eff1d82e926ec794901d17c78024a50270940304540a733656f0d60405160405180910390a45050565b600091825260208281526040808420600160a060020a0393909316845291905290205460ff1690565b3390565b828054620001c290620003ab565b90600052602060002090601f016020900481019282620001e6576000855562000231565b82601f106200020157805160ff191683800117855562000231565b8280016001018555821562000231579182015b828111156200023157825182559160200191906001019062000214565b506200023f92915062000243565b5090565b5b808211156200023f576000815560010162000244565b600082601f8301126200026b578081fd5b81516001604060020a038082111562000288576200028862000401565b604051601f8301601f19908116603f01168101908282118183101715620002b357620002b362000401565b81604052838152602092508683858801011115620002cf578485fd5b8491505b83821015620002f25785820183015181830184015290820190620002d3565b838211156200030357848385830101525b9695505050505050565b600080600080600060a0868803121562000325578081fd5b85516001604060020a03808211156200033c578283fd5b6200034a89838a016200025a565b9650602088015191508082111562000360578283fd5b506200036f888289016200025a565b6040880151606089015160808a015192975090955093509050600160a060020a03811681146200039d578182fd5b809150509295509295909350565b600281046001821680620003c057607f821691505b60208210811415620003fb577f4e487b7100000000000000000000000000000000000000000000000000000000600052602260045260246000fd5b50919050565b7f4e487b7100000000000000000000000000000000000000000000000000000000600052604160045260246000fd5b612f9180620004406000396000f3fe608060405234801561001057600080fd5b5060043610610218576000357c01000000000000000000000000000000000000000000000000000000009004806371b5a8cf11610137578063a22cb465116100ca578063c87b56dd11610099578063c87b56dd1461047a578063d547741f1461048d578063e44360ae146104a0578063e985e9c5146104b3578063ff99a063146104ef57600080fd5b8063a22cb4651461042c578063b88d4fde1461043f578063bc4d677114610452578063c2f637dc1461046757600080fd5b8063941ada0e11610106578063941ada0e146103e657806395d89b41146104095780639f26002c14610411578063a217fddf1461042457600080fd5b806371b5a8cf1461038f5780637738f809146103b65780638063d897146103cb57806391d14854146103d357600080fd5b80632f2ff15d116101af5780636352211e1161017e5780636352211e1461034e57806367ff8ef2146103615780636dc7e3c71461036957806370a082311461037c57600080fd5b80632f2ff15d1461030257806336568abe1461031557806342842e0e14610328578063593367db1461033b57600080fd5b80630b705578116101eb5780630b7055781461029a5780631b4e22de146102ab57806323b872dd146102be578063248a9ca3146102d157600080fd5b806301ffc9a71461021d57806306fdde0314610245578063081812fc1461025a578063095ea7b314610285575b600080fd5b61023061022b366004612b15565b61053f565b60405190151581526020015b60405180910390f35b61024d610550565b60405161023c9190612d1e565b61026d610268366004612adb565b6105e2565b604051600160a060020a03909116815260200161023c565b610298610293366004612ab2565b610690565b005b600854600160a060020a031661026d565b6102986102b9366004612ab2565b6107c8565b6102986102cc366004612968565b610e94565b6102f46102df366004612adb565b60009081526020819052604090206001015490565b60405190815260200161023c565b610298610310366004612af3565b610ec8565b610298610323366004612af3565b610eee565b610298610336366004612968565b610f7d565b6102f4610349366004612adb565b610f98565b61026d61035c366004612adb565b611019565b6009546102f4565b610298610377366004612b4d565b6110a7565b6102f461038a36600461291c565b61130c565b6102f47f02043e402b2448206150a36c314b46e304de4c541e73a976575d9c4a6333626b81565b6103be6113a9565b60405161023c9190612ce6565b6103be611400565b6102306103e1366004612af3565b611456565b60085474010000000000000000000000000000000000000000900460ff16610230565b61024d61147f565b6103be61041f36600461291c565b61148e565b6102f4600081565b61029861043a366004612a78565b6114fa565b61029861044d3660046129a3565b6115c2565b61045a6115f7565b60405161023c9190612c99565b610298610475366004612af3565b611658565b61024d610488366004612adb565b61186d565b61029861049b366004612af3565b611966565b6102986104ae366004612ab2565b61198c565b6102306104c1366004612936565b600160a060020a03918216600090815260066020908152604080832093909416825291909152205460ff1690565b6105226104fd366004612adb565b6000908152600b6020526040902080546001820154600290920154909260ff90911690565b60408051938452602084019290925215159082015260600161023c565b600061054a82611cf2565b92915050565b60606001805461055f90612e90565b80601f016020809104026020016040519081016040528092919081815260200182805461058b90612e90565b80156105d85780601f106105ad576101008083540402835291602001916105d8565b820191906000526020600020905b8154815290600101906020018083116105bb57829003601f168201915b5050505050905090565b600081815260036020526040812054600160a060020a03166106745760405160e560020a62461bcd02815260206004820152602c60248201527f4552433732313a20617070726f76656420717565727920666f72206e6f6e657860448201527f697374656e7420746f6b656e000000000000000000000000000000000000000060648201526084015b60405180910390fd5b50600090815260056020526040902054600160a060020a031690565b600061069b82611019565b905080600160a060020a031683600160a060020a031614156107285760405160e560020a62461bcd02815260206004820152602160248201527f4552433732313a20617070726f76616c20746f2063757272656e74206f776e6560448201527f7200000000000000000000000000000000000000000000000000000000000000606482015260840161066b565b33600160a060020a0382161480610744575061074481336104c1565b6107b95760405160e560020a62461bcd02815260206004820152603860248201527f4552433732313a20617070726f76652063616c6c6572206973206e6f74206f7760448201527f6e6572206e6f7220617070726f76656420666f7220616c6c0000000000000000606482015260840161066b565b6107c38383611d64565b505050565b600854600160a060020a03166107dd82611019565b600160a060020a031614156108375760405160e560020a62461bcd02815260206004820152601860248201527f546865206f7267616e697365722063616e27742073656c6c0000000000000000604482015260640161066b565b81600160a060020a031661084a82611019565b600160a060020a031614156108ca5760405160e560020a62461bcd02815260206004820152602160248201527f54686520627579657220616c7265616479206f776e7320746865207469636b6560448201527f7400000000000000000000000000000000000000000000000000000000000000606482015260840161066b565b600854600160a060020a038381169116141561092b5760405160e560020a62461bcd02815260206004820152601860248201527f546865206f7267616e697365722063616e6e6f74206275790000000000000000604482015260640161066b565b600061093682611019565b905061094b61094483611019565b8484610e94565b6000828152600b6020908152604080832060018082015482556002909101805460ff19169055600160a060020a0387168452600d8352908320805491820181558352908220018390555b600c54811015610aba5782600c82815481106109c45760e060020a634e487b7102600052603260045260246000fd5b90600052602060002001541415610aa857600c5415610a8657600c80546109ed90600190612e36565b81548110610a0e5760e060020a634e487b7102600052603260045260246000fd5b9060005260206000200154600c8281548110610a3d5760e060020a634e487b7102600052603260045260246000fd5b600091825260209091200155600c805480610a6b5760e060020a634e487b7102600052603160045260246000fd5b60019003818190600052602060002001600090559055610aba565b600c805480610a6b5760e060020a634e487b7102600052603160045260246000fd5b80610ab281612ec8565b915050610995565b5060005b600160a060020a0382166000908152600d6020526040902054811015610c8f57600160a060020a0382166000908152600d60205260409020805484919083908110610b1c5760e060020a634e487b7102600052603260045260246000fd5b90600052602060002001541415610c7d57600160a060020a0382166000908152600d602052604090205415610c4557600160a060020a0382166000908152600d602052604090208054610b7190600190612e36565b81548110610b925760e060020a634e487b7102600052603260045260246000fd5b9060005260206000200154600d600084600160a060020a0316600160a060020a031681526020019081526020016000208281548110610be45760e060020a634e487b7102600052603260045260246000fd5b6000918252602080832090910192909255600160a060020a0384168152600d90915260409020805480610c2a5760e060020a634e487b7102600052603160045260246000fd5b60019003818190600052602060002001600090559055610c8f565b600160a060020a0382166000908152600d60205260409020805480610c2a5760e060020a634e487b7102600052603160045260246000fd5b80610c8781612ec8565b915050610abe565b50600160a060020a0381166000908152600d6020526040902054610e335760005b600e54811015610e315781600160a060020a0316600e8281548110610ce85760e060020a634e487b7102600052603260045260246000fd5b600091825260209091200154600160a060020a03161415610e1f57600e5415610dfd57600e8054610d1b90600190612e36565b81548110610d3c5760e060020a634e487b7102600052603260045260246000fd5b600091825260209091200154600e8054600160a060020a039092169183908110610d795760e060020a634e487b7102600052603260045260246000fd5b9060005260206000200160006101000a815481600160a060020a030219169083600160a060020a03160217905550600e805480610dc95760e060020a634e487b7102600052603160045260246000fd5b6000828152602090208101600019908101805473ffffffffffffffffffffffffffffffffffffffff19169055019055610e31565b600e805480610dc95760e060020a634e487b7102600052603160045260246000fd5b80610e2981612ec8565b915050610cb0565b505b5050600e80546001810182556000919091527fbb7b4a454dc3493923482f07822329ed19e8244eff582cc204f8554c3620c3fd01805473ffffffffffffffffffffffffffffffffffffffff1916600160a060020a0392909216919091179055565b610e9e3382611ddf565b610ebd5760405160e560020a62461bcd02815260040161066b90612d8e565b6107c3838383611eea565b600082815260208190526040902060010154610ee481336120ca565b6107c38383612131565b600160a060020a0381163314610f6f5760405160e560020a62461bcd02815260206004820152602f60248201527f416363657373436f6e74726f6c3a2063616e206f6e6c792072656e6f756e636560448201527f20726f6c657320666f722073656c660000000000000000000000000000000000606482015260840161066b565b610f7982826121b5565b5050565b6107c3838383604051806020016040528060008152506115c2565b6000818152600b6020526040812060020154829060ff16610ffe5760405160e560020a62461bcd02815260206004820152601560248201527f5469636b6574206973206e6f74206f6e2073616c650000000000000000000000604482015260640161066b565b6000838152600b602052604090206001015491505b50919050565b600081815260036020526040812054600160a060020a03168061054a5760405160e560020a62461bcd02815260206004820152602960248201527f4552433732313a206f776e657220717565727920666f72206e6f6e657869737460448201527f656e7420746f6b656e0000000000000000000000000000000000000000000000606482015260840161066b565b6000838152600b60205260409020546064906110c49060d2612e17565b6110ce9190612e03565b821061111f5760405160e560020a62461bcd02815260206004820152601860248201527f53656c6c696e6720707269636520697320746f20686967680000000000000000604482015260640161066b565b3361112984611019565b600160a060020a0316146111a85760405160e560020a62461bcd02815260206004820152602160248201527f4163636f756e742063616e6e6f7420707574207469636b6574206f6e2073616c60448201527f6500000000000000000000000000000000000000000000000000000000000000606482015260840161066b565b600854600160a060020a03166111bd84611019565b600160a060020a0316141561123d5760405160e560020a62461bcd02815260206004820152602d60248201527f4f7267616e697365722063616e6e6f742073656c6c206f6e207468652073656360448201527f6f6e64617279206d61726b657400000000000000000000000000000000000000606482015260840161066b565b6000838152600b6020526040812060018082018590556002909101805460ff19169091179055805b600c548110156112c05784600c82815481106112945760e060020a634e487b7102600052603260045260246000fd5b906000526020600020015414156112ae57600191506112c0565b806112b881612ec8565b915050611265565b50806112fc57600c80546001810182556000919091527fdf6966c971051c3d54ec59162606531493a51404a002842f56009d7e5cf4a8c7018490555b6113068285610690565b50505050565b6000600160a060020a03821661138d5760405160e560020a62461bcd02815260206004820152602a60248201527f4552433732313a2062616c616e636520717565727920666f7220746865207a6560448201527f726f206164647265737300000000000000000000000000000000000000000000606482015260840161066b565b50600160a060020a031660009081526004602052604090205490565b6060600f8054806020026020016040519081016040528092919081815260200182805480156105d857602002820191906000526020600020905b8154815260200190600101908083116113e3575050505050905090565b6060600c8054806020026020016040519081016040528092919081815260200182805480156105d857602002820191906000526020600020908154815260200190600101908083116113e3575050505050905090565b600091825260208281526040808420600160a060020a0393909316845291905290205460ff1690565b60606002805461055f90612e90565b600160a060020a0381166000908152600d60209081526040918290208054835181840281018401909452808452606093928301828280156114ee57602002820191906000526020600020905b8154815260200190600101908083116114da575b50505050509050919050565b600160a060020a0382163314156115565760405160e560020a62461bcd02815260206004820152601960248201527f4552433732313a20617070726f766520746f2063616c6c657200000000000000604482015260640161066b565b336000818152600660209081526040808320600160a060020a03871680855290835292819020805460ff191686151590811790915590519081529192917f17307eab39ab6107e8899845ad3d59bd9653f200f220920489ca2b5937696c31910160405180910390a35050565b6115cc3383611ddf565b6115eb5760405160e560020a62461bcd02815260040161066b90612d8e565b6113068484848461221a565b6060600e8054806020026020016040519081016040528092919081815260200182805480156105d857602002820191906000526020600020905b8154600160a060020a03168152600190910190602001808311611631575050505050905090565b6116827f02043e402b2448206150a36c314b46e304de4c541e73a976575d9c4a6333626b33611456565b6116d15760405160e560020a62461bcd02815260206004820152601160248201527f4e6f7420746865206f7267616e69736572000000000000000000000000000000604482015260640161066b565b6103e8826116de60075490565b6116e89190612deb565b111561175f5760405160e560020a62461bcd02815260206004820152602260248201527f43616e6e6f74206d696e74206d6f7265207468616e2031303030207469636b6560448201527f7473000000000000000000000000000000000000000000000000000000000000606482015260840161066b565b60005b8281101561180a57600061177560075490565b90506117818382612250565b60408051606081018252600954815260006020808301828152838501838152868452600b90925293909120915182559151600182015590516002909101805460ff1916911515919091179055600754600f90815460018101835560009283526020909220909101556117f7600780546001019055565b508061180281612ec8565b915050611762565b506008805474ff00000000000000000000000000000000000000001916740100000000000000000000000000000000000000001790556040517f5a31340f0d75691fca7c6ab36bdd3ece0f99ebc1e7aea94477e8a27ac8c44b6390600090a15050565b600081815260036020526040902054606090600160a060020a03166118fd5760405160e560020a62461bcd02815260206004820152602f60248201527f4552433732314d657461646174613a2055524920717565727920666f72206e6f60448201527f6e6578697374656e7420746f6b656e0000000000000000000000000000000000606482015260840161066b565b600061191460408051602081019091526000815290565b90506000815111611934576040518060200160405280600081525061195f565b8061193e846123a5565b60405160200161194f929190612bad565b6040516020818303038152906040525b9392505050565b60008281526020819052604090206001015461198281336120ca565b6107c383836121b5565b3361199682611019565b600160a060020a031614611a155760405160e560020a62461bcd02815260206004820152602960248201527f547279696e6720746f207472616e736665722066726f6d207468652077726f6e60448201527f67206163636f756e740000000000000000000000000000000000000000000000606482015260840161066b565b600854600160a060020a0383811691161415611a9c5760405160e560020a62461bcd02815260206004820152603060248201527f546865206f7267616e697365722063616e6e6f7420627579206f6e207468652060448201527f7365636f6e64617279206d61726b657400000000000000000000000000000000606482015260840161066b565b611aaf611aa882611019565b8383610e94565b6000805b600e54811015611b4d5783600160a060020a0316600e8281548110611aeb5760e060020a634e487b7102600052603260045260246000fd5b600091825260209091200154600160a060020a03161415611b3b57600160a060020a0384166000908152600d60209081526040822080546001818101835591845291909220018490559150611b4d565b80611b4581612ec8565b915050611ab3565b5080611bca57600e805460018082019092557fbb7b4a454dc3493923482f07822329ed19e8244eff582cc204f8554c3620c3fd01805473ffffffffffffffffffffffffffffffffffffffff1916600160a060020a0386169081179091556000908152600d6020908152604082208054938401815582529020018290555b60005b600f548110156113065782600f8281548110611bfc5760e060020a634e487b7102600052603260045260246000fd5b90600052602060002001541415611ce057600f5415611cbe57600f8054611c2590600190612e36565b81548110611c465760e060020a634e487b7102600052603260045260246000fd5b9060005260206000200154600f8281548110611c755760e060020a634e487b7102600052603260045260246000fd5b600091825260209091200155600f805480611ca35760e060020a634e487b7102600052603160045260246000fd5b60019003818190600052602060002001600090559055611306565b600f805480611ca35760e060020a634e487b7102600052603160045260246000fd5b80611cea81612ec8565b915050611bcd565b6000600160e060020a031982167f80ac58cd000000000000000000000000000000000000000000000000000000001480611d555750600160e060020a031982167f5b5e139f00000000000000000000000000000000000000000000000000000000145b8061054a575061054a82612500565b6000818152600560205260409020805473ffffffffffffffffffffffffffffffffffffffff1916600160a060020a0384169081179091558190611da682611019565b600160a060020a03167f8c5be1e5ebec7d5bd14f71427d1e84f3dd0314c0f7b2291e5b200ac8c7c3b92560405160405180910390a45050565b600081815260036020526040812054600160a060020a0316611e6c5760405160e560020a62461bcd02815260206004820152602c60248201527f4552433732313a206f70657261746f7220717565727920666f72206e6f6e657860448201527f697374656e7420746f6b656e0000000000000000000000000000000000000000606482015260840161066b565b6000611e7783611019565b905080600160a060020a031684600160a060020a03161480611eb2575083600160a060020a0316611ea7846105e2565b600160a060020a0316145b80611ee25750600160a060020a0380821660009081526006602090815260408083209388168352929052205460ff165b949350505050565b82600160a060020a0316611efd82611019565b600160a060020a031614611f7c5760405160e560020a62461bcd02815260206004820152602960248201527f4552433732313a207472616e73666572206f6620746f6b656e2074686174206960448201527f73206e6f74206f776e0000000000000000000000000000000000000000000000606482015260840161066b565b600160a060020a038216611ffa5760405160e560020a62461bcd028152602060048201526024808201527f4552433732313a207472616e7366657220746f20746865207a65726f2061646460448201527f7265737300000000000000000000000000000000000000000000000000000000606482015260840161066b565b612005600082611d64565b600160a060020a038316600090815260046020526040812080546001929061202e908490612e36565b9091555050600160a060020a038216600090815260046020526040812080546001929061205c908490612deb565b9091555050600081815260036020526040808220805473ffffffffffffffffffffffffffffffffffffffff1916600160a060020a0386811691821790925591518493918716917fddf252ad1be2c89b69c2b068fc378daa952ba7f163c4a11628f55a4df523b3ef91a4505050565b6120d48282611456565b610f79576120ec81600160a060020a03166014612567565b6120f7836020612567565b604051602001612108929190612bdc565b60408051601f198184030181529082905260e560020a62461bcd02825261066b91600401612d1e565b61213b8282611456565b610f7957600082815260208181526040808320600160a060020a03851684529091529020805460ff191660011790556121713390565b600160a060020a031681600160a060020a0316837f2f8788117e7eff1d82e926ec794901d17c78024a50270940304540a733656f0d60405160405180910390a45050565b6121bf8282611456565b15610f7957600082815260208181526040808320600160a060020a0385168085529252808320805460ff1916905551339285917ff6391f5c32d9c69d2a47ea670b442974b53935d1edc7fd64eb21e047a839171b9190a45050565b612225848484611eea565b612231848484846127be565b6113065760405160e560020a62461bcd02815260040161066b90612d31565b600160a060020a0382166122a95760405160e560020a62461bcd02815260206004820181905260248201527f4552433732313a206d696e7420746f20746865207a65726f2061646472657373604482015260640161066b565b600081815260036020526040902054600160a060020a0316156123115760405160e560020a62461bcd02815260206004820152601c60248201527f4552433732313a20746f6b656e20616c7265616479206d696e74656400000000604482015260640161066b565b600160a060020a038216600090815260046020526040812080546001929061233a908490612deb565b9091555050600081815260036020526040808220805473ffffffffffffffffffffffffffffffffffffffff1916600160a060020a03861690811790915590518392907fddf252ad1be2c89b69c2b068fc378daa952ba7f163c4a11628f55a4df523b3ef908290a45050565b6060816123e557505060408051808201909152600181527f3000000000000000000000000000000000000000000000000000000000000000602082015290565b8160005b811561240f57806123f981612ec8565b91506124089050600a83612e03565b91506123e9565b60008167ffffffffffffffff81111561243b5760e060020a634e487b7102600052604160045260246000fd5b6040519080825280601f01601f191660200182016040528015612465576020820181803683370190505b5090505b8415611ee25761247a600183612e36565b9150612487600a86612ee3565b612492906030612deb565b7f0100000000000000000000000000000000000000000000000000000000000000028183815181106124d75760e060020a634e487b7102600052603260045260246000fd5b6020010190600160f860020a031916908160001a9053506124f9600a86612e03565b9450612469565b6000600160e060020a031982167f7965db0b00000000000000000000000000000000000000000000000000000000148061054a57507f01ffc9a700000000000000000000000000000000000000000000000000000000600160e060020a031983161461054a565b60606000612576836002612e17565b612581906002612deb565b67ffffffffffffffff8111156125aa5760e060020a634e487b7102600052604160045260246000fd5b6040519080825280601f01601f1916602001820160405280156125d4576020820181803683370190505b5090507f30000000000000000000000000000000000000000000000000000000000000008160008151811061261c5760e060020a634e487b7102600052603260045260246000fd5b6020010190600160f860020a031916908160001a9053507f7800000000000000000000000000000000000000000000000000000000000000816001815181106126785760e060020a634e487b7102600052603260045260246000fd5b6020010190600160f860020a031916908160001a905350600061269c846002612e17565b6126a7906001612deb565b90505b600181111561276c577f303132333435363738396162636465660000000000000000000000000000000085600f16601081106126f95760e060020a634e487b7102600052603260045260246000fd5b1a7f01000000000000000000000000000000000000000000000000000000000000000282828151811061273f5760e060020a634e487b7102600052603260045260246000fd5b6020010190600160f860020a031916908160001a90535060109094049361276581612e79565b90506126aa565b50831561195f5760405160e560020a62461bcd02815260206004820181905260248201527f537472696e67733a20686578206c656e67746820696e73756666696369656e74604482015260640161066b565b6000600160a060020a0384163b156128f5576040517f150b7a02000000000000000000000000000000000000000000000000000000008152600160a060020a0385169063150b7a029061281b903390899088908890600401612c5d565b602060405180830381600087803b15801561283557600080fd5b505af1925050508015612865575060408051601f3d908101601f1916820190925261286291810190612b31565b60015b6128c2573d808015612893576040519150601f19603f3d011682016040523d82523d6000602084013e612898565b606091505b5080516128ba5760405160e560020a62461bcd02815260040161066b90612d31565b805181602001fd5b600160e060020a0319167f150b7a0200000000000000000000000000000000000000000000000000000000149050611ee2565b506001949350505050565b8035600160a060020a038116811461291757600080fd5b919050565b60006020828403121561292d578081fd5b61195f82612900565b60008060408385031215612948578081fd5b61295183612900565b915061295f60208401612900565b90509250929050565b60008060006060848603121561297c578081fd5b61298584612900565b925061299360208501612900565b9150604084013590509250925092565b600080600080608085870312156129b8578081fd5b6129c185612900565b93506129cf60208601612900565b925060408501359150606085013567ffffffffffffffff808211156129f2578283fd5b818701915087601f830112612a05578283fd5b813581811115612a1757612a17612f29565b604051601f8201601f19908116603f01168101908382118183101715612a3f57612a3f612f29565b816040528281528a6020848701011115612a57578586fd5b82602086016020830137918201602001949094529598949750929550505050565b60008060408385031215612a8a578182fd5b612a9383612900565b915060208301358015158114612aa7578182fd5b809150509250929050565b60008060408385031215612ac4578182fd5b612acd83612900565b946020939093013593505050565b600060208284031215612aec578081fd5b5035919050565b60008060408385031215612b05578182fd5b8235915061295f60208401612900565b600060208284031215612b26578081fd5b813561195f81612f42565b600060208284031215612b42578081fd5b815161195f81612f42565b600080600060608486031215612b61578283fd5b8335925060208401359150612b7860408501612900565b90509250925092565b60008151808452612b99816020860160208601612e4d565b601f01601f19169290920160200192915050565b60008351612bbf818460208801612e4d565b835190830190612bd3818360208801612e4d565b01949350505050565b7f416363657373436f6e74726f6c3a206163636f756e7420000000000000000000815260008351612c14816017850160208801612e4d565b7f206973206d697373696e6720726f6c65200000000000000000000000000000006017918401918201528351612c51816028840160208801612e4d565b01602801949350505050565b6000600160a060020a03808716835280861660208401525083604083015260806060830152612c8f6080830184612b81565b9695505050505050565b6020808252825182820181905260009190848201906040850190845b81811015612cda578351600160a060020a031683529284019291840191600101612cb5565b50909695505050505050565b6020808252825182820181905260009190848201906040850190845b81811015612cda57835183529284019291840191600101612d02565b60208152600061195f6020830184612b81565b60208082526032908201527f4552433732313a207472616e7366657220746f206e6f6e20455243373231526560408201527f63656976657220696d706c656d656e7465720000000000000000000000000000606082015260800190565b60208082526031908201527f4552433732313a207472616e736665722063616c6c6572206973206e6f74206f60408201527f776e6572206e6f7220617070726f766564000000000000000000000000000000606082015260800190565b60008219821115612dfe57612dfe612ef7565b500190565b600082612e1257612e12612f10565b500490565b6000816000190483118215151615612e3157612e31612ef7565b500290565b600082821015612e4857612e48612ef7565b500390565b60005b83811015612e68578181015183820152602001612e50565b838111156113065750506000910152565b600081612e8857612e88612ef7565b506000190190565b600281046001821680612ea457607f821691505b602082108114156110135760e060020a634e487b7102600052602260045260246000fd5b6000600019821415612edc57612edc612ef7565b5060010190565b600082612ef257612ef2612f10565b500690565b60e060020a634e487b7102600052601160045260246000fd5b60e060020a634e487b7102600052601260045260246000fd5b60e060020a634e487b7102600052604160045260246000fd5b600160e060020a031981168114612f5857600080fd5b5056fea2646970667358221220c5eef144137ac41a401630d126585ff27b3303ead199885deaa9c56effb6861264736f6c63430008040033",
  "immutableReferences": {},
  "source": "// SPDX-License-Identifier: MIT\npragma solidity ^0.8.0;\n\nimport \"@openzeppelin/contracts/access/AccessControl.sol\";\nimport \"@openzeppelin/contracts/token/ERC721/ERC721.sol\";\nimport \"@openzeppelin/contracts/utils/Counters.sol\";\nimport \"@openzeppelin/contracts/utils/Context.sol\";\ncontract FestivalTicket is Context, AccessControl, ERC721{\n    using Counters for Counters.Counter;\n    Counters.Counter private _ticketId;\n    bytes32 public constant ORGANISER_ROLE=keccak256(\"ORGANISER_ROLE\");\n    \n    address private _festivalOrganiser;\n    \n    struct TicketInfo{\n        uint256 purchasedAt;\n        uint256 sellingAt;\n        bool forSale;\n    }\n    bool private _minted;\n    uint256 private _initTicketPrice;\n    uint256 private _totalSupply;\n    \n    mapping(uint256 => TicketInfo) ticketsHistory;\n    //arrays and mapping used to easily get the state of the festival (supply, tickets on the secondary market, etc)\n    uint256[] private ticketsOnSecondaryMarket;\n    mapping(address => uint256[]) ticketsOwnedByAddress;\n    address[] private ticketBuyers;\n    uint256[] private ticketsOwnedByOrganiser;\n    event BatchMinted();\n    constructor(string memory festivalName, string memory festivalSymbol,\n                uint256 totalSupply, uint256 initTicketPrice, address festivalOrganiser)\n                ERC721(festivalName, festivalSymbol){\n                    _setupRole(ORGANISER_ROLE, festivalOrganiser);\n                    _totalSupply = totalSupply;\n                    _initTicketPrice = initTicketPrice;\n                    _festivalOrganiser = festivalOrganiser;\n                }\n    modifier isOnSale(uint256 ticketId){\n        require(ticketsHistory[ticketId].forSale, 'Ticket is not on sale');\n        _;\n    }\n    /*Minting in small batches as minting 1000 tickets at one uses more gas than what is allowed. \n    The numberOfTickets should be a divider of 1000*/\n\n    function batchMint(uint256 numberOfTickets, address operator) public virtual{\n        require(hasRole(ORGANISER_ROLE, _msgSender()), 'Not the organiser');\n        require(_ticketId.current() + numberOfTickets <= 1000, \"Cannot mint more than 1000 tickets\");\n        for(uint256 i = 0; i < numberOfTickets; i++){\n            uint256 currentTicketId = _ticketId.current();\n            _mint(operator, currentTicketId);\n            ticketsHistory[currentTicketId] = TicketInfo({\n                                                purchasedAt: _initTicketPrice,\n                                                sellingAt: 0,\n                                                forSale: false\n                                            });\n            ticketsOwnedByOrganiser.push(_ticketId.current());\n            _ticketId.increment();\n        }\n        _minted = true;\n        emit BatchMinted();\n    }\n    //Transfer the NFT with ticketId to the buyer and add it to the list of buyers and to the mapping of tickets owned by addresses\n    function primaryPurchaseTransfer(address buyer, uint256 ticketId) public{\n        require(ownerOf(ticketId) == msg.sender, 'Trying to transfer from the wrong account');\n        require(buyer != _festivalOrganiser, 'The organiser cannot buy on the secondary market');\n        transferFrom(ownerOf(ticketId), buyer, ticketId);\n        bool existingBuyer = false;\n        for(uint256 i = 0; i < ticketBuyers.length; i++){\n            if(ticketBuyers[i] == buyer){\n                existingBuyer = true;\n                ticketsOwnedByAddress[buyer].push(ticketId);\n                break;\n            }\n        }\n        if(!existingBuyer){\n            ticketBuyers.push(buyer);\n            ticketsOwnedByAddress[buyer].push(ticketId);\n            }\n        for(uint256 i = 0; i < ticketsOwnedByOrganiser.length; i++){\n            if(ticketsOwnedByOrganiser[i] == ticketId){\n                if(ticketsOwnedByOrganiser.length > 0){\n                    ticketsOwnedByOrganiser[i] = ticketsOwnedByOrganiser[ticketsOwnedByOrganiser.length-1];\n                    ticketsOwnedByOrganiser.pop();\n                }\n                else{\n                    ticketsOwnedByOrganiser.pop();\n                }\n                break;\n            }\n        }\n    }\n    //Transfer the NFT from the seller to the buyer and update the list of buyers and the mapping of tickets owned by addresses\n    function secondaryPurchaseTransfer(address buyer, uint256 ticketId) public{\n        require(ownerOf(ticketId) != _festivalOrganiser, \"The organiser can't sell\");\n        require(ownerOf(ticketId) != buyer, \"The buyer already owns the ticket\");\n        require(buyer != _festivalOrganiser, \"The organiser cannot buy\");\n        address previousOwner = ownerOf(ticketId);\n        transferFrom(ownerOf(ticketId), buyer, ticketId);\n        ticketsHistory[ticketId].purchasedAt = ticketsHistory[ticketId].sellingAt;\n        ticketsHistory[ticketId].forSale = false;\n        ticketsOwnedByAddress[buyer].push(ticketId);\n        for(uint256 i = 0; i < ticketsOnSecondaryMarket.length; i++){\n            if(ticketsOnSecondaryMarket[i] == ticketId){\n                if(ticketsOnSecondaryMarket.length > 0){\n                    ticketsOnSecondaryMarket[i] = ticketsOnSecondaryMarket[ticketsOnSecondaryMarket.length - 1];\n                    ticketsOnSecondaryMarket.pop();\n                }\n                else{\n                    ticketsOnSecondaryMarket.pop();\n                }\n                break;\n            }\n        }\n        for(uint256 i = 0; i < ticketsOwnedByAddress[previousOwner].length; i++){\n            if(ticketsOwnedByAddress[previousOwner][i] == ticketId){\n                if(ticketsOwnedByAddress[previousOwner].length > 0){\n                    ticketsOwnedByAddress[previousOwner][i] = ticketsOwnedByAddress[previousOwner][ticketsOwnedByAddress[previousOwner].length-1];\n                    ticketsOwnedByAddress[previousOwner].pop();\n                }\n                else{\n                    ticketsOwnedByAddress[previousOwner].pop();\n                }\n                break;\n            }\n        }\n        if(ticketsOwnedByAddress[previousOwner].length == 0){\n            for(uint256 i = 0; i < ticketBuyers.length; i++){\n                if(ticketBuyers[i] == previousOwner){\n                    if(ticketBuyers.length > 0){\n                        ticketBuyers[i] = ticketBuyers[ticketBuyers.length - 1];\n                        ticketBuyers.pop();\n                    }\n                    else{\n                        ticketBuyers.pop();\n                    }\n                    break;\n                }\n            }\n        }\n        ticketBuyers.push(buyer);\n    }\n    /*Allows a ticket owner, different from the organiser, to set a ticket on sale. \n    The selling price cannot be higher than 210% of the previous price and the organiser cannot sell here. \n    If all the requirement are met, the customer is approved and can transfer the NFT*/\n    function setTicketOnSale(uint256 ticketId, uint256 newPrice, address operator) public{\n        require(newPrice < ticketsHistory[ticketId].purchasedAt*210/100, \"Selling price is to high\");\n        require(ownerOf(ticketId) == msg.sender, \"Account cannot put ticket on sale\");\n        require(ownerOf(ticketId) != _festivalOrganiser, \"Organiser cannot sell on the secondary market\");\n        //not needed as we allow a customer to put the same ticket on sale multiple times to change the price.\n        //require(ticketsHistory[ticketId].forSale == false, \\\"Ticket already on sale\\\");\n        ticketsHistory[ticketId].sellingAt = newPrice;\n        ticketsHistory[ticketId].forSale = true;\n        bool ticketOnSale = false;\n        for(uint256 i = 0; i < ticketsOnSecondaryMarket.length; i++){\n            if(ticketsOnSecondaryMarket[i] == ticketId){\n                ticketOnSale = true;\n                break;\n            }\n        }\n        if(!ticketOnSale)\n            ticketsOnSecondaryMarket.push(ticketId);\n        approve(operator, ticketId);\n    }\n    //Getters used in the dapp\n    function getOrganiser() public view returns(address){\n        return _festivalOrganiser;\n    }\n\n    function getInitSellingPrice() public view returns(uint256){\n        return _initTicketPrice;\n    }\n    \n    function getSecondaryMarketSellingPrice(uint256 ticketId) isOnSale(ticketId) public view returns(uint256){\n        return ticketsHistory[ticketId].sellingAt;\n    }\n    \n    function getTicketInfo(uint256 ticketId) public view returns(uint256, uint256, bool){\n        return(ticketsHistory[ticketId].purchasedAt, \n               ticketsHistory[ticketId].sellingAt,\n               ticketsHistory[ticketId].forSale);\n    }\n    \n    function getMintStatus() public view returns (bool){\n        return _minted;\n    }\n    \n    function getTicketsOnSecondaryMarket() public view returns(uint256[] memory){\n        return ticketsOnSecondaryMarket;\n    }\n    \n    function getTicketsOwnedByAddress(address buyer) public view returns(uint256[] memory){\n        return ticketsOwnedByAddress[buyer];\n    }\n    \n    function getTicketsOwnedByOrganiser() public view returns(uint256[] memory){\n        return ticketsOwnedByOrganiser;\n    }\n    \n    function getTicketsBuyers() public view returns(address[] memory){\n        return ticketBuyers;\n    }\n    \n    function supportsInterface(bytes4 interfaceId) public view virtual override(ERC721, AccessControl) returns (bool) {\n        return super.supportsInterface(interfaceId);\n    }\n}",
  "sourcePath": "/Users/ambroisemoreau/coding/consensys/final-project/contracts/FestivalTicket.sol",
  "compiler": {
    "name": "solc",
    "version": "0.8.4+commit.c7e474f2.Emscripten.clang"
  },
  "schemaVersion": "3.4.1",
  "updatedAt": "2021-11-25T19:44:19.562Z",
  "devdoc": {
    "kind": "dev",
    "methods": {
      "approve(address,uint256)": {
        "details": "See {IERC721-approve}."
      },
      "balanceOf(address)": {
        "details": "See {IERC721-balanceOf}."
      },
      "getApproved(uint256)": {
        "details": "See {IERC721-getApproved}."
      },
      "getRoleAdmin(bytes32)": {
        "details": "Returns the admin role that controls `role`. See {grantRole} and {revokeRole}. To change a role's admin, use {_setRoleAdmin}."
      },
      "grantRole(bytes32,address)": {
        "details": "Grants `role` to `account`. If `account` had not been already granted `role`, emits a {RoleGranted} event. Requirements: - the caller must have ``role``'s admin role."
      },
      "hasRole(bytes32,address)": {
        "details": "Returns `true` if `account` has been granted `role`."
      },
      "isApprovedForAll(address,address)": {
        "details": "See {IERC721-isApprovedForAll}."
      },
      "name()": {
        "details": "See {IERC721Metadata-name}."
      },
      "ownerOf(uint256)": {
        "details": "See {IERC721-ownerOf}."
      },
      "renounceRole(bytes32,address)": {
        "details": "Revokes `role` from the calling account. Roles are often managed via {grantRole} and {revokeRole}: this function's purpose is to provide a mechanism for accounts to lose their privileges if they are compromised (such as when a trusted device is misplaced). If the calling account had been granted `role`, emits a {RoleRevoked} event. Requirements: - the caller must be `account`."
      },
      "revokeRole(bytes32,address)": {
        "details": "Revokes `role` from `account`. If `account` had been granted `role`, emits a {RoleRevoked} event. Requirements: - the caller must have ``role``'s admin role."
      },
      "safeTransferFrom(address,address,uint256)": {
        "details": "See {IERC721-safeTransferFrom}."
      },
      "safeTransferFrom(address,address,uint256,bytes)": {
        "details": "See {IERC721-safeTransferFrom}."
      },
      "setApprovalForAll(address,bool)": {
        "details": "See {IERC721-setApprovalForAll}."
      },
      "symbol()": {
        "details": "See {IERC721Metadata-symbol}."
      },
      "tokenURI(uint256)": {
        "details": "See {IERC721Metadata-tokenURI}."
      },
      "transferFrom(address,address,uint256)": {
        "details": "See {IERC721-transferFrom}."
      }
    },
    "version": 1
  },
  "userdoc": {
    "kind": "user",
    "methods": {},
    "version": 1
  }
}