{
  "contractName": "TransactionsLogic",
  "abi": [
    {
      "inputs": [
        {
          "internalType": "address",
          "name": "fmt",
          "type": "address"
        },
        {
          "internalType": "address",
          "name": "ft",
          "type": "address"
        },
        {
          "internalType": "uint256",
          "name": "commission",
          "type": "uint256"
        }
      ],
      "stateMutability": "nonpayable",
      "type": "constructor"
    },
    {
      "anonymous": false,
      "inputs": [],
      "name": "TicketPurchased",
      "type": "event"
    },
    {
      "inputs": [
        {
          "internalType": "uint256",
          "name": "ticketId",
          "type": "uint256"
        }
      ],
      "name": "purchaseOnFirstMarket",
      "outputs": [],
      "stateMutability": "nonpayable",
      "type": "function"
    },
    {
      "inputs": [
        {
          "internalType": "uint256",
          "name": "ticketId",
          "type": "uint256"
        }
      ],
      "name": "purchaseOnSecondaryMarket",
      "outputs": [],
      "stateMutability": "nonpayable",
      "type": "function"
    },
    {
      "inputs": [],
      "name": "getTicketAddress",
      "outputs": [
        {
          "internalType": "address",
          "name": "",
          "type": "address"
        }
      ],
      "stateMutability": "view",
      "type": "function"
    },
    {
      "inputs": [],
      "name": "getFestivalOrganiser",
      "outputs": [
        {
          "internalType": "address",
          "name": "",
          "type": "address"
        }
      ],
      "stateMutability": "nonpayable",
      "type": "function"
    }
  ],
  "bytecode": "0x608060405234801561001057600080fd5b5060405161090d38038061090d83398101604081905261002f91610154565b60008054600160a060020a03808616600160a060020a03199283161783556001805486831693169290921791829055604080517f0b70557800000000000000000000000000000000000000000000000000000000815290519290911692630b705578926004808401936020939083900390910190829087803b1580156100b457600080fd5b505af11580156100c8573d6000803e3d6000fd5b505050506040513d601f19601f820116820180604052508101906100ec9190610133565b60028054600160a060020a031916600160a060020a03929092169190911790556003555061018f9050565b8051600160a060020a038116811461012e57600080fd5b919050565b600060208284031215610144578081fd5b61014d82610117565b9392505050565b600080600060608486031215610168578182fd5b61017184610117565b925061017f60208501610117565b9150604084015190509250925092565b61076f8061019e6000396000f3fe608060405234801561001057600080fd5b506004361061004f5760e060020a6000350463249bf50f81146100545780636737dc2514610072578063ad55c4b514610087578063bb9bee781461008f575b600080fd5b61005c6100a2565b6040516100699190610641565b60405180910390f35b610085610080366004610611565b61013e565b005b61005c61042d565b61008561009d366004610611565b61043c565b600154604080517f0b7055780000000000000000000000000000000000000000000000000000000081529051600092600160a060020a031691630b70557891600480830192602092919082900301818787803b15801561010157600080fd5b505af1158015610115573d6000803e3d6000fd5b505050506040513d601f19601f8201168201806040525081019061013991906105e3565b905090565b6001546040517f593367db000000000000000000000000000000000000000000000000000000008152600091600160a060020a03169063593367db90610188908590600401610692565b602060405180830381600087803b1580156101a257600080fd5b505af11580156101b6573d6000803e3d6000fd5b505050506040513d601f19601f820116820180604052508101906101da9190610629565b905060006064826003546101ee91906106d4565b6101f8919061069b565b6000546001546040517f6352211e000000000000000000000000000000000000000000000000000000008152929350600160a060020a03918216926323b872dd9233921690636352211e90610251908990600401610692565b602060405180830381600087803b15801561026b57600080fd5b505af115801561027f573d6000803e3d6000fd5b505050506040513d601f19601f820116820180604052508101906102a391906105e3565b6102ad85876106f3565b6040518463ffffffff1660e060020a0281526004016102ce93929190610655565b600060405180830381600087803b1580156102e857600080fd5b505af11580156102fc573d6000803e3d6000fd5b50506000546002546040517f23b872dd000000000000000000000000000000000000000000000000000000008152600160a060020a0392831694506323b872dd935061035092339216908690600401610655565b600060405180830381600087803b15801561036a57600080fd5b505af115801561037e573d6000803e3d6000fd5b50506001546040517f1b4e22de000000000000000000000000000000000000000000000000000000008152600160a060020a039091169250631b4e22de91506103cd9033908790600401610679565b600060405180830381600087803b1580156103e757600080fd5b505af11580156103fb573d6000803e3d6000fd5b50506040517f23f7ccf46dafb36db26d07aecbdb0042cdb6b24a2a9678c1aafa7bae5d884ed1925060009150a1505050565b600154600160a060020a031690565b60008054600254600154604080517f67ff8ef20000000000000000000000000000000000000000000000000000000081529051600160a060020a03948516956323b872dd95339581169416926367ff8ef29260048083019360209383900390910190829087803b1580156104af57600080fd5b505af11580156104c3573d6000803e3d6000fd5b505050506040513d601f19601f820116820180604052508101906104e79190610629565b6040518463ffffffff1660e060020a02815260040161050893929190610655565b600060405180830381600087803b15801561052257600080fd5b505af1158015610536573d6000803e3d6000fd5b50506001546040517fe44360ae000000000000000000000000000000000000000000000000000000008152600160a060020a03909116925063e44360ae91506105859033908590600401610679565b600060405180830381600087803b15801561059f57600080fd5b505af11580156105b3573d6000803e3d6000fd5b50506040517f23f7ccf46dafb36db26d07aecbdb0042cdb6b24a2a9678c1aafa7bae5d884ed1925060009150a150565b6000602082840312156105f4578081fd5b8151600160a060020a038116811461060a578182fd5b9392505050565b600060208284031215610622578081fd5b5035919050565b60006020828403121561063a578081fd5b5051919050565b600160a060020a0391909116815260200190565b600160a060020a039384168152919092166020820152604081019190915260600190565b600160a060020a03929092168252602082015260400190565b90815260200190565b6000826106cf577f4e487b710000000000000000000000000000000000000000000000000000000081526012600452602481fd5b500490565b60008160001904831182151516156106ee576106ee61070a565b500290565b6000828210156107055761070561070a565b500390565b7f4e487b7100000000000000000000000000000000000000000000000000000000600052601160045260246000fdfea2646970667358221220ef3bc81812cf37976292baca5f8b8226bb04678e8ea42909306453b4eedf5bc164736f6c63430008000033",
  "immutableReferences": {},
  "source": "// SPDX-License-Identifier: MIT\npragma solidity 0.8.0;\nimport \"./FestivalMarketToken.sol\";\nimport \"./FestivalTicket.sol\";\n\n/// @title A festival market place\n/// @author Ambroise Moreau\n/// @notice This contract is the smart contract that handles the transactions with the FMT when customers buy from both markets\n\n/// @notice interface for the FMT\ninterface IFestivalMarketToken{\n    /// @notice handles the transfer of the ERC20\n    /// @param _sender address of the token sender\n    /// @param _receiver address of the token receiver\n    /// @param price ticket price\n    function transferFrom(address _sender, address _receiver, uint256 price) external;\n}\n// @notice interface for the NFT tickets\ninterface IFestivalTicket{\n    /// @notice get the festival organiser\n    /// @return the address of the organiser\n    function getOrganiser() external returns(address);\n    /// @notice get the initial selling price\n    /// @return initial price\n    function getInitSellingPrice() external returns(uint256);\n    /// @notice transfer the FMT and NFT when purchase from 1st market\n    /// @param _buyer address of the customer buying \n    /// @param ticketId id of the ticket the customer wants to buys\n    function primaryPurchaseTransfer(address _buyer, uint256 ticketId) external;\n    /// @notice transfer the FMT and NFT when purchase from 2d market\n    /// @param _buyer address of the customer buying\n    /// @param ticketId id of the ticket the customer wants to buy\n    function secondaryPurchaseTransfer(address _buyer, uint256 ticketId) external;\n    /// @notice get price on secondary market\n    /// @param ticketId id of the ticket\n    /// @return the price on secondary market\n    function getSecondaryMarketSellingPrice(uint256 ticketId) external returns(uint256);\n    /// @notice get the owner of a ticket\n    /// @param ticketId id of the ticket\n    /// @return the address of the owner\n    function ownerOf(uint256 ticketId) external returns(address);\n    /// @notice get the organiser commission\n    /// @return the organiser commission\n    function getOrganiserCommission() external returns(uint256);\n}\n\ncontract TransactionsLogic{\n    /// @dev FMT token interface\n    IFestivalMarketToken private _IFestivalMarketToken;\n    /// @dev NFT token interface\n    IFestivalTicket private _IFestivalTicket;\n    /// @dev address of the organiser\n    address private _organiser;\n    /// @dev percentage of the sales that the organiser get on the secondary market\n    uint256 _commission;\n    /// @notice constructor\n    /// @param fmt address of the FMT contract\n    /// @param ft address of the NFT contract\n    /// @param commission % of the sales\n    constructor(address fmt, address ft, uint256 commission){\n        _IFestivalMarketToken = IFestivalMarketToken(fmt);\n        _IFestivalTicket = IFestivalTicket(ft);\n        _organiser = _IFestivalTicket.getOrganiser();\n        _commission = commission;\n\n    }\n    /// @notice event when ticket is purchased\n    event TicketPurchased();\n    /// @notice function to purchase on the first market\n    /// @param ticketId id of the ticket that is purchased\n    function purchaseOnFirstMarket(uint256 ticketId) public{\n        _IFestivalMarketToken.transferFrom(msg.sender,\n                                           _organiser,\n                                           _IFestivalTicket.getInitSellingPrice());\n        _IFestivalTicket.primaryPurchaseTransfer(msg.sender, ticketId);\n        emit TicketPurchased();\n    }\n    \n    /// @notice function to purchase on the secondary market. Commission is computed here\n    /// @param ticketId id of the ticket that is purchased\n    function purchaseOnSecondaryMarket(uint256 ticketId) public{\n        uint256 ticketPrice = _IFestivalTicket.getSecondaryMarketSellingPrice(ticketId);\n        uint256 organiserCommission = (_commission * ticketPrice)/100;\n        _IFestivalMarketToken.transferFrom(msg.sender,\n                                           _IFestivalTicket.ownerOf(ticketId),\n                                           (ticketPrice - organiserCommission));\n        _IFestivalMarketToken.transferFrom(msg.sender, _organiser, organiserCommission);\n        _IFestivalTicket.secondaryPurchaseTransfer(msg.sender, ticketId);\n            emit TicketPurchased();\n    }\n    /// @notice function to get the NFT smart contract address\n    /// @return address of the NFT smart contract\n    function getTicketAddress() public view returns(address){\n        return address(_IFestivalTicket);\n    }\n    /// @notice function to get the festival organiser\n    /// @return address of organiser\n    function getFestivalOrganiser() public returns(address){\n        return(_IFestivalTicket.getOrganiser());\n    }\n}",
  "sourcePath": "/Users/ambroisemoreau/coding/consensys/final-project/contracts/TransactionsLogic.sol",
  "compiler": {
    "name": "solc",
    "version": "0.8.0+commit.c7dfd78e.Emscripten.clang"
  },
  "schemaVersion": "3.4.1",
  "updatedAt": "2021-11-27T01:16:18.837Z",
  "devdoc": {
    "kind": "dev",
    "methods": {
      "constructor": {
        "params": {
          "commission": "% of the sales",
          "fmt": "address of the FMT contract",
          "ft": "address of the NFT contract"
        }
      },
      "getFestivalOrganiser()": {
        "returns": {
          "_0": "address of organiser"
        }
      },
      "getTicketAddress()": {
        "returns": {
          "_0": "address of the NFT smart contract"
        }
      },
      "purchaseOnFirstMarket(uint256)": {
        "params": {
          "ticketId": "id of the ticket that is purchased"
        }
      },
      "purchaseOnSecondaryMarket(uint256)": {
        "params": {
          "ticketId": "id of the ticket that is purchased"
        }
      }
    },
    "stateVariables": {
      "_IFestivalMarketToken": {
        "details": "FMT token interface"
      },
      "_IFestivalTicket": {
        "details": "NFT token interface"
      },
      "_commission": {
        "details": "percentage of the sales that the organiser get on the secondary market"
      },
      "_organiser": {
        "details": "address of the organiser"
      }
    },
    "version": 1
  },
  "userdoc": {
    "events": {
      "TicketPurchased()": {
        "notice": "event when ticket is purchased"
      }
    },
    "kind": "user",
    "methods": {
      "constructor": {
        "notice": "constructor"
      },
      "getFestivalOrganiser()": {
        "notice": "function to get the festival organiser"
      },
      "getTicketAddress()": {
        "notice": "function to get the NFT smart contract address"
      },
      "purchaseOnFirstMarket(uint256)": {
        "notice": "function to purchase on the first market"
      },
      "purchaseOnSecondaryMarket(uint256)": {
        "notice": "function to purchase on the secondary market. Commission is computed here"
      }
    },
    "version": 1
  }
}