{
  "contractName": "TransactionsLogic",
  "abi": [
    {
      "inputs": [
        {
          "internalType": "address",
          "name": "fmt",
          "type": "address"
        },
        {
          "internalType": "address",
          "name": "ft",
          "type": "address"
        },
        {
          "internalType": "uint256",
          "name": "commission",
          "type": "uint256"
        }
      ],
      "stateMutability": "nonpayable",
      "type": "constructor"
    },
    {
      "anonymous": false,
      "inputs": [],
      "name": "TicketPurchased",
      "type": "event"
    },
    {
      "inputs": [
        {
          "internalType": "uint256",
          "name": "ticketId",
          "type": "uint256"
        }
      ],
      "name": "purchaseOnFirstMarket",
      "outputs": [],
      "stateMutability": "nonpayable",
      "type": "function"
    },
    {
      "inputs": [
        {
          "internalType": "uint256",
          "name": "ticketId",
          "type": "uint256"
        }
      ],
      "name": "purchaseOnSecondaryMarket",
      "outputs": [],
      "stateMutability": "nonpayable",
      "type": "function"
    },
    {
      "inputs": [],
      "name": "getTicketAddress",
      "outputs": [
        {
          "internalType": "address",
          "name": "",
          "type": "address"
        }
      ],
      "stateMutability": "view",
      "type": "function"
    },
    {
      "inputs": [],
      "name": "getFestivalOrganiser",
      "outputs": [
        {
          "internalType": "address",
          "name": "",
          "type": "address"
        }
      ],
      "stateMutability": "nonpayable",
      "type": "function"
    }
  ],
  "bytecode": "0x60806040523480156200001157600080fd5b5060405162000d3938038062000d39833981810160405281019062000037919062000208565b826000806101000a81548173ffffffffffffffffffffffffffffffffffffffff021916908373ffffffffffffffffffffffffffffffffffffffff16021790555081600160006101000a81548173ffffffffffffffffffffffffffffffffffffffff021916908373ffffffffffffffffffffffffffffffffffffffff160217905550600160009054906101000a900473ffffffffffffffffffffffffffffffffffffffff1673ffffffffffffffffffffffffffffffffffffffff16630b7055786040518163ffffffff1660e01b8152600401602060405180830381600087803b1580156200012357600080fd5b505af115801562000138573d6000803e3d6000fd5b505050506040513d601f19601f820116820180604052508101906200015e9190620001dc565b600260006101000a81548173ffffffffffffffffffffffffffffffffffffffff021916908373ffffffffffffffffffffffffffffffffffffffff16021790555080600381905550505050620002d0565b600081519050620001bf816200029c565b92915050565b600081519050620001d681620002b6565b92915050565b600060208284031215620001ef57600080fd5b6000620001ff84828501620001ae565b91505092915050565b6000806000606084860312156200021e57600080fd5b60006200022e86828701620001ae565b93505060206200024186828701620001ae565b92505060406200025486828701620001c5565b9150509250925092565b60006200026b8262000272565b9050919050565b600073ffffffffffffffffffffffffffffffffffffffff82169050919050565b6000819050919050565b620002a7816200025e565b8114620002b357600080fd5b50565b620002c18162000292565b8114620002cd57600080fd5b50565b610a5980620002e06000396000f3fe608060405234801561001057600080fd5b506004361061004c5760003560e01c8063249bf50f146100515780636737dc251461006f578063ad55c4b51461008b578063bb9bee78146100a9575b600080fd5b6100596100c5565b6040516100669190610806565b60405180910390f35b61008960048036038101906100849190610796565b61016e565b005b6100936104f4565b6040516100a09190610806565b60405180910390f35b6100c360048036038101906100be9190610796565b61051e565b005b6000600160009054906101000a900473ffffffffffffffffffffffffffffffffffffffff1673ffffffffffffffffffffffffffffffffffffffff16630b7055786040518163ffffffff1660e01b8152600401602060405180830381600087803b15801561013157600080fd5b505af1158015610145573d6000803e3d6000fd5b505050506040513d601f19601f82011682018060405250810190610169919061076d565b905090565b6000600160009054906101000a900473ffffffffffffffffffffffffffffffffffffffff1673ffffffffffffffffffffffffffffffffffffffff1663593367db836040518263ffffffff1660e01b81526004016101cb9190610881565b602060405180830381600087803b1580156101e557600080fd5b505af11580156101f9573d6000803e3d6000fd5b505050506040513d601f19601f8201168201806040525081019061021d91906107bf565b9050600060648260035461023191906108cd565b61023b919061089c565b905060008054906101000a900473ffffffffffffffffffffffffffffffffffffffff1673ffffffffffffffffffffffffffffffffffffffff166323b872dd33600160009054906101000a900473ffffffffffffffffffffffffffffffffffffffff1673ffffffffffffffffffffffffffffffffffffffff16636352211e876040518263ffffffff1660e01b81526004016102d59190610881565b602060405180830381600087803b1580156102ef57600080fd5b505af1158015610303573d6000803e3d6000fd5b505050506040513d601f19601f82011682018060405250810190610327919061076d565b84866103339190610927565b6040518463ffffffff1660e01b815260040161035193929190610821565b600060405180830381600087803b15801561036b57600080fd5b505af115801561037f573d6000803e3d6000fd5b5050505060008054906101000a900473ffffffffffffffffffffffffffffffffffffffff1673ffffffffffffffffffffffffffffffffffffffff166323b872dd33600260009054906101000a900473ffffffffffffffffffffffffffffffffffffffff16846040518463ffffffff1660e01b815260040161040293929190610821565b600060405180830381600087803b15801561041c57600080fd5b505af1158015610430573d6000803e3d6000fd5b50505050600160009054906101000a900473ffffffffffffffffffffffffffffffffffffffff1673ffffffffffffffffffffffffffffffffffffffff16631b4e22de33856040518363ffffffff1660e01b8152600401610491929190610858565b600060405180830381600087803b1580156104ab57600080fd5b505af11580156104bf573d6000803e3d6000fd5b505050507f23f7ccf46dafb36db26d07aecbdb0042cdb6b24a2a9678c1aafa7bae5d884ed160405160405180910390a1505050565b6000600160009054906101000a900473ffffffffffffffffffffffffffffffffffffffff16905090565b60008054906101000a900473ffffffffffffffffffffffffffffffffffffffff1673ffffffffffffffffffffffffffffffffffffffff166323b872dd33600260009054906101000a900473ffffffffffffffffffffffffffffffffffffffff16600160009054906101000a900473ffffffffffffffffffffffffffffffffffffffff1673ffffffffffffffffffffffffffffffffffffffff166367ff8ef26040518163ffffffff1660e01b8152600401602060405180830381600087803b1580156105e857600080fd5b505af11580156105fc573d6000803e3d6000fd5b505050506040513d601f19601f8201168201806040525081019061062091906107bf565b6040518463ffffffff1660e01b815260040161063e93929190610821565b600060405180830381600087803b15801561065857600080fd5b505af115801561066c573d6000803e3d6000fd5b50505050600160009054906101000a900473ffffffffffffffffffffffffffffffffffffffff1673ffffffffffffffffffffffffffffffffffffffff1663e44360ae33836040518363ffffffff1660e01b81526004016106cd929190610858565b600060405180830381600087803b1580156106e757600080fd5b505af11580156106fb573d6000803e3d6000fd5b505050507f23f7ccf46dafb36db26d07aecbdb0042cdb6b24a2a9678c1aafa7bae5d884ed160405160405180910390a150565b60008151905061073d816109f5565b92915050565b60008135905061075281610a0c565b92915050565b60008151905061076781610a0c565b92915050565b60006020828403121561077f57600080fd5b600061078d8482850161072e565b91505092915050565b6000602082840312156107a857600080fd5b60006107b684828501610743565b91505092915050565b6000602082840312156107d157600080fd5b60006107df84828501610758565b91505092915050565b6107f18161095b565b82525050565b6108008161098d565b82525050565b600060208201905061081b60008301846107e8565b92915050565b600060608201905061083660008301866107e8565b61084360208301856107e8565b61085060408301846107f7565b949350505050565b600060408201905061086d60008301856107e8565b61087a60208301846107f7565b9392505050565b600060208201905061089660008301846107f7565b92915050565b60006108a78261098d565b91506108b28361098d565b9250826108c2576108c16109c6565b5b828204905092915050565b60006108d88261098d565b91506108e38361098d565b9250817fffffffffffffffffffffffffffffffffffffffffffffffffffffffffffffffff048311821515161561091c5761091b610997565b5b828202905092915050565b60006109328261098d565b915061093d8361098d565b9250828210156109505761094f610997565b5b828203905092915050565b60006109668261096d565b9050919050565b600073ffffffffffffffffffffffffffffffffffffffff82169050919050565b6000819050919050565b7f4e487b7100000000000000000000000000000000000000000000000000000000600052601160045260246000fd5b7f4e487b7100000000000000000000000000000000000000000000000000000000600052601260045260246000fd5b6109fe8161095b565b8114610a0957600080fd5b50565b610a158161098d565b8114610a2057600080fd5b5056fea264697066735822122008851fd480fcf885ac3e1942272436e97966610017688c4589f64c67f4b1ac7264736f6c63430008040033",
  "immutableReferences": {},
  "source": "// SPDX-License-Identifier: MIT\npragma solidity ^0.8.0;\nimport \"./FestivalMarketToken.sol\";\nimport \"./FestivalTicket.sol\";\n\ninterface IFestivalMarketToken{\n    function balanceOf(address _address) external returns(uint256);\n    function transferFrom(address _sender, address _receiver, uint256 price) external;\n    function approve(address _add, uint256 amount) external;\n}\ninterface IFestivalTicket{\n    function getOrganiser() external returns(address);\n    function getInitSellingPrice() external returns(uint256);\n    function primaryPurchaseTransfer(address _buyer, uint256 ticketId) external;\n    function secondaryPurchaseTransfer(address _buyer, uint256 ticketId) external;\n    function getSecondaryMarketSellingPrice(uint256 ticketId) external returns(uint256);\n    function ownerOf(uint256 ticketId) external returns(address);\n    function approve(address _to, uint256 ticketId) external;\n    function getOrganiserCommission() external returns(uint256);\n}\n\ncontract TransactionsLogic{\n    IFestivalMarketToken private _IFestivalMarketToken;\n    IFestivalTicket private _IFestivalTicket;\n    address private _organiser;\n    uint256 _commission;\n    \n    constructor(address fmt, address ft, uint256 commission){\n        _IFestivalMarketToken = IFestivalMarketToken(fmt);\n        _IFestivalTicket = IFestivalTicket(ft);\n        _organiser = _IFestivalTicket.getOrganiser();\n        _commission = commission;\n\n    }\n    event TicketPurchased();\n\n    function purchaseOnFirstMarket(uint256 ticketId) public{\n        _IFestivalMarketToken.transferFrom(msg.sender,\n                                           _organiser,\n                                           _IFestivalTicket.getInitSellingPrice());\n        _IFestivalTicket.primaryPurchaseTransfer(msg.sender, ticketId);\n        emit TicketPurchased();\n    }\n    //Transfer the right amount of FMT to the seller and the organiser. The commission is computed here.\n    function purchaseOnSecondaryMarket(uint256 ticketId) public{\n        uint256 ticketPrice = _IFestivalTicket.getSecondaryMarketSellingPrice(ticketId);\n        uint256 organiserCommission = (_commission * ticketPrice)/100;\n        _IFestivalMarketToken.transferFrom(msg.sender,\n                                           _IFestivalTicket.ownerOf(ticketId),\n                                           (ticketPrice - organiserCommission));\n                                           _IFestivalMarketToken.transferFrom(msg.sender, _organiser, organiserCommission);\n                                           _IFestivalTicket.secondaryPurchaseTransfer(msg.sender, ticketId);\n            emit TicketPurchased();\n    }\n\n    function getTicketAddress() public view returns(address){\n        return address(_IFestivalTicket);\n    }\n\n    function getFestivalOrganiser() public returns(address){\n        return(_IFestivalTicket.getOrganiser());\n    }\n}",
  "sourcePath": "/Users/ambroisemoreau/coding/consensys/final-project/contracts/TransactionsLogic.sol",
  "compiler": {
    "name": "solc",
    "version": "0.8.4+commit.c7e474f2.Emscripten.clang"
  },
  "schemaVersion": "3.4.1",
  "updatedAt": "2021-11-21T09:40:41.148Z",
  "devdoc": {
    "kind": "dev",
    "methods": {},
    "version": 1
  },
  "userdoc": {
    "kind": "user",
    "methods": {},
    "version": 1
  }
}